{
  "abi": [
    {
      "inputs": [
        {
          "internalType": "address",
          "name": "initialOwner",
          "type": "address"
        },
        {
          "internalType": "string",
          "name": "tokenName",
          "type": "string"
        },
        {
          "internalType": "string",
          "name": "tokenSymbol",
          "type": "string"
        }
      ],
      "stateMutability": "nonpayable",
      "type": "constructor"
    },
    {
      "inputs": [
        {
          "internalType": "address",
          "name": "target",
          "type": "address"
        }
      ],
      "name": "AddressEmptyCode",
      "type": "error"
    },
    {
      "inputs": [
        {
          "internalType": "address",
          "name": "account",
          "type": "address"
        }
      ],
      "name": "AddressInsufficientBalance",
      "type": "error"
    },
    {
      "inputs": [
        {
          "internalType": "address",
          "name": "spender",
          "type": "address"
        },
        {
          "internalType": "uint256",
          "name": "allowance",
          "type": "uint256"
        },
        {
          "internalType": "uint256",
          "name": "needed",
          "type": "uint256"
        }
      ],
      "name": "ERC20InsufficientAllowance",
      "type": "error"
    },
    {
      "inputs": [
        {
          "internalType": "address",
          "name": "sender",
          "type": "address"
        },
        {
          "internalType": "uint256",
          "name": "balance",
          "type": "uint256"
        },
        {
          "internalType": "uint256",
          "name": "needed",
          "type": "uint256"
        }
      ],
      "name": "ERC20InsufficientBalance",
      "type": "error"
    },
    {
      "inputs": [
        {
          "internalType": "address",
          "name": "approver",
          "type": "address"
        }
      ],
      "name": "ERC20InvalidApprover",
      "type": "error"
    },
    {
      "inputs": [
        {
          "internalType": "address",
          "name": "receiver",
          "type": "address"
        }
      ],
      "name": "ERC20InvalidReceiver",
      "type": "error"
    },
    {
      "inputs": [
        {
          "internalType": "address",
          "name": "sender",
          "type": "address"
        }
      ],
      "name": "ERC20InvalidSender",
      "type": "error"
    },
    {
      "inputs": [
        {
          "internalType": "address",
          "name": "spender",
          "type": "address"
        }
      ],
      "name": "ERC20InvalidSpender",
      "type": "error"
    },
    {
      "inputs": [],
      "name": "FailedInnerCall",
      "type": "error"
    },
    {
      "inputs": [
        {
          "internalType": "uint256",
          "name": "payment",
          "type": "uint256"
        },
        {
          "internalType": "uint256",
          "name": "required",
          "type": "uint256"
        }
      ],
      "name": "InsufficientPayment",
      "type": "error"
    },
    {
      "inputs": [
        {
          "internalType": "address",
          "name": "owner",
          "type": "address"
        }
      ],
      "name": "OwnableInvalidOwner",
      "type": "error"
    },
    {
      "inputs": [
        {
          "internalType": "address",
          "name": "account",
          "type": "address"
        }
      ],
      "name": "OwnableUnauthorizedAccount",
      "type": "error"
    },
    {
      "inputs": [],
      "name": "ReentrancyGuardReentrantCall",
      "type": "error"
    },
    {
      "inputs": [
        {
          "internalType": "address",
          "name": "token",
          "type": "address"
        }
      ],
      "name": "SafeERC20FailedOperation",
      "type": "error"
    },
    {
      "anonymous": false,
      "inputs": [
        {
          "indexed": true,
          "internalType": "address",
          "name": "owner",
          "type": "address"
        },
        {
          "indexed": true,
          "internalType": "address",
          "name": "spender",
          "type": "address"
        },
        {
          "indexed": false,
          "internalType": "uint256",
          "name": "value",
          "type": "uint256"
        }
      ],
      "name": "Approval",
      "type": "event"
    },
    {
      "anonymous": false,
      "inputs": [
        {
          "indexed": true,
          "internalType": "address",
          "name": "previousOwner",
          "type": "address"
        },
        {
          "indexed": true,
          "internalType": "address",
          "name": "newOwner",
          "type": "address"
        }
      ],
      "name": "OwnershipTransferStarted",
      "type": "event"
    },
    {
      "anonymous": false,
      "inputs": [
        {
          "indexed": true,
          "internalType": "address",
          "name": "previousOwner",
          "type": "address"
        },
        {
          "indexed": true,
          "internalType": "address",
          "name": "newOwner",
          "type": "address"
        }
      ],
      "name": "OwnershipTransferred",
      "type": "event"
    },
    {
      "anonymous": false,
      "inputs": [
        {
          "indexed": true,
          "internalType": "address",
          "name": "buyer",
          "type": "address"
        },
        {
          "indexed": false,
          "internalType": "uint256",
          "name": "amount",
          "type": "uint256"
        },
        {
          "indexed": false,
          "internalType": "uint256",
          "name": "pricePaid",
          "type": "uint256"
        }
      ],
      "name": "TokenSold",
      "type": "event"
    },
    {
      "anonymous": false,
      "inputs": [
        {
          "indexed": true,
          "internalType": "address",
          "name": "from",
          "type": "address"
        },
        {
          "indexed": true,
          "internalType": "address",
          "name": "to",
          "type": "address"
        },
        {
          "indexed": false,
          "internalType": "uint256",
          "name": "value",
          "type": "uint256"
        }
      ],
      "name": "Transfer",
      "type": "event"
    },
    {
      "inputs": [],
      "name": "BASE_PRICE",
      "outputs": [
        {
          "internalType": "uint256",
          "name": "",
          "type": "uint256"
        }
      ],
      "stateMutability": "view",
      "type": "function"
    },
    {
      "inputs": [],
      "name": "PRICE_INCREMENT",
      "outputs": [
        {
          "internalType": "uint256",
          "name": "",
          "type": "uint256"
        }
      ],
      "stateMutability": "view",
      "type": "function"
    },
    {
      "inputs": [],
      "name": "acceptOwnership",
      "outputs": [],
      "stateMutability": "nonpayable",
      "type": "function"
    },
    {
      "inputs": [
        {
          "internalType": "address",
          "name": "owner",
          "type": "address"
        },
        {
          "internalType": "address",
          "name": "spender",
          "type": "address"
        }
      ],
      "name": "allowance",
      "outputs": [
        {
          "internalType": "uint256",
          "name": "",
          "type": "uint256"
        }
      ],
      "stateMutability": "view",
      "type": "function"
    },
    {
      "inputs": [
        {
          "internalType": "address",
          "name": "spender",
          "type": "address"
        },
        {
          "internalType": "uint256",
          "name": "value",
          "type": "uint256"
        }
      ],
      "name": "approve",
      "outputs": [
        {
          "internalType": "bool",
          "name": "",
          "type": "bool"
        }
      ],
      "stateMutability": "nonpayable",
      "type": "function"
    },
    {
      "inputs": [
        {
          "internalType": "address",
          "name": "account",
          "type": "address"
        }
      ],
      "name": "balanceOf",
      "outputs": [
        {
          "internalType": "uint256",
          "name": "",
          "type": "uint256"
        }
      ],
      "stateMutability": "view",
      "type": "function"
    },
    {
      "inputs": [
        {
          "internalType": "uint256",
          "name": "_qty",
          "type": "uint256"
        },
        {
          "internalType": "uint256",
          "name": "_gas",
          "type": "uint256"
        }
      ],
      "name": "buyBack",
      "outputs": [],
      "stateMutability": "nonpayable",
      "type": "function"
    },
    {
      "inputs": [
        {
          "internalType": "uint256",
          "name": "_qty",
          "type": "uint256"
        }
      ],
      "name": "buyToken",
      "outputs": [],
      "stateMutability": "payable",
      "type": "function"
    },
    {
      "inputs": [],
      "name": "calculatePrice",
      "outputs": [
        {
          "internalType": "uint256",
          "name": "",
          "type": "uint256"
        }
      ],
      "stateMutability": "view",
      "type": "function"
    },
    {
      "inputs": [],
      "name": "decimals",
      "outputs": [
        {
          "internalType": "uint8",
          "name": "",
          "type": "uint8"
        }
      ],
      "stateMutability": "view",
      "type": "function"
    },
    {
      "inputs": [
        {
          "internalType": "address",
          "name": "to",
          "type": "address"
        },
        {
          "internalType": "uint256",
          "name": "amount",
          "type": "uint256"
        }
      ],
      "name": "mint",
      "outputs": [],
      "stateMutability": "nonpayable",
      "type": "function"
    },
    {
      "inputs": [],
      "name": "name",
      "outputs": [
        {
          "internalType": "string",
          "name": "",
          "type": "string"
        }
      ],
      "stateMutability": "view",
      "type": "function"
    },
    {
      "inputs": [],
      "name": "owner",
      "outputs": [
        {
          "internalType": "address",
          "name": "",
          "type": "address"
        }
      ],
      "stateMutability": "view",
      "type": "function"
    },
    {
      "inputs": [],
      "name": "pendingOwner",
      "outputs": [
        {
          "internalType": "address",
          "name": "",
          "type": "address"
        }
      ],
      "stateMutability": "view",
      "type": "function"
    },
    {
      "inputs": [],
      "name": "renounceOwnership",
      "outputs": [],
      "stateMutability": "nonpayable",
      "type": "function"
    },
    {
      "inputs": [],
      "name": "reserveBalance",
      "outputs": [
        {
          "internalType": "uint256",
          "name": "",
          "type": "uint256"
        }
      ],
      "stateMutability": "view",
      "type": "function"
    },
    {
      "inputs": [],
      "name": "symbol",
      "outputs": [
        {
          "internalType": "string",
          "name": "",
          "type": "string"
        }
      ],
      "stateMutability": "view",
      "type": "function"
    },
    {
      "inputs": [],
      "name": "totalSupply",
      "outputs": [
        {
          "internalType": "uint256",
          "name": "",
          "type": "uint256"
        }
      ],
      "stateMutability": "view",
      "type": "function"
    },
    {
      "inputs": [
        {
          "internalType": "address",
          "name": "to",
          "type": "address"
        },
        {
          "internalType": "uint256",
          "name": "value",
          "type": "uint256"
        }
      ],
      "name": "transfer",
      "outputs": [
        {
          "internalType": "bool",
          "name": "",
          "type": "bool"
        }
      ],
      "stateMutability": "nonpayable",
      "type": "function"
    },
    {
      "inputs": [
        {
          "internalType": "address",
          "name": "from",
          "type": "address"
        },
        {
          "internalType": "address",
          "name": "to",
          "type": "address"
        },
        {
          "internalType": "uint256",
          "name": "value",
          "type": "uint256"
        }
      ],
      "name": "transferFrom",
      "outputs": [
        {
          "internalType": "bool",
          "name": "",
          "type": "bool"
        }
      ],
      "stateMutability": "nonpayable",
      "type": "function"
    },
    {
      "inputs": [
        {
          "internalType": "address",
          "name": "newOwner",
          "type": "address"
        }
      ],
      "name": "transferOwnership",
      "outputs": [],
      "stateMutability": "nonpayable",
      "type": "function"
    },
    {
      "inputs": [
        {
          "internalType": "address",
          "name": "_receiver",
          "type": "address"
        }
      ],
      "name": "withdraw",
      "outputs": [
        {
          "internalType": "bool",
          "name": "",
          "type": "bool"
        }
      ],
      "stateMutability": "nonpayable",
      "type": "function"
    }
  ],
  "bytecode": {
    "object": "0x60806040523480156200001157600080fd5b5060405162001bd438038062001bd48339810160408190526200003491620001d4565b8181846001600160a01b0381166200006657604051631e4fbdf760e01b81526000600482015260240160405180910390fd5b6200007181620000a1565b506005620000808382620002ed565b5060066200008f8282620002ed565b5050600160075550620003b992505050565b600180546001600160a01b0319169055620000bc81620000bf565b50565b600080546001600160a01b038381166001600160a01b0319831681178455604051919092169283917f8be0079c531659141344cd1fd0a4f28419497f9722a3daafe3b4186f6b6457e09190a35050565b634e487b7160e01b600052604160045260246000fd5b600082601f8301126200013757600080fd5b81516001600160401b03808211156200015457620001546200010f565b604051601f8301601f19908116603f011681019082821181831017156200017f576200017f6200010f565b816040528381526020925086838588010111156200019c57600080fd5b600091505b83821015620001c05785820183015181830184015290820190620001a1565b600093810190920192909252949350505050565b600080600060608486031215620001ea57600080fd5b83516001600160a01b03811681146200020257600080fd5b60208501519093506001600160401b03808211156200022057600080fd5b6200022e8783880162000125565b935060408601519150808211156200024557600080fd5b50620002548682870162000125565b9150509250925092565b600181811c908216806200027357607f821691505b6020821081036200029457634e487b7160e01b600052602260045260246000fd5b50919050565b601f821115620002e857600081815260208120601f850160051c81016020861015620002c35750805b601f850160051c820191505b81811015620002e457828155600101620002cf565b5050505b505050565b81516001600160401b038111156200030957620003096200010f565b62000321816200031a84546200025e565b846200029a565b602080601f831160018114620003595760008415620003405750858301515b600019600386901b1c1916600185901b178555620002e4565b600085815260208120601f198616915b828110156200038a5788860151825594840194600190910190840162000369565b5085821015620003a95787850151600019600388901b60f8161c191681555b5050505050600190811b01905550565b61180b80620003c96000396000f3fe6080604052600436106101755760003560e01c8063715018a6116100cb578063a9059cbb1161007f578063e30c397811610059578063e30c39781461042d578063f2fde38b14610458578063f86325ed1461047857600080fd5b8063a9059cbb146103a5578063d348b409146103c5578063dd62ed3e146103da57600080fd5b80638da5cb5b116100b05780638da5cb5b1461032e57806395d89b411461037a578063a10954fe1461038f57600080fd5b8063715018a61461030457806379ba50971461031957600080fd5b8063313ce5671161012d57806351cff8d91161010757806351cff8d9146102855780636d25d802146102a557806370a08231146102c157600080fd5b8063313ce5671461022957806340c10f191461024557806347d8167d1461026557600080fd5b806318160ddd1161015e57806318160ddd146101d557806323b872dd146101f45780632d296bf11461021457600080fd5b806306fdde031461017a578063095ea7b3146101a5575b600080fd5b34801561018657600080fd5b5061018f610494565b60405161019c9190611445565b60405180910390f35b3480156101b157600080fd5b506101c56101c03660046114ba565b610526565b604051901515815260200161019c565b3480156101e157600080fd5b506004545b60405190815260200161019c565b34801561020057600080fd5b506101c561020f3660046114e4565b610540565b610227610222366004611520565b610566565b005b34801561023557600080fd5b506040516012815260200161019c565b34801561025157600080fd5b506102276102603660046114ba565b61070e565b34801561027157600080fd5b50610227610280366004611539565b610720565b34801561029157600080fd5b506101c56102a036600461155b565b610953565b3480156102b157600080fd5b506101e667016345785d8a000081565b3480156102cd57600080fd5b506101e66102dc36600461155b565b73ffffffffffffffffffffffffffffffffffffffff1660009081526002602052604090205490565b34801561031057600080fd5b50610227610984565b34801561032557600080fd5b50610227610998565b34801561033a57600080fd5b5060005473ffffffffffffffffffffffffffffffffffffffff165b60405173ffffffffffffffffffffffffffffffffffffffff909116815260200161019c565b34801561038657600080fd5b5061018f610a0f565b34801561039b57600080fd5b506101e660085481565b3480156103b157600080fd5b506101c56103c03660046114ba565b610a1e565b3480156103d157600080fd5b506101e6610a2c565b3480156103e657600080fd5b506101e66103f5366004611576565b73ffffffffffffffffffffffffffffffffffffffff918216600090815260036020908152604080832093909416825291909152205490565b34801561043957600080fd5b5060015473ffffffffffffffffffffffffffffffffffffffff16610355565b34801561046457600080fd5b5061022761047336600461155b565b610a78565b34801561048457600080fd5b506101e6670de0b6b3a764000081565b6060600580546104a3906115a9565b80601f01602080910402602001604051908101604052809291908181526020018280546104cf906115a9565b801561051c5780601f106104f15761010080835404028352916020019161051c565b820191906000526020600020905b8154815290600101906020018083116104ff57829003601f168201915b5050505050905090565b600033610534818585610b28565b60019150505b92915050565b60003361054e858285610b35565b610559858585610c04565b60019150505b9392505050565b600081610571610a2c565b61057b919061162b565b9050803410156105c5576040517fb99e2ab7000000000000000000000000000000000000000000000000000000008152346004820152602481018290526044015b60405180910390fd5b6105cf3383610caf565b80600860008282546105e19190611642565b9091555050336000908152600960205260408120805460019290610606908490611642565b909155505060408051600181526020810183905233917f35ea94addbc62df281ade49cc2ad9b3d9259166170cf702928b4ddc045f7256e910160405180910390a28034111561070a5760003361065c8334611655565b604051600081818185875af1925050503d8060008114610698576040519150601f19603f3d011682016040523d82523d6000602084013e61069d565b606091505b5050905080610708576040517f08c379a000000000000000000000000000000000000000000000000000000000815260206004820152600d60248201527f526566756e64206661696c65640000000000000000000000000000000000000060448201526064016105bc565b505b5050565b610716610d0b565b61070a8282610caf565b610728610d5e565b336000908152600260205260409020548211156107a1576040517f08c379a000000000000000000000000000000000000000000000000000000000815260206004820152601160248201527f4e6f7420656e6f75676820746f6b656e7300000000000000000000000000000060448201526064016105bc565b6000826107ac610a2c565b6107b6919061162b565b905080600854101561084a576040517f08c379a000000000000000000000000000000000000000000000000000000000815260206004820152602660248201527f4e6f7420656e6f75676820726573657276652062616c616e636520746f20627560448201527f79206261636b000000000000000000000000000000000000000000000000000060648201526084016105bc565b3360009081526009602052604081208054859290610869908490611655565b9250508190555080600860008282546108829190611655565b9091555061089290503384610da1565b60405160009033908490849084818181858888f193505050503d80600081146108d7576040519150601f19603f3d011682016040523d82523d6000602084013e6108dc565b606091505b5050905080610947576040517f08c379a000000000000000000000000000000000000000000000000000000000815260206004820152600f60248201527f7472616e73666572206661696c6564000000000000000000000000000000000060448201526064016105bc565b505061070a6001600755565b600061095d610d0b565b3060008181526002602052604090205461097b919081908590610dfd565b5060015b919050565b61098c610d0b565b6109966000610e92565b565b600154339073ffffffffffffffffffffffffffffffffffffffff168114610a03576040517f118cdaa700000000000000000000000000000000000000000000000000000000815273ffffffffffffffffffffffffffffffffffffffff821660048201526024016105bc565b610a0c81610e92565b50565b6060600680546104a3906115a9565b600033610534818585610c04565b600067016345785d8a00006002610a4260045490565b610a4d906001611642565b610a579190611788565b610a61919061162b565b610a7390670de0b6b3a7640000611642565b905090565b610a80610d0b565b6001805473ffffffffffffffffffffffffffffffffffffffff83167fffffffffffffffffffffffff00000000000000000000000000000000000000009091168117909155610ae360005473ffffffffffffffffffffffffffffffffffffffff1690565b73ffffffffffffffffffffffffffffffffffffffff167f38d16b8cac22d99fc7c124b9cd0de2d3fa1faef420bfe791d8c362d765e2270060405160405180910390a350565b6107088383836001610ec3565b73ffffffffffffffffffffffffffffffffffffffff8381166000908152600360209081526040808320938616835292905220547fffffffffffffffffffffffffffffffffffffffffffffffffffffffffffffffff8114610bfe5781811015610bef576040517ffb8f41b200000000000000000000000000000000000000000000000000000000815273ffffffffffffffffffffffffffffffffffffffff8416600482015260248101829052604481018390526064016105bc565b610bfe84848484036000610ec3565b50505050565b73ffffffffffffffffffffffffffffffffffffffff8316610c54576040517f96c6fd1e000000000000000000000000000000000000000000000000000000008152600060048201526024016105bc565b73ffffffffffffffffffffffffffffffffffffffff8216610ca4576040517fec442f05000000000000000000000000000000000000000000000000000000008152600060048201526024016105bc565b61070883838361100b565b73ffffffffffffffffffffffffffffffffffffffff8216610cff576040517fec442f05000000000000000000000000000000000000000000000000000000008152600060048201526024016105bc565b61070a6000838361100b565b60005473ffffffffffffffffffffffffffffffffffffffff163314610996576040517f118cdaa70000000000000000000000000000000000000000000000000000000081523360048201526024016105bc565b600260075403610d9a576040517f3ee5aeb500000000000000000000000000000000000000000000000000000000815260040160405180910390fd5b6002600755565b73ffffffffffffffffffffffffffffffffffffffff8216610df1576040517f96c6fd1e000000000000000000000000000000000000000000000000000000008152600060048201526024016105bc565b61070a8260008361100b565b6040805173ffffffffffffffffffffffffffffffffffffffff85811660248301528416604482015260648082018490528251808303909101815260849091019091526020810180517bffffffffffffffffffffffffffffffffffffffffffffffffffffffff167f23b872dd00000000000000000000000000000000000000000000000000000000179052610bfe9085906111b6565b600180547fffffffffffffffffffffffff0000000000000000000000000000000000000000169055610a0c8161124c565b73ffffffffffffffffffffffffffffffffffffffff8416610f13576040517fe602df05000000000000000000000000000000000000000000000000000000008152600060048201526024016105bc565b73ffffffffffffffffffffffffffffffffffffffff8316610f63576040517f94280d62000000000000000000000000000000000000000000000000000000008152600060048201526024016105bc565b73ffffffffffffffffffffffffffffffffffffffff80851660009081526003602090815260408083209387168352929052208290558015610bfe578273ffffffffffffffffffffffffffffffffffffffff168473ffffffffffffffffffffffffffffffffffffffff167f8c5be1e5ebec7d5bd14f71427d1e84f3dd0314c0f7b2291e5b200ac8c7c3b92584604051610ffd91815260200190565b60405180910390a350505050565b73ffffffffffffffffffffffffffffffffffffffff83166110435780600460008282546110389190611642565b909155506110f59050565b73ffffffffffffffffffffffffffffffffffffffff8316600090815260026020526040902054818110156110c9576040517fe450d38c00000000000000000000000000000000000000000000000000000000815273ffffffffffffffffffffffffffffffffffffffff8516600482015260248101829052604481018390526064016105bc565b73ffffffffffffffffffffffffffffffffffffffff841660009081526002602052604090209082900390555b73ffffffffffffffffffffffffffffffffffffffff821661111e5760048054829003905561114a565b73ffffffffffffffffffffffffffffffffffffffff821660009081526002602052604090208054820190555b8173ffffffffffffffffffffffffffffffffffffffff168373ffffffffffffffffffffffffffffffffffffffff167fddf252ad1be2c89b69c2b068fc378daa952ba7f163c4a11628f55a4df523b3ef836040516111a991815260200190565b60405180910390a3505050565b60006111d873ffffffffffffffffffffffffffffffffffffffff8416836112c1565b905080516000141580156111fd5750808060200190518101906111fb9190611797565b155b15610708576040517f5274afe700000000000000000000000000000000000000000000000000000000815273ffffffffffffffffffffffffffffffffffffffff841660048201526024016105bc565b6000805473ffffffffffffffffffffffffffffffffffffffff8381167fffffffffffffffffffffffff0000000000000000000000000000000000000000831681178455604051919092169283917f8be0079c531659141344cd1fd0a4f28419497f9722a3daafe3b4186f6b6457e09190a35050565b606061055f83836000846000808573ffffffffffffffffffffffffffffffffffffffff1684866040516112f491906117b9565b60006040518083038185875af1925050503d8060008114611331576040519150601f19603f3d011682016040523d82523d6000602084013e611336565b606091505b5091509150611346868383611350565b9695505050505050565b60608261136557611360826113df565b61055f565b8151158015611389575073ffffffffffffffffffffffffffffffffffffffff84163b155b156113d8576040517f9996b31500000000000000000000000000000000000000000000000000000000815273ffffffffffffffffffffffffffffffffffffffff851660048201526024016105bc565b508061055f565b8051156113ef5780518082602001fd5b6040517f1425ea4200000000000000000000000000000000000000000000000000000000815260040160405180910390fd5b60005b8381101561143c578181015183820152602001611424565b50506000910152565b6020815260008251806020840152611464816040850160208701611421565b601f017fffffffffffffffffffffffffffffffffffffffffffffffffffffffffffffffe0169190910160400192915050565b803573ffffffffffffffffffffffffffffffffffffffff8116811461097f57600080fd5b600080604083850312156114cd57600080fd5b6114d683611496565b946020939093013593505050565b6000806000606084860312156114f957600080fd5b61150284611496565b925061151060208501611496565b9150604084013590509250925092565b60006020828403121561153257600080fd5b5035919050565b6000806040838503121561154c57600080fd5b50508035926020909101359150565b60006020828403121561156d57600080fd5b61055f82611496565b6000806040838503121561158957600080fd5b61159283611496565b91506115a060208401611496565b90509250929050565b600181811c908216806115bd57607f821691505b6020821081036115f6577f4e487b7100000000000000000000000000000000000000000000000000000000600052602260045260246000fd5b50919050565b7f4e487b7100000000000000000000000000000000000000000000000000000000600052601160045260246000fd5b808202811582820484141761053a5761053a6115fc565b8082018082111561053a5761053a6115fc565b8181038181111561053a5761053a6115fc565b600181815b808511156116c157817fffffffffffffffffffffffffffffffffffffffffffffffffffffffffffffffff048211156116a7576116a76115fc565b808516156116b457918102915b93841c939080029061166d565b509250929050565b6000826116d85750600161053a565b816116e55750600061053a565b81600181146116fb576002811461170557611721565b600191505061053a565b60ff841115611716576117166115fc565b50506001821b61053a565b5060208310610133831016604e8410600b8410161715611744575081810a61053a565b61174e8383611668565b807fffffffffffffffffffffffffffffffffffffffffffffffffffffffffffffffff04821115611780576117806115fc565b029392505050565b600061055f60ff8416836116c9565b6000602082840312156117a957600080fd5b8151801515811461055f57600080fd5b600082516117cb818460208701611421565b919091019291505056fea2646970667358221220a9578a2ac3119756c1dc3d6ee76e30bd4cb0ade0b23651c7af91fe945c1bda8264736f6c63430008140033",
    "linkReferences": {}
  },
  "methodIdentifiers": {
    "BASE_PRICE()": "f86325ed",
    "PRICE_INCREMENT()": "6d25d802",
    "acceptOwnership()": "79ba5097",
    "allowance(address,address)": "dd62ed3e",
    "approve(address,uint256)": "095ea7b3",
    "balanceOf(address)": "70a08231",
    "buyBack(uint256,uint256)": "47d8167d",
    "buyToken(uint256)": "2d296bf1",
    "calculatePrice()": "d348b409",
    "decimals()": "313ce567",
    "mint(address,uint256)": "40c10f19",
    "name()": "06fdde03",
    "owner()": "8da5cb5b",
    "pendingOwner()": "e30c3978",
    "renounceOwnership()": "715018a6",
    "reserveBalance()": "a10954fe",
    "symbol()": "95d89b41",
    "totalSupply()": "18160ddd",
    "transfer(address,uint256)": "a9059cbb",
    "transferFrom(address,address,uint256)": "23b872dd",
    "transferOwnership(address)": "f2fde38b",
    "withdraw(address)": "51cff8d9"
  },
  "id": 20
}