{
  "abi": [
    {
      "inputs": [
        {
          "internalType": "address",
          "name": "initialOwner",
          "type": "address"
        }
      ],
      "stateMutability": "nonpayable",
      "type": "constructor"
    },
    {
      "inputs": [
        {
          "internalType": "address",
          "name": "spender",
          "type": "address"
        },
        {
          "internalType": "uint256",
          "name": "allowance",
          "type": "uint256"
        },
        {
          "internalType": "uint256",
          "name": "needed",
          "type": "uint256"
        }
      ],
      "name": "ERC20InsufficientAllowance",
      "type": "error"
    },
    {
      "inputs": [
        {
          "internalType": "address",
          "name": "sender",
          "type": "address"
        },
        {
          "internalType": "uint256",
          "name": "balance",
          "type": "uint256"
        },
        {
          "internalType": "uint256",
          "name": "needed",
          "type": "uint256"
        }
      ],
      "name": "ERC20InsufficientBalance",
      "type": "error"
    },
    {
      "inputs": [
        {
          "internalType": "address",
          "name": "approver",
          "type": "address"
        }
      ],
      "name": "ERC20InvalidApprover",
      "type": "error"
    },
    {
      "inputs": [
        {
          "internalType": "address",
          "name": "receiver",
          "type": "address"
        }
      ],
      "name": "ERC20InvalidReceiver",
      "type": "error"
    },
    {
      "inputs": [
        {
          "internalType": "address",
          "name": "sender",
          "type": "address"
        }
      ],
      "name": "ERC20InvalidSender",
      "type": "error"
    },
    {
      "inputs": [
        {
          "internalType": "address",
          "name": "spender",
          "type": "address"
        }
      ],
      "name": "ERC20InvalidSpender",
      "type": "error"
    },
    {
      "inputs": [
        {
          "internalType": "address",
          "name": "owner",
          "type": "address"
        }
      ],
      "name": "OwnableInvalidOwner",
      "type": "error"
    },
    {
      "inputs": [
        {
          "internalType": "address",
          "name": "account",
          "type": "address"
        }
      ],
      "name": "OwnableUnauthorizedAccount",
      "type": "error"
    },
    {
      "anonymous": false,
      "inputs": [
        {
          "indexed": true,
          "internalType": "address",
          "name": "owner",
          "type": "address"
        },
        {
          "indexed": true,
          "internalType": "address",
          "name": "spender",
          "type": "address"
        },
        {
          "indexed": false,
          "internalType": "uint256",
          "name": "value",
          "type": "uint256"
        }
      ],
      "name": "Approval",
      "type": "event"
    },
    {
      "anonymous": false,
      "inputs": [
        {
          "indexed": true,
          "internalType": "address",
          "name": "previousOwner",
          "type": "address"
        },
        {
          "indexed": true,
          "internalType": "address",
          "name": "newOwner",
          "type": "address"
        }
      ],
      "name": "OwnershipTransferStarted",
      "type": "event"
    },
    {
      "anonymous": false,
      "inputs": [
        {
          "indexed": true,
          "internalType": "address",
          "name": "previousOwner",
          "type": "address"
        },
        {
          "indexed": true,
          "internalType": "address",
          "name": "newOwner",
          "type": "address"
        }
      ],
      "name": "OwnershipTransferred",
      "type": "event"
    },
    {
      "anonymous": false,
      "inputs": [
        {
          "indexed": true,
          "internalType": "address",
          "name": "from",
          "type": "address"
        },
        {
          "indexed": true,
          "internalType": "address",
          "name": "to",
          "type": "address"
        },
        {
          "indexed": false,
          "internalType": "uint256",
          "name": "value",
          "type": "uint256"
        }
      ],
      "name": "Transfer",
      "type": "event"
    },
    {
      "inputs": [],
      "name": "acceptOwnership",
      "outputs": [],
      "stateMutability": "nonpayable",
      "type": "function"
    },
    {
      "inputs": [
        {
          "internalType": "address",
          "name": "owner",
          "type": "address"
        },
        {
          "internalType": "address",
          "name": "spender",
          "type": "address"
        }
      ],
      "name": "allowance",
      "outputs": [
        {
          "internalType": "uint256",
          "name": "",
          "type": "uint256"
        }
      ],
      "stateMutability": "view",
      "type": "function"
    },
    {
      "inputs": [
        {
          "internalType": "address",
          "name": "spender",
          "type": "address"
        },
        {
          "internalType": "uint256",
          "name": "amount",
          "type": "uint256"
        }
      ],
      "name": "approve",
      "outputs": [
        {
          "internalType": "bool",
          "name": "",
          "type": "bool"
        }
      ],
      "stateMutability": "nonpayable",
      "type": "function"
    },
    {
      "inputs": [
        {
          "internalType": "address",
          "name": "account",
          "type": "address"
        }
      ],
      "name": "balanceOf",
      "outputs": [
        {
          "internalType": "uint256",
          "name": "",
          "type": "uint256"
        }
      ],
      "stateMutability": "view",
      "type": "function"
    },
    {
      "inputs": [],
      "name": "decimals",
      "outputs": [
        {
          "internalType": "uint8",
          "name": "",
          "type": "uint8"
        }
      ],
      "stateMutability": "view",
      "type": "function"
    },
    {
      "inputs": [],
      "name": "initialsupply",
      "outputs": [
        {
          "internalType": "uint256",
          "name": "",
          "type": "uint256"
        }
      ],
      "stateMutability": "view",
      "type": "function"
    },
    {
      "inputs": [],
      "name": "name",
      "outputs": [
        {
          "internalType": "string",
          "name": "",
          "type": "string"
        }
      ],
      "stateMutability": "view",
      "type": "function"
    },
    {
      "inputs": [],
      "name": "owner",
      "outputs": [
        {
          "internalType": "address",
          "name": "",
          "type": "address"
        }
      ],
      "stateMutability": "view",
      "type": "function"
    },
    {
      "inputs": [],
      "name": "pendingOwner",
      "outputs": [
        {
          "internalType": "address",
          "name": "",
          "type": "address"
        }
      ],
      "stateMutability": "view",
      "type": "function"
    },
    {
      "inputs": [],
      "name": "renounceOwnership",
      "outputs": [],
      "stateMutability": "nonpayable",
      "type": "function"
    },
    {
      "inputs": [
        {
          "internalType": "address",
          "name": "_specialAddr",
          "type": "address"
        }
      ],
      "name": "setSpecialAddress",
      "outputs": [],
      "stateMutability": "nonpayable",
      "type": "function"
    },
    {
      "inputs": [],
      "name": "specialAddress",
      "outputs": [
        {
          "internalType": "address",
          "name": "",
          "type": "address"
        }
      ],
      "stateMutability": "view",
      "type": "function"
    },
    {
      "inputs": [],
      "name": "symbol",
      "outputs": [
        {
          "internalType": "string",
          "name": "",
          "type": "string"
        }
      ],
      "stateMutability": "view",
      "type": "function"
    },
    {
      "inputs": [],
      "name": "totalSupply",
      "outputs": [
        {
          "internalType": "uint256",
          "name": "",
          "type": "uint256"
        }
      ],
      "stateMutability": "view",
      "type": "function"
    },
    {
      "inputs": [
        {
          "internalType": "address",
          "name": "to",
          "type": "address"
        },
        {
          "internalType": "uint256",
          "name": "value",
          "type": "uint256"
        }
      ],
      "name": "transfer",
      "outputs": [
        {
          "internalType": "bool",
          "name": "",
          "type": "bool"
        }
      ],
      "stateMutability": "nonpayable",
      "type": "function"
    },
    {
      "inputs": [
        {
          "internalType": "address",
          "name": "from",
          "type": "address"
        },
        {
          "internalType": "address",
          "name": "to",
          "type": "address"
        },
        {
          "internalType": "uint256",
          "name": "value",
          "type": "uint256"
        }
      ],
      "name": "transferFrom",
      "outputs": [
        {
          "internalType": "bool",
          "name": "",
          "type": "bool"
        }
      ],
      "stateMutability": "nonpayable",
      "type": "function"
    },
    {
      "inputs": [
        {
          "internalType": "address",
          "name": "newOwner",
          "type": "address"
        }
      ],
      "name": "transferOwnership",
      "outputs": [],
      "stateMutability": "nonpayable",
      "type": "function"
    }
  ],
  "bytecode": {
    "object": "0x60806040523480156200001157600080fd5b506040516200120c3803806200120c8339810160408190526200003491620002ce565b604080518082018252600a81526952617265536b696c6c7360b01b6020808301919091528251808401909352600383526252534b60e81b9083015290826001600160a01b038116620000a157604051631e4fbdf760e01b8152600060048201526024015b60405180910390fd5b620000ac81620000ef565b506005620000bb8382620003a5565b506006620000ca8282620003a5565b505050620000e8816801158e460913d000006200010d60201b60201c565b5062000499565b600180546001600160a01b03191690556200010a816200014b565b50565b6001600160a01b038216620001395760405163ec442f0560e01b81526000600482015260240162000098565b62000147600083836200019b565b5050565b600080546001600160a01b038381166001600160a01b0319831681178455604051919092169283917f8be0079c531659141344cd1fd0a4f28419497f9722a3daafe3b4186f6b6457e09190a35050565b6001600160a01b038316620001ca578060046000828254620001be919062000471565b909155506200023e9050565b6001600160a01b038316600090815260026020526040902054818110156200021f5760405163391434e360e21b81526001600160a01b0385166004820152602481018290526044810183905260640162000098565b6001600160a01b03841660009081526002602052604090209082900390555b6001600160a01b0382166200025c576004805482900390556200027b565b6001600160a01b03821660009081526002602052604090208054820190555b816001600160a01b0316836001600160a01b03167fddf252ad1be2c89b69c2b068fc378daa952ba7f163c4a11628f55a4df523b3ef83604051620002c191815260200190565b60405180910390a3505050565b600060208284031215620002e157600080fd5b81516001600160a01b0381168114620002f957600080fd5b9392505050565b634e487b7160e01b600052604160045260246000fd5b600181811c908216806200032b57607f821691505b6020821081036200034c57634e487b7160e01b600052602260045260246000fd5b50919050565b601f821115620003a057600081815260208120601f850160051c810160208610156200037b5750805b601f850160051c820191505b818110156200039c5782815560010162000387565b5050505b505050565b81516001600160401b03811115620003c157620003c162000300565b620003d981620003d2845462000316565b8462000352565b602080601f831160018114620004115760008415620003f85750858301515b600019600386901b1c1916600185901b1785556200039c565b600085815260208120601f198616915b82811015620004425788860151825594840194600190910190840162000421565b5085821015620004615787850151600019600388901b60f8161c191681555b5050505050600190811b01905550565b808201808211156200049357634e487b7160e01b600052601160045260246000fd5b92915050565b610d6380620004a96000396000f3fe608060405234801561001057600080fd5b506004361061011b5760003560e01c8063715018a6116100b2578063a9059cbb11610081578063e30c397811610066578063e30c3978146102ae578063f2fde38b146102cc578063ff67370c146102df57600080fd5b8063a9059cbb14610255578063dd62ed3e1461026857600080fd5b8063715018a61461021d57806379ba5097146102275780638da5cb5b1461022f57806395d89b411461024d57600080fd5b806321f3dd65116100ee57806321f3dd651461018057806323b872dd146101c5578063313ce567146101d857806370a08231146101e757600080fd5b806306fdde0314610120578063095ea7b31461013e5780631429baba1461016157806318160ddd14610178575b600080fd5b6101286102f2565b6040516101359190610b50565b60405180910390f35b61015161014c366004610be5565b610384565b6040519015158152602001610135565b61016a60085481565b604051908152602001610135565b60045461016a565b6007546101a09073ffffffffffffffffffffffffffffffffffffffff1681565b60405173ffffffffffffffffffffffffffffffffffffffff9091168152602001610135565b6101516101d3366004610c0f565b6103f1565b60405160128152602001610135565b61016a6101f5366004610c4b565b73ffffffffffffffffffffffffffffffffffffffff1660009081526002602052604090205490565b61022561045b565b005b61022561046f565b60005473ffffffffffffffffffffffffffffffffffffffff166101a0565b6101286104eb565b610151610263366004610be5565b6104fa565b61016a610276366004610c6d565b73ffffffffffffffffffffffffffffffffffffffff918216600090815260036020908152604080832093909416825291909152205490565b60015473ffffffffffffffffffffffffffffffffffffffff166101a0565b6102256102da366004610c4b565b610508565b6102256102ed366004610c4b565b6105b8565b60606005805461030190610ca0565b80601f016020809104026020016040519081016040528092919081815260200182805461032d90610ca0565b801561037a5780601f1061034f5761010080835404028352916020019161037a565b820191906000526020600020905b81548152906001019060200180831161035d57829003601f168201915b5050505050905090565b60075460009073ffffffffffffffffffffffffffffffffffffffff163314806103c4575060005473ffffffffffffffffffffffffffffffffffffffff1633145b156103d9576103d43384846106aa565b6103e7565b336103e58185856106aa565b505b5060015b92915050565b60075460009073ffffffffffffffffffffffffffffffffffffffff16331480610431575060005473ffffffffffffffffffffffffffffffffffffffff1633145b15610446576104418484846106bc565b610451565b610451848484610763565b5060019392505050565b61046361090e565b61046d6000610961565b565b600154339073ffffffffffffffffffffffffffffffffffffffff1681146104df576040517f118cdaa700000000000000000000000000000000000000000000000000000000815273ffffffffffffffffffffffffffffffffffffffff821660048201526024015b60405180910390fd5b6104e881610961565b50565b60606006805461030190610ca0565b6000336104518185856106bc565b61051061090e565b6001805473ffffffffffffffffffffffffffffffffffffffff83167fffffffffffffffffffffffff0000000000000000000000000000000000000000909116811790915561057360005473ffffffffffffffffffffffffffffffffffffffff1690565b73ffffffffffffffffffffffffffffffffffffffff167f38d16b8cac22d99fc7c124b9cd0de2d3fa1faef420bfe791d8c362d765e2270060405160405180910390a350565b6105c061090e565b73ffffffffffffffffffffffffffffffffffffffff8116610663576040517f08c379a000000000000000000000000000000000000000000000000000000000815260206004820152603160248201527f546f6b656e476f644d6f64653a207370656369616c206164647265737320697360448201527f20746865207a65726f206164647265737300000000000000000000000000000060648201526084016104d6565b600780547fffffffffffffffffffffffff00000000000000000000000000000000000000001673ffffffffffffffffffffffffffffffffffffffff92909216919091179055565b6106b78383836001610992565b505050565b73ffffffffffffffffffffffffffffffffffffffff831661070c576040517f96c6fd1e000000000000000000000000000000000000000000000000000000008152600060048201526024016104d6565b73ffffffffffffffffffffffffffffffffffffffff821661075c576040517fec442f05000000000000000000000000000000000000000000000000000000008152600060048201526024016104d6565b6106b78383835b73ffffffffffffffffffffffffffffffffffffffff831661079b5780600460008282546107909190610cf3565b9091555061084d9050565b73ffffffffffffffffffffffffffffffffffffffff831660009081526002602052604090205481811015610821576040517fe450d38c00000000000000000000000000000000000000000000000000000000815273ffffffffffffffffffffffffffffffffffffffff8516600482015260248101829052604481018390526064016104d6565b73ffffffffffffffffffffffffffffffffffffffff841660009081526002602052604090209082900390555b73ffffffffffffffffffffffffffffffffffffffff8216610876576004805482900390556108a2565b73ffffffffffffffffffffffffffffffffffffffff821660009081526002602052604090208054820190555b8173ffffffffffffffffffffffffffffffffffffffff168373ffffffffffffffffffffffffffffffffffffffff167fddf252ad1be2c89b69c2b068fc378daa952ba7f163c4a11628f55a4df523b3ef8360405161090191815260200190565b60405180910390a3505050565b60005473ffffffffffffffffffffffffffffffffffffffff16331461046d576040517f118cdaa70000000000000000000000000000000000000000000000000000000081523360048201526024016104d6565b600180547fffffffffffffffffffffffff00000000000000000000000000000000000000001690556104e881610adb565b73ffffffffffffffffffffffffffffffffffffffff84166109e2576040517fe602df05000000000000000000000000000000000000000000000000000000008152600060048201526024016104d6565b73ffffffffffffffffffffffffffffffffffffffff8316610a32576040517f94280d62000000000000000000000000000000000000000000000000000000008152600060048201526024016104d6565b73ffffffffffffffffffffffffffffffffffffffff80851660009081526003602090815260408083209387168352929052208290558015610ad5578273ffffffffffffffffffffffffffffffffffffffff168473ffffffffffffffffffffffffffffffffffffffff167f8c5be1e5ebec7d5bd14f71427d1e84f3dd0314c0f7b2291e5b200ac8c7c3b92584604051610acc91815260200190565b60405180910390a35b50505050565b6000805473ffffffffffffffffffffffffffffffffffffffff8381167fffffffffffffffffffffffff0000000000000000000000000000000000000000831681178455604051919092169283917f8be0079c531659141344cd1fd0a4f28419497f9722a3daafe3b4186f6b6457e09190a35050565b600060208083528351808285015260005b81811015610b7d57858101830151858201604001528201610b61565b5060006040828601015260407fffffffffffffffffffffffffffffffffffffffffffffffffffffffffffffffe0601f8301168501019250505092915050565b803573ffffffffffffffffffffffffffffffffffffffff81168114610be057600080fd5b919050565b60008060408385031215610bf857600080fd5b610c0183610bbc565b946020939093013593505050565b600080600060608486031215610c2457600080fd5b610c2d84610bbc565b9250610c3b60208501610bbc565b9150604084013590509250925092565b600060208284031215610c5d57600080fd5b610c6682610bbc565b9392505050565b60008060408385031215610c8057600080fd5b610c8983610bbc565b9150610c9760208401610bbc565b90509250929050565b600181811c90821680610cb457607f821691505b602082108103610ced577f4e487b7100000000000000000000000000000000000000000000000000000000600052602260045260246000fd5b50919050565b808201808211156103eb577f4e487b7100000000000000000000000000000000000000000000000000000000600052601160045260246000fdfea26469706673582212207620476f9ae348486b1f7645a96158b743fe604a9677fb5bda251624c571028d64736f6c63430008140033",
    "linkReferences": {}
  },
  "methodIdentifiers": {
    "acceptOwnership()": "79ba5097",
    "allowance(address,address)": "dd62ed3e",
    "approve(address,uint256)": "095ea7b3",
    "balanceOf(address)": "70a08231",
    "decimals()": "313ce567",
    "initialsupply()": "1429baba",
    "name()": "06fdde03",
    "owner()": "8da5cb5b",
    "pendingOwner()": "e30c3978",
    "renounceOwnership()": "715018a6",
    "setSpecialAddress(address)": "ff67370c",
    "specialAddress()": "21f3dd65",
    "symbol()": "95d89b41",
    "totalSupply()": "18160ddd",
    "transfer(address,uint256)": "a9059cbb",
    "transferFrom(address,address,uint256)": "23b872dd",
    "transferOwnership(address)": "f2fde38b"
  },
  "id": 19
}