{
  "abi": [
    {
      "inputs": [
        {
          "internalType": "address",
          "name": "owner",
          "type": "address"
        },
        {
          "internalType": "bytes32",
          "name": "_merkleRoot",
          "type": "bytes32"
        },
        {
          "internalType": "address",
          "name": "_artist",
          "type": "address"
        }
      ],
      "stateMutability": "nonpayable",
      "type": "constructor"
    },
    {
      "inputs": [
        {
          "internalType": "uint256",
          "name": "numerator",
          "type": "uint256"
        },
        {
          "internalType": "uint256",
          "name": "denominator",
          "type": "uint256"
        }
      ],
      "name": "ERC2981InvalidDefaultRoyalty",
      "type": "error"
    },
    {
      "inputs": [
        {
          "internalType": "address",
          "name": "receiver",
          "type": "address"
        }
      ],
      "name": "ERC2981InvalidDefaultRoyaltyReceiver",
      "type": "error"
    },
    {
      "inputs": [
        {
          "internalType": "uint256",
          "name": "tokenId",
          "type": "uint256"
        },
        {
          "internalType": "uint256",
          "name": "numerator",
          "type": "uint256"
        },
        {
          "internalType": "uint256",
          "name": "denominator",
          "type": "uint256"
        }
      ],
      "name": "ERC2981InvalidTokenRoyalty",
      "type": "error"
    },
    {
      "inputs": [
        {
          "internalType": "uint256",
          "name": "tokenId",
          "type": "uint256"
        },
        {
          "internalType": "address",
          "name": "receiver",
          "type": "address"
        }
      ],
      "name": "ERC2981InvalidTokenRoyaltyReceiver",
      "type": "error"
    },
    {
      "inputs": [
        {
          "internalType": "address",
          "name": "sender",
          "type": "address"
        },
        {
          "internalType": "uint256",
          "name": "tokenId",
          "type": "uint256"
        },
        {
          "internalType": "address",
          "name": "owner",
          "type": "address"
        }
      ],
      "name": "ERC721IncorrectOwner",
      "type": "error"
    },
    {
      "inputs": [
        {
          "internalType": "address",
          "name": "operator",
          "type": "address"
        },
        {
          "internalType": "uint256",
          "name": "tokenId",
          "type": "uint256"
        }
      ],
      "name": "ERC721InsufficientApproval",
      "type": "error"
    },
    {
      "inputs": [
        {
          "internalType": "address",
          "name": "approver",
          "type": "address"
        }
      ],
      "name": "ERC721InvalidApprover",
      "type": "error"
    },
    {
      "inputs": [
        {
          "internalType": "address",
          "name": "operator",
          "type": "address"
        }
      ],
      "name": "ERC721InvalidOperator",
      "type": "error"
    },
    {
      "inputs": [
        {
          "internalType": "address",
          "name": "owner",
          "type": "address"
        }
      ],
      "name": "ERC721InvalidOwner",
      "type": "error"
    },
    {
      "inputs": [
        {
          "internalType": "address",
          "name": "receiver",
          "type": "address"
        }
      ],
      "name": "ERC721InvalidReceiver",
      "type": "error"
    },
    {
      "inputs": [
        {
          "internalType": "address",
          "name": "sender",
          "type": "address"
        }
      ],
      "name": "ERC721InvalidSender",
      "type": "error"
    },
    {
      "inputs": [
        {
          "internalType": "uint256",
          "name": "tokenId",
          "type": "uint256"
        }
      ],
      "name": "ERC721NonexistentToken",
      "type": "error"
    },
    {
      "inputs": [
        {
          "internalType": "address",
          "name": "owner",
          "type": "address"
        }
      ],
      "name": "OwnableInvalidOwner",
      "type": "error"
    },
    {
      "inputs": [
        {
          "internalType": "address",
          "name": "account",
          "type": "address"
        }
      ],
      "name": "OwnableUnauthorizedAccount",
      "type": "error"
    },
    {
      "anonymous": false,
      "inputs": [
        {
          "indexed": true,
          "internalType": "address",
          "name": "owner",
          "type": "address"
        },
        {
          "indexed": true,
          "internalType": "address",
          "name": "approved",
          "type": "address"
        },
        {
          "indexed": true,
          "internalType": "uint256",
          "name": "tokenId",
          "type": "uint256"
        }
      ],
      "name": "Approval",
      "type": "event"
    },
    {
      "anonymous": false,
      "inputs": [
        {
          "indexed": true,
          "internalType": "address",
          "name": "owner",
          "type": "address"
        },
        {
          "indexed": true,
          "internalType": "address",
          "name": "operator",
          "type": "address"
        },
        {
          "indexed": false,
          "internalType": "bool",
          "name": "approved",
          "type": "bool"
        }
      ],
      "name": "ApprovalForAll",
      "type": "event"
    },
    {
      "anonymous": false,
      "inputs": [
        {
          "indexed": true,
          "internalType": "address",
          "name": "previousOwner",
          "type": "address"
        },
        {
          "indexed": true,
          "internalType": "address",
          "name": "newOwner",
          "type": "address"
        }
      ],
      "name": "OwnershipTransferStarted",
      "type": "event"
    },
    {
      "anonymous": false,
      "inputs": [
        {
          "indexed": true,
          "internalType": "address",
          "name": "previousOwner",
          "type": "address"
        },
        {
          "indexed": true,
          "internalType": "address",
          "name": "newOwner",
          "type": "address"
        }
      ],
      "name": "OwnershipTransferred",
      "type": "event"
    },
    {
      "anonymous": false,
      "inputs": [
        {
          "indexed": true,
          "internalType": "address",
          "name": "from",
          "type": "address"
        },
        {
          "indexed": true,
          "internalType": "address",
          "name": "to",
          "type": "address"
        },
        {
          "indexed": true,
          "internalType": "uint256",
          "name": "tokenId",
          "type": "uint256"
        }
      ],
      "name": "Transfer",
      "type": "event"
    },
    {
      "inputs": [],
      "name": "DISCOUNT_PRICE",
      "outputs": [
        {
          "internalType": "uint256",
          "name": "",
          "type": "uint256"
        }
      ],
      "stateMutability": "view",
      "type": "function"
    },
    {
      "inputs": [],
      "name": "MAX_SUPPLY",
      "outputs": [
        {
          "internalType": "uint256",
          "name": "",
          "type": "uint256"
        }
      ],
      "stateMutability": "view",
      "type": "function"
    },
    {
      "inputs": [],
      "name": "PRICE",
      "outputs": [
        {
          "internalType": "uint256",
          "name": "",
          "type": "uint256"
        }
      ],
      "stateMutability": "view",
      "type": "function"
    },
    {
      "inputs": [
        {
          "internalType": "address",
          "name": "sender",
          "type": "address"
        },
        {
          "internalType": "bytes32[]",
          "name": "merkleProof",
          "type": "bytes32[]"
        },
        {
          "internalType": "uint256",
          "name": "index",
          "type": "uint256"
        }
      ],
      "name": "_verifyEligible",
      "outputs": [],
      "stateMutability": "nonpayable",
      "type": "function"
    },
    {
      "inputs": [],
      "name": "acceptOwnership",
      "outputs": [],
      "stateMutability": "nonpayable",
      "type": "function"
    },
    {
      "inputs": [
        {
          "internalType": "address",
          "name": "to",
          "type": "address"
        },
        {
          "internalType": "uint256",
          "name": "tokenId",
          "type": "uint256"
        }
      ],
      "name": "approve",
      "outputs": [],
      "stateMutability": "nonpayable",
      "type": "function"
    },
    {
      "inputs": [
        {
          "internalType": "address",
          "name": "owner",
          "type": "address"
        }
      ],
      "name": "balanceOf",
      "outputs": [
        {
          "internalType": "uint256",
          "name": "",
          "type": "uint256"
        }
      ],
      "stateMutability": "view",
      "type": "function"
    },
    {
      "inputs": [
        {
          "internalType": "uint256",
          "name": "tokenId",
          "type": "uint256"
        }
      ],
      "name": "getApproved",
      "outputs": [
        {
          "internalType": "address",
          "name": "",
          "type": "address"
        }
      ],
      "stateMutability": "view",
      "type": "function"
    },
    {
      "inputs": [
        {
          "internalType": "address",
          "name": "owner",
          "type": "address"
        },
        {
          "internalType": "address",
          "name": "operator",
          "type": "address"
        }
      ],
      "name": "isApprovedForAll",
      "outputs": [
        {
          "internalType": "bool",
          "name": "",
          "type": "bool"
        }
      ],
      "stateMutability": "view",
      "type": "function"
    },
    {
      "inputs": [],
      "name": "merkleRoot",
      "outputs": [
        {
          "internalType": "bytes32",
          "name": "",
          "type": "bytes32"
        }
      ],
      "stateMutability": "view",
      "type": "function"
    },
    {
      "inputs": [],
      "name": "mint",
      "outputs": [],
      "stateMutability": "payable",
      "type": "function"
    },
    {
      "inputs": [
        {
          "internalType": "address",
          "name": "sender",
          "type": "address"
        },
        {
          "internalType": "bytes32[]",
          "name": "proof",
          "type": "bytes32[]"
        },
        {
          "internalType": "uint256",
          "name": "index",
          "type": "uint256"
        }
      ],
      "name": "mintDiscount",
      "outputs": [],
      "stateMutability": "payable",
      "type": "function"
    },
    {
      "inputs": [],
      "name": "name",
      "outputs": [
        {
          "internalType": "string",
          "name": "",
          "type": "string"
        }
      ],
      "stateMutability": "view",
      "type": "function"
    },
    {
      "inputs": [],
      "name": "owner",
      "outputs": [
        {
          "internalType": "address",
          "name": "",
          "type": "address"
        }
      ],
      "stateMutability": "view",
      "type": "function"
    },
    {
      "inputs": [
        {
          "internalType": "uint256",
          "name": "tokenId",
          "type": "uint256"
        }
      ],
      "name": "ownerOf",
      "outputs": [
        {
          "internalType": "address",
          "name": "",
          "type": "address"
        }
      ],
      "stateMutability": "view",
      "type": "function"
    },
    {
      "inputs": [
        {
          "internalType": "uint256",
          "name": "",
          "type": "uint256"
        }
      ],
      "name": "owners",
      "outputs": [
        {
          "internalType": "address",
          "name": "",
          "type": "address"
        }
      ],
      "stateMutability": "view",
      "type": "function"
    },
    {
      "inputs": [],
      "name": "pendingOwner",
      "outputs": [
        {
          "internalType": "address",
          "name": "",
          "type": "address"
        }
      ],
      "stateMutability": "view",
      "type": "function"
    },
    {
      "inputs": [],
      "name": "renounceOwnership",
      "outputs": [],
      "stateMutability": "nonpayable",
      "type": "function"
    },
    {
      "inputs": [
        {
          "internalType": "uint256",
          "name": "tokenId",
          "type": "uint256"
        },
        {
          "internalType": "uint256",
          "name": "salePrice",
          "type": "uint256"
        }
      ],
      "name": "royaltyInfo",
      "outputs": [
        {
          "internalType": "address",
          "name": "",
          "type": "address"
        },
        {
          "internalType": "uint256",
          "name": "",
          "type": "uint256"
        }
      ],
      "stateMutability": "view",
      "type": "function"
    },
    {
      "inputs": [
        {
          "internalType": "address",
          "name": "from",
          "type": "address"
        },
        {
          "internalType": "address",
          "name": "to",
          "type": "address"
        },
        {
          "internalType": "uint256",
          "name": "tokenId",
          "type": "uint256"
        }
      ],
      "name": "safeTransferFrom",
      "outputs": [],
      "stateMutability": "nonpayable",
      "type": "function"
    },
    {
      "inputs": [
        {
          "internalType": "address",
          "name": "from",
          "type": "address"
        },
        {
          "internalType": "address",
          "name": "to",
          "type": "address"
        },
        {
          "internalType": "uint256",
          "name": "tokenId",
          "type": "uint256"
        },
        {
          "internalType": "bytes",
          "name": "data",
          "type": "bytes"
        }
      ],
      "name": "safeTransferFrom",
      "outputs": [],
      "stateMutability": "nonpayable",
      "type": "function"
    },
    {
      "inputs": [
        {
          "internalType": "address",
          "name": "operator",
          "type": "address"
        },
        {
          "internalType": "bool",
          "name": "approved",
          "type": "bool"
        }
      ],
      "name": "setApprovalForAll",
      "outputs": [],
      "stateMutability": "nonpayable",
      "type": "function"
    },
    {
      "inputs": [
        {
          "internalType": "bytes4",
          "name": "interfaceId",
          "type": "bytes4"
        }
      ],
      "name": "supportsInterface",
      "outputs": [
        {
          "internalType": "bool",
          "name": "",
          "type": "bool"
        }
      ],
      "stateMutability": "view",
      "type": "function"
    },
    {
      "inputs": [],
      "name": "symbol",
      "outputs": [
        {
          "internalType": "string",
          "name": "",
          "type": "string"
        }
      ],
      "stateMutability": "view",
      "type": "function"
    },
    {
      "inputs": [],
      "name": "tokenSupply",
      "outputs": [
        {
          "internalType": "uint256",
          "name": "",
          "type": "uint256"
        }
      ],
      "stateMutability": "view",
      "type": "function"
    },
    {
      "inputs": [
        {
          "internalType": "uint256",
          "name": "tokenId",
          "type": "uint256"
        }
      ],
      "name": "tokenURI",
      "outputs": [
        {
          "internalType": "string",
          "name": "",
          "type": "string"
        }
      ],
      "stateMutability": "view",
      "type": "function"
    },
    {
      "inputs": [
        {
          "internalType": "address",
          "name": "from",
          "type": "address"
        },
        {
          "internalType": "address",
          "name": "to",
          "type": "address"
        },
        {
          "internalType": "uint256",
          "name": "tokenId",
          "type": "uint256"
        }
      ],
      "name": "transferFrom",
      "outputs": [],
      "stateMutability": "nonpayable",
      "type": "function"
    },
    {
      "inputs": [
        {
          "internalType": "address",
          "name": "stakingContract",
          "type": "address"
        }
      ],
      "name": "transferNFT",
      "outputs": [],
      "stateMutability": "nonpayable",
      "type": "function"
    },
    {
      "inputs": [
        {
          "internalType": "address",
          "name": "newOwner",
          "type": "address"
        }
      ],
      "name": "transferOwnership",
      "outputs": [],
      "stateMutability": "nonpayable",
      "type": "function"
    },
    {
      "inputs": [],
      "name": "withdraw",
      "outputs": [],
      "stateMutability": "nonpayable",
      "type": "function"
    }
  ],
  "bytecode": {
    "object": "0x60a06040526000600b553480156200001657600080fd5b506040516200296538038062002965833981016040819052620000399162000227565b826040518060400160405280600a81526020016913919514dc1958da585b60b21b815250604051806040016040528060038152602001624e465360e81b81525081600090816200008a91906200030d565b5060016200009982826200030d565b5050506001600160a01b038116620000cc57604051631e4fbdf760e01b8152600060048201526024015b60405180910390fd5b620000d781620000f3565b506080829052620000ea8160fa62000111565b505050620003d9565b600980546001600160a01b03191690556200010e81620001b8565b50565b6127106001600160601b0382168110156200015257604051636f483d0960e01b81526001600160601b038316600482015260248101829052604401620000c3565b6001600160a01b0383166200017e57604051635b6cc80560e11b815260006004820152602401620000c3565b50604080518082019091526001600160a01b039092168083526001600160601b039091166020909201829052600160a01b90910217600655565b600880546001600160a01b038381166001600160a01b0319831681179093556040519116919082907f8be0079c531659141344cd1fd0a4f28419497f9722a3daafe3b4186f6b6457e090600090a35050565b80516001600160a01b03811681146200022257600080fd5b919050565b6000806000606084860312156200023d57600080fd5b62000248846200020a565b9250602084015191506200025f604085016200020a565b90509250925092565b634e487b7160e01b600052604160045260246000fd5b600181811c908216806200029357607f821691505b602082108103620002b457634e487b7160e01b600052602260045260246000fd5b50919050565b601f8211156200030857600081815260208120601f850160051c81016020861015620002e35750805b601f850160051c820191505b818110156200030457828155600101620002ef565b5050505b505050565b81516001600160401b0381111562000329576200032962000268565b62000341816200033a84546200027e565b84620002ba565b602080601f831160018114620003795760008415620003605750858301515b600019600386901b1c1916600185901b17855562000304565b600085815260208120601f198616915b82811015620003aa5788860151825594840194600190910190840162000389565b5085821015620003c95787850151600019600388901b60f8161c191681555b5050505050600190811b01905550565b608051612569620003fc600039600081816103830152610be801526125696000f3fe6080604052600436106101cd5760003560e01c80636352211e116100f757806395d89b4111610095578063e30c397811610064578063e30c39781461056c578063e985e9c514610597578063edcb1216146105ed578063f2fde38b1461060057600080fd5b806395d89b41146104f7578063a22cb4651461050c578063b88d4fde1461052c578063c87b56dd1461054c57600080fd5b80637824407f116100d15780637824407f1461048557806379ba50971461049b5780638d859f3e146104b05780638da5cb5b146104cc57600080fd5b80636352211e1461043057806370a0823114610450578063715018a61461047057600080fd5b806323b872dd1161016f57806336e986ef1161013e57806336e986ef146103bb5780633ccfd60b146103db57806342842e0e146103f05780634cda09901461041057600080fd5b806323b872dd146103055780632a55205a146103255780632eb4a7ab1461037157806332cb6b0c146103a557600080fd5b806306fdde03116101ab57806306fdde0314610299578063081812fc146102bb578063095ea7b3146102db5780631249c58b146102fd57600080fd5b806301ffc9a7146101d2578063025e7c2714610207578063057707a01461026f575b600080fd5b3480156101de57600080fd5b506101f26101ed366004611f5e565b610620565b60405190151581526020015b60405180910390f35b34801561021357600080fd5b5061024a610222366004611f7b565b600c6020526000908152604090205473ffffffffffffffffffffffffffffffffffffffff1681565b60405173ffffffffffffffffffffffffffffffffffffffff90911681526020016101fe565b34801561027b57600080fd5b5061028b670b1a2bc2ec50000081565b6040519081526020016101fe565b3480156102a557600080fd5b506102ae610640565b6040516101fe9190612002565b3480156102c757600080fd5b5061024a6102d6366004611f7b565b6106d2565b3480156102e757600080fd5b506102fb6102f636600461203e565b610708565b005b6102fb610717565b34801561031157600080fd5b506102fb610320366004612068565b610854565b34801561033157600080fd5b506103456103403660046120a4565b610945565b6040805173ffffffffffffffffffffffffffffffffffffffff90931683526020830191909152016101fe565b34801561037d57600080fd5b5061028b7f000000000000000000000000000000000000000000000000000000000000000081565b3480156103b157600080fd5b5061028b6103e881565b3480156103c757600080fd5b506102fb6103d63660046120c6565b610a3c565b3480156103e757600080fd5b506102fb610b10565b3480156103fc57600080fd5b506102fb61040b366004612068565b610b5e565b34801561041c57600080fd5b506102fb61042b3660046120e1565b610b7e565b34801561043c57600080fd5b5061024a61044b366004611f7b565b610c80565b34801561045c57600080fd5b5061028b61046b3660046120c6565b610c8b565b34801561047c57600080fd5b506102fb610d06565b34801561049157600080fd5b5061028b600b5481565b3480156104a757600080fd5b506102fb610d1a565b3480156104bc57600080fd5b5061028b670de0b6b3a764000081565b3480156104d857600080fd5b5060085473ffffffffffffffffffffffffffffffffffffffff1661024a565b34801561050357600080fd5b506102ae610d8e565b34801561051857600080fd5b506102fb61052736600461216d565b610d9d565b34801561053857600080fd5b506102fb6105473660046121d8565b610da8565b34801561055857600080fd5b506102ae610567366004611f7b565b610dbf565b34801561057857600080fd5b5060095473ffffffffffffffffffffffffffffffffffffffff1661024a565b3480156105a357600080fd5b506101f26105b23660046122d2565b73ffffffffffffffffffffffffffffffffffffffff918216600090815260056020908152604080832093909416825291909152205460ff1690565b6102fb6105fb3660046120e1565b610e34565b34801561060c57600080fd5b506102fb61061b3660046120c6565b610fc9565b600061062b82611079565b8061063a575061063a8261115c565b92915050565b60606000805461064f90612305565b80601f016020809104026020016040519081016040528092919081815260200182805461067b90612305565b80156106c85780601f1061069d576101008083540402835291602001916106c8565b820191906000526020600020905b8154815290600101906020018083116106ab57829003601f168201915b5050505050905090565b60006106dd826111b2565b5060008281526004602052604090205473ffffffffffffffffffffffffffffffffffffffff1661063a565b610713828233611211565b5050565b6103e8600b5410610789576040517f08c379a000000000000000000000000000000000000000000000000000000000815260206004820152601660248201527f4d6178696d756d20737570706c7920726561636865640000000000000000000060448201526064015b60405180910390fd5b670de0b6b3a764000034146107fa576040517f08c379a000000000000000000000000000000000000000000000000000000000815260206004820152600d60248201527f496e76616c6964207072696365000000000000000000000000000000000000006044820152606401610780565b61080633600b5461121e565b600b80546000908152600c6020526040812080547fffffffffffffffffffffffff000000000000000000000000000000000000000016331790558154919061084d83612387565b9190505550565b73ffffffffffffffffffffffffffffffffffffffff82166108a4576040517f64a0ae9200000000000000000000000000000000000000000000000000000000815260006004820152602401610780565b60006108b18383336112cf565b90508373ffffffffffffffffffffffffffffffffffffffff168173ffffffffffffffffffffffffffffffffffffffff161461093f576040517f64283d7b00000000000000000000000000000000000000000000000000000000815273ffffffffffffffffffffffffffffffffffffffff80861660048301526024820184905282166044820152606401610780565b50505050565b600082815260076020908152604080832081518083019092525473ffffffffffffffffffffffffffffffffffffffff8116808352740100000000000000000000000000000000000000009091046bffffffffffffffffffffffff16928201929092528291610a0057506040805180820190915260065473ffffffffffffffffffffffffffffffffffffffff811682527401000000000000000000000000000000000000000090046bffffffffffffffffffffffff1660208201525b602081015160009061271090610a24906bffffffffffffffffffffffff16876123bf565b610a2e91906123d6565b915196919550909350505050565b3373ffffffffffffffffffffffffffffffffffffffff16600c60006001600b54610a669190612411565b815260208101919091526040016000205473ffffffffffffffffffffffffffffffffffffffff1614610af4576040517f08c379a000000000000000000000000000000000000000000000000000000000815260206004820152601760248201527f4f6e6c79206f776e65722063616e207472616e736665720000000000000000006044820152606401610780565b610b0d33826001600b54610b089190612411565b61144c565b50565b610b18611588565b60085460405173ffffffffffffffffffffffffffffffffffffffff909116904780156108fc02916000818181858888f19350505050158015610b0d573d6000803e3d6000fd5b610b7983838360405180602001604052806000815250610da8565b505050565b600084610b8a836115db565b604051602001610b9b929190612424565b604051602081830303815290604052805190602001209050610c138484808060200260200160405190810160405280939291908181526020018383602002808284376000920191909152507f000000000000000000000000000000000000000000000000000000000000000092508591506116999050565b610c79576040517f08c379a000000000000000000000000000000000000000000000000000000000815260206004820152601460248201527f496e76616c6964206d65726b6c652070726f6f660000000000000000000000006044820152606401610780565b5050505050565b600061063a826111b2565b600073ffffffffffffffffffffffffffffffffffffffff8216610cdd576040517f89c62b6400000000000000000000000000000000000000000000000000000000815260006004820152602401610780565b5073ffffffffffffffffffffffffffffffffffffffff1660009081526003602052604090205490565b610d0e611588565b610d1860006116af565b565b600954339073ffffffffffffffffffffffffffffffffffffffff168114610d85576040517f118cdaa700000000000000000000000000000000000000000000000000000000815273ffffffffffffffffffffffffffffffffffffffff82166004820152602401610780565b610b0d816116af565b60606001805461064f90612305565b6107133383836116e0565b610db3848484610854565b61093f848484846117dd565b6060610dca826111b2565b506000610de260408051602081019091526000815290565b90506000815111610e025760405180602001604052806000815250610e2d565b80610e0c846115db565b604051602001610e1d92919061246f565b6040516020818303038152906040525b9392505050565b6103e8600b5410610ea1576040517f08c379a000000000000000000000000000000000000000000000000000000000815260206004820152601660248201527f4d6178696d756d20737570706c792072656163686564000000000000000000006044820152606401610780565b600881901c6000908152600a6020526040902054600160ff83161b1615610f24576040517f08c379a000000000000000000000000000000000000000000000000000000000815260206004820152600e60248201527f416c7265616479206d696e7465640000000000000000000000000000000000006044820152606401610780565b670b1a2bc2ec5000003414610f95576040517f08c379a000000000000000000000000000000000000000000000000000000000815260206004820152600d60248201527f496e76616c6964207072696365000000000000000000000000000000000000006044820152606401610780565b610fa2600a8260016119cd565b610fae33600b5461121e565b600b8054906000610fbe83612387565b919050555050505050565b610fd1611588565b6009805473ffffffffffffffffffffffffffffffffffffffff83167fffffffffffffffffffffffff0000000000000000000000000000000000000000909116811790915561103460085473ffffffffffffffffffffffffffffffffffffffff1690565b73ffffffffffffffffffffffffffffffffffffffff167f38d16b8cac22d99fc7c124b9cd0de2d3fa1faef420bfe791d8c362d765e2270060405160405180910390a350565b60007fffffffff0000000000000000000000000000000000000000000000000000000082167f80ac58cd00000000000000000000000000000000000000000000000000000000148061110c57507fffffffff0000000000000000000000000000000000000000000000000000000082167f5b5e139f00000000000000000000000000000000000000000000000000000000145b8061063a57507f01ffc9a7000000000000000000000000000000000000000000000000000000007fffffffff0000000000000000000000000000000000000000000000000000000083161461063a565b60007fffffffff0000000000000000000000000000000000000000000000000000000082167f2a55205a00000000000000000000000000000000000000000000000000000000148061063a575061063a82611079565b60008181526002602052604081205473ffffffffffffffffffffffffffffffffffffffff168061063a576040517f7e27328900000000000000000000000000000000000000000000000000000000815260048101849052602401610780565b610b798383836001611a1c565b73ffffffffffffffffffffffffffffffffffffffff821661126e576040517f64a0ae9200000000000000000000000000000000000000000000000000000000815260006004820152602401610780565b600061127c838360006112cf565b905073ffffffffffffffffffffffffffffffffffffffff811615610b79576040517f73c6ac6e00000000000000000000000000000000000000000000000000000000815260006004820152602401610780565b60008281526002602052604081205473ffffffffffffffffffffffffffffffffffffffff9081169083161561130957611309818486611be7565b73ffffffffffffffffffffffffffffffffffffffff81161561137f57611333600085600080611a1c565b73ffffffffffffffffffffffffffffffffffffffff8116600090815260036020526040902080547fffffffffffffffffffffffffffffffffffffffffffffffffffffffffffffffff0190555b73ffffffffffffffffffffffffffffffffffffffff8516156113c85773ffffffffffffffffffffffffffffffffffffffff85166000908152600360205260409020805460010190555b60008481526002602052604080822080547fffffffffffffffffffffffff00000000000000000000000000000000000000001673ffffffffffffffffffffffffffffffffffffffff89811691821790925591518793918516917fddf252ad1be2c89b69c2b068fc378daa952ba7f163c4a11628f55a4df523b3ef91a4949350505050565b73ffffffffffffffffffffffffffffffffffffffff821661149c576040517f64a0ae9200000000000000000000000000000000000000000000000000000000815260006004820152602401610780565b60006114aa838360006112cf565b905073ffffffffffffffffffffffffffffffffffffffff81166114fc576040517f7e27328900000000000000000000000000000000000000000000000000000000815260048101839052602401610780565b8373ffffffffffffffffffffffffffffffffffffffff168173ffffffffffffffffffffffffffffffffffffffff161461093f576040517f64283d7b00000000000000000000000000000000000000000000000000000000815273ffffffffffffffffffffffffffffffffffffffff80861660048301526024820184905282166044820152606401610780565b60085473ffffffffffffffffffffffffffffffffffffffff163314610d18576040517f118cdaa7000000000000000000000000000000000000000000000000000000008152336004820152602401610780565b606060006115e883611c97565b600101905060008167ffffffffffffffff811115611608576116086121a9565b6040519080825280601f01601f191660200182016040528015611632576020820181803683370190505b5090508181016020015b7fffffffffffffffffffffffffffffffffffffffffffffffffffffffffffffffff017f3031323334353637383961626364656600000000000000000000000000000000600a86061a8153600a850494508461163c57509392505050565b6000826116a68584611d79565b14949350505050565b600980547fffffffffffffffffffffffff0000000000000000000000000000000000000000169055610b0d81611dc6565b73ffffffffffffffffffffffffffffffffffffffff8216611745576040517f5b08ba1800000000000000000000000000000000000000000000000000000000815273ffffffffffffffffffffffffffffffffffffffff83166004820152602401610780565b73ffffffffffffffffffffffffffffffffffffffff83811660008181526005602090815260408083209487168084529482529182902080547fffffffffffffffffffffffffffffffffffffffffffffffffffffffffffffff001686151590811790915591519182527f17307eab39ab6107e8899845ad3d59bd9653f200f220920489ca2b5937696c31910160405180910390a3505050565b73ffffffffffffffffffffffffffffffffffffffff83163b1561093f576040517f150b7a0200000000000000000000000000000000000000000000000000000000815273ffffffffffffffffffffffffffffffffffffffff84169063150b7a029061185290339088908790879060040161249e565b6020604051808303816000875af19250505080156118ab575060408051601f3d9081017fffffffffffffffffffffffffffffffffffffffffffffffffffffffffffffffe01682019092526118a8918101906124e7565b60015b61193a573d8080156118d9576040519150601f19603f3d011682016040523d82523d6000602084013e6118de565b606091505b508051600003611932576040517f64a0ae9200000000000000000000000000000000000000000000000000000000815273ffffffffffffffffffffffffffffffffffffffff85166004820152602401610780565b805181602001fd5b7fffffffff0000000000000000000000000000000000000000000000000000000081167f150b7a020000000000000000000000000000000000000000000000000000000014610c79576040517f64a0ae9200000000000000000000000000000000000000000000000000000000815273ffffffffffffffffffffffffffffffffffffffff85166004820152602401610780565b80156119f757600882901c60009081526020849052604090208054600160ff85161b179055505050565b600882901c60009081526020849052604090208054600160ff85161b19169055505050565b8080611a3d575073ffffffffffffffffffffffffffffffffffffffff821615155b15611b92576000611a4d846111b2565b905073ffffffffffffffffffffffffffffffffffffffff831615801590611aa057508273ffffffffffffffffffffffffffffffffffffffff168173ffffffffffffffffffffffffffffffffffffffff1614155b8015611adf575073ffffffffffffffffffffffffffffffffffffffff80821660009081526005602090815260408083209387168352929052205460ff16155b15611b2e576040517fa9fbf51f00000000000000000000000000000000000000000000000000000000815273ffffffffffffffffffffffffffffffffffffffff84166004820152602401610780565b8115611b9057838573ffffffffffffffffffffffffffffffffffffffff168273ffffffffffffffffffffffffffffffffffffffff167f8c5be1e5ebec7d5bd14f71427d1e84f3dd0314c0f7b2291e5b200ac8c7c3b92560405160405180910390a45b505b5050600090815260046020526040902080547fffffffffffffffffffffffff00000000000000000000000000000000000000001673ffffffffffffffffffffffffffffffffffffffff92909216919091179055565b611bf2838383611e3d565b610b795773ffffffffffffffffffffffffffffffffffffffff8316611c46576040517f7e27328900000000000000000000000000000000000000000000000000000000815260048101829052602401610780565b6040517f177e802f00000000000000000000000000000000000000000000000000000000815273ffffffffffffffffffffffffffffffffffffffff8316600482015260248101829052604401610780565b6000807a184f03e93ff9f4daa797ed6e38ed64bf6a1f0100000000000000008310611ce0577a184f03e93ff9f4daa797ed6e38ed64bf6a1f010000000000000000830492506040015b6d04ee2d6d415b85acef81000000008310611d0c576d04ee2d6d415b85acef8100000000830492506020015b662386f26fc100008310611d2a57662386f26fc10000830492506010015b6305f5e1008310611d42576305f5e100830492506008015b6127108310611d5657612710830492506004015b60648310611d68576064830492506002015b600a831061063a5760010192915050565b600081815b8451811015611dbe57611daa82868381518110611d9d57611d9d612504565b6020026020010151611f04565b915080611db681612387565b915050611d7e565b509392505050565b6008805473ffffffffffffffffffffffffffffffffffffffff8381167fffffffffffffffffffffffff0000000000000000000000000000000000000000831681179093556040519116919082907f8be0079c531659141344cd1fd0a4f28419497f9722a3daafe3b4186f6b6457e090600090a35050565b600073ffffffffffffffffffffffffffffffffffffffff831615801590611efc57508273ffffffffffffffffffffffffffffffffffffffff168473ffffffffffffffffffffffffffffffffffffffff161480611ecb575073ffffffffffffffffffffffffffffffffffffffff80851660009081526005602090815260408083209387168352929052205460ff165b80611efc575060008281526004602052604090205473ffffffffffffffffffffffffffffffffffffffff8481169116145b949350505050565b6000818310611f20576000828152602084905260409020610e2d565b5060009182526020526040902090565b7fffffffff0000000000000000000000000000000000000000000000000000000081168114610b0d57600080fd5b600060208284031215611f7057600080fd5b8135610e2d81611f30565b600060208284031215611f8d57600080fd5b5035919050565b60005b83811015611faf578181015183820152602001611f97565b50506000910152565b60008151808452611fd0816020860160208601611f94565b601f017fffffffffffffffffffffffffffffffffffffffffffffffffffffffffffffffe0169290920160200192915050565b602081526000610e2d6020830184611fb8565b803573ffffffffffffffffffffffffffffffffffffffff8116811461203957600080fd5b919050565b6000806040838503121561205157600080fd5b61205a83612015565b946020939093013593505050565b60008060006060848603121561207d57600080fd5b61208684612015565b925061209460208501612015565b9150604084013590509250925092565b600080604083850312156120b757600080fd5b50508035926020909101359150565b6000602082840312156120d857600080fd5b610e2d82612015565b600080600080606085870312156120f757600080fd5b61210085612015565b9350602085013567ffffffffffffffff8082111561211d57600080fd5b818701915087601f83011261213157600080fd5b81358181111561214057600080fd5b8860208260051b850101111561215557600080fd5b95986020929092019750949560400135945092505050565b6000806040838503121561218057600080fd5b61218983612015565b91506020830135801515811461219e57600080fd5b809150509250929050565b7f4e487b7100000000000000000000000000000000000000000000000000000000600052604160045260246000fd5b600080600080608085870312156121ee57600080fd5b6121f785612015565b935061220560208601612015565b925060408501359150606085013567ffffffffffffffff8082111561222957600080fd5b818701915087601f83011261223d57600080fd5b81358181111561224f5761224f6121a9565b604051601f82017fffffffffffffffffffffffffffffffffffffffffffffffffffffffffffffffe0908116603f01168101908382118183101715612295576122956121a9565b816040528281528a60208487010111156122ae57600080fd5b82602086016020830137600060208483010152809550505050505092959194509250565b600080604083850312156122e557600080fd5b6122ee83612015565b91506122fc60208401612015565b90509250929050565b600181811c9082168061231957607f821691505b602082108103612352577f4e487b7100000000000000000000000000000000000000000000000000000000600052602260045260246000fd5b50919050565b7f4e487b7100000000000000000000000000000000000000000000000000000000600052601160045260246000fd5b60007fffffffffffffffffffffffffffffffffffffffffffffffffffffffffffffffff82036123b8576123b8612358565b5060010190565b808202811582820484141761063a5761063a612358565b60008261240c577f4e487b7100000000000000000000000000000000000000000000000000000000600052601260045260246000fd5b500490565b8181038181111561063a5761063a612358565b7fffffffffffffffffffffffffffffffffffffffff0000000000000000000000008360601b16815260008251612461816014850160208701611f94565b919091016014019392505050565b60008351612481818460208801611f94565b835190830190612495818360208801611f94565b01949350505050565b600073ffffffffffffffffffffffffffffffffffffffff8087168352808616602084015250836040830152608060608301526124dd6080830184611fb8565b9695505050505050565b6000602082840312156124f957600080fd5b8151610e2d81611f30565b7f4e487b7100000000000000000000000000000000000000000000000000000000600052603260045260246000fdfea26469706673582212205df7800b5885a38e3f191154f3ee8eaed2b9514e90b07a07e4a43b447919fa5a64736f6c63430008150033",
    "linkReferences": {}
  },
  "methodIdentifiers": {
    "DISCOUNT_PRICE()": "057707a0",
    "MAX_SUPPLY()": "32cb6b0c",
    "PRICE()": "8d859f3e",
    "_verifyEligible(address,bytes32[],uint256)": "4cda0990",
    "acceptOwnership()": "79ba5097",
    "approve(address,uint256)": "095ea7b3",
    "balanceOf(address)": "70a08231",
    "getApproved(uint256)": "081812fc",
    "isApprovedForAll(address,address)": "e985e9c5",
    "merkleRoot()": "2eb4a7ab",
    "mint()": "1249c58b",
    "mintDiscount(address,bytes32[],uint256)": "edcb1216",
    "name()": "06fdde03",
    "owner()": "8da5cb5b",
    "ownerOf(uint256)": "6352211e",
    "owners(uint256)": "025e7c27",
    "pendingOwner()": "e30c3978",
    "renounceOwnership()": "715018a6",
    "royaltyInfo(uint256,uint256)": "2a55205a",
    "safeTransferFrom(address,address,uint256)": "42842e0e",
    "safeTransferFrom(address,address,uint256,bytes)": "b88d4fde",
    "setApprovalForAll(address,bool)": "a22cb465",
    "supportsInterface(bytes4)": "01ffc9a7",
    "symbol()": "95d89b41",
    "tokenSupply()": "7824407f",
    "tokenURI(uint256)": "c87b56dd",
    "transferFrom(address,address,uint256)": "23b872dd",
    "transferNFT(address)": "36e986ef",
    "transferOwnership(address)": "f2fde38b",
    "withdraw()": "3ccfd60b"
  },
  "id": 42
}