{
  "abi": [
    {
      "inputs": [],
      "stateMutability": "nonpayable",
      "type": "constructor"
    },
    {
      "inputs": [],
      "name": "ERC721EnumerableForbiddenBatchMint",
      "type": "error"
    },
    {
      "inputs": [
        {
          "internalType": "address",
          "name": "sender",
          "type": "address"
        },
        {
          "internalType": "uint256",
          "name": "tokenId",
          "type": "uint256"
        },
        {
          "internalType": "address",
          "name": "owner",
          "type": "address"
        }
      ],
      "name": "ERC721IncorrectOwner",
      "type": "error"
    },
    {
      "inputs": [
        {
          "internalType": "address",
          "name": "operator",
          "type": "address"
        },
        {
          "internalType": "uint256",
          "name": "tokenId",
          "type": "uint256"
        }
      ],
      "name": "ERC721InsufficientApproval",
      "type": "error"
    },
    {
      "inputs": [
        {
          "internalType": "address",
          "name": "approver",
          "type": "address"
        }
      ],
      "name": "ERC721InvalidApprover",
      "type": "error"
    },
    {
      "inputs": [
        {
          "internalType": "address",
          "name": "operator",
          "type": "address"
        }
      ],
      "name": "ERC721InvalidOperator",
      "type": "error"
    },
    {
      "inputs": [
        {
          "internalType": "address",
          "name": "owner",
          "type": "address"
        }
      ],
      "name": "ERC721InvalidOwner",
      "type": "error"
    },
    {
      "inputs": [
        {
          "internalType": "address",
          "name": "receiver",
          "type": "address"
        }
      ],
      "name": "ERC721InvalidReceiver",
      "type": "error"
    },
    {
      "inputs": [
        {
          "internalType": "address",
          "name": "sender",
          "type": "address"
        }
      ],
      "name": "ERC721InvalidSender",
      "type": "error"
    },
    {
      "inputs": [
        {
          "internalType": "uint256",
          "name": "tokenId",
          "type": "uint256"
        }
      ],
      "name": "ERC721NonexistentToken",
      "type": "error"
    },
    {
      "inputs": [
        {
          "internalType": "address",
          "name": "owner",
          "type": "address"
        },
        {
          "internalType": "uint256",
          "name": "index",
          "type": "uint256"
        }
      ],
      "name": "ERC721OutOfBoundsIndex",
      "type": "error"
    },
    {
      "anonymous": false,
      "inputs": [
        {
          "indexed": true,
          "internalType": "address",
          "name": "owner",
          "type": "address"
        },
        {
          "indexed": true,
          "internalType": "address",
          "name": "approved",
          "type": "address"
        },
        {
          "indexed": true,
          "internalType": "uint256",
          "name": "tokenId",
          "type": "uint256"
        }
      ],
      "name": "Approval",
      "type": "event"
    },
    {
      "anonymous": false,
      "inputs": [
        {
          "indexed": true,
          "internalType": "address",
          "name": "owner",
          "type": "address"
        },
        {
          "indexed": true,
          "internalType": "address",
          "name": "operator",
          "type": "address"
        },
        {
          "indexed": false,
          "internalType": "bool",
          "name": "approved",
          "type": "bool"
        }
      ],
      "name": "ApprovalForAll",
      "type": "event"
    },
    {
      "anonymous": false,
      "inputs": [
        {
          "indexed": true,
          "internalType": "address",
          "name": "from",
          "type": "address"
        },
        {
          "indexed": true,
          "internalType": "address",
          "name": "to",
          "type": "address"
        },
        {
          "indexed": true,
          "internalType": "uint256",
          "name": "tokenId",
          "type": "uint256"
        }
      ],
      "name": "Transfer",
      "type": "event"
    },
    {
      "inputs": [
        {
          "internalType": "address",
          "name": "to",
          "type": "address"
        },
        {
          "internalType": "uint256",
          "name": "tokenId",
          "type": "uint256"
        }
      ],
      "name": "approve",
      "outputs": [],
      "stateMutability": "nonpayable",
      "type": "function"
    },
    {
      "inputs": [
        {
          "internalType": "address",
          "name": "owner",
          "type": "address"
        }
      ],
      "name": "balanceOf",
      "outputs": [
        {
          "internalType": "uint256",
          "name": "",
          "type": "uint256"
        }
      ],
      "stateMutability": "view",
      "type": "function"
    },
    {
      "inputs": [
        {
          "internalType": "address",
          "name": "_address",
          "type": "address"
        }
      ],
      "name": "countPrimeTokens",
      "outputs": [
        {
          "internalType": "uint256",
          "name": "",
          "type": "uint256"
        }
      ],
      "stateMutability": "view",
      "type": "function"
    },
    {
      "inputs": [
        {
          "internalType": "uint256",
          "name": "tokenId",
          "type": "uint256"
        }
      ],
      "name": "getApproved",
      "outputs": [
        {
          "internalType": "address",
          "name": "",
          "type": "address"
        }
      ],
      "stateMutability": "view",
      "type": "function"
    },
    {
      "inputs": [
        {
          "internalType": "address",
          "name": "owner",
          "type": "address"
        },
        {
          "internalType": "address",
          "name": "operator",
          "type": "address"
        }
      ],
      "name": "isApprovedForAll",
      "outputs": [
        {
          "internalType": "bool",
          "name": "",
          "type": "bool"
        }
      ],
      "stateMutability": "view",
      "type": "function"
    },
    {
      "inputs": [
        {
          "internalType": "uint256",
          "name": "_num",
          "type": "uint256"
        }
      ],
      "name": "isPrime",
      "outputs": [
        {
          "internalType": "bool",
          "name": "",
          "type": "bool"
        }
      ],
      "stateMutability": "pure",
      "type": "function"
    },
    {
      "inputs": [],
      "name": "name",
      "outputs": [
        {
          "internalType": "string",
          "name": "",
          "type": "string"
        }
      ],
      "stateMutability": "view",
      "type": "function"
    },
    {
      "inputs": [
        {
          "internalType": "uint256",
          "name": "tokenId",
          "type": "uint256"
        }
      ],
      "name": "ownerOf",
      "outputs": [
        {
          "internalType": "address",
          "name": "",
          "type": "address"
        }
      ],
      "stateMutability": "view",
      "type": "function"
    },
    {
      "inputs": [
        {
          "internalType": "address",
          "name": "from",
          "type": "address"
        },
        {
          "internalType": "address",
          "name": "to",
          "type": "address"
        },
        {
          "internalType": "uint256",
          "name": "tokenId",
          "type": "uint256"
        }
      ],
      "name": "safeTransferFrom",
      "outputs": [],
      "stateMutability": "nonpayable",
      "type": "function"
    },
    {
      "inputs": [
        {
          "internalType": "address",
          "name": "from",
          "type": "address"
        },
        {
          "internalType": "address",
          "name": "to",
          "type": "address"
        },
        {
          "internalType": "uint256",
          "name": "tokenId",
          "type": "uint256"
        },
        {
          "internalType": "bytes",
          "name": "data",
          "type": "bytes"
        }
      ],
      "name": "safeTransferFrom",
      "outputs": [],
      "stateMutability": "nonpayable",
      "type": "function"
    },
    {
      "inputs": [
        {
          "internalType": "address",
          "name": "operator",
          "type": "address"
        },
        {
          "internalType": "bool",
          "name": "approved",
          "type": "bool"
        }
      ],
      "name": "setApprovalForAll",
      "outputs": [],
      "stateMutability": "nonpayable",
      "type": "function"
    },
    {
      "inputs": [
        {
          "internalType": "bytes4",
          "name": "interfaceId",
          "type": "bytes4"
        }
      ],
      "name": "supportsInterface",
      "outputs": [
        {
          "internalType": "bool",
          "name": "",
          "type": "bool"
        }
      ],
      "stateMutability": "view",
      "type": "function"
    },
    {
      "inputs": [],
      "name": "symbol",
      "outputs": [
        {
          "internalType": "string",
          "name": "",
          "type": "string"
        }
      ],
      "stateMutability": "view",
      "type": "function"
    },
    {
      "inputs": [
        {
          "internalType": "uint256",
          "name": "index",
          "type": "uint256"
        }
      ],
      "name": "tokenByIndex",
      "outputs": [
        {
          "internalType": "uint256",
          "name": "",
          "type": "uint256"
        }
      ],
      "stateMutability": "view",
      "type": "function"
    },
    {
      "inputs": [
        {
          "internalType": "address",
          "name": "owner",
          "type": "address"
        },
        {
          "internalType": "uint256",
          "name": "index",
          "type": "uint256"
        }
      ],
      "name": "tokenOfOwnerByIndex",
      "outputs": [
        {
          "internalType": "uint256",
          "name": "",
          "type": "uint256"
        }
      ],
      "stateMutability": "view",
      "type": "function"
    },
    {
      "inputs": [
        {
          "internalType": "uint256",
          "name": "tokenId",
          "type": "uint256"
        }
      ],
      "name": "tokenURI",
      "outputs": [
        {
          "internalType": "string",
          "name": "",
          "type": "string"
        }
      ],
      "stateMutability": "view",
      "type": "function"
    },
    {
      "inputs": [],
      "name": "totalSupply",
      "outputs": [
        {
          "internalType": "uint256",
          "name": "",
          "type": "uint256"
        }
      ],
      "stateMutability": "view",
      "type": "function"
    },
    {
      "inputs": [
        {
          "internalType": "address",
          "name": "from",
          "type": "address"
        },
        {
          "internalType": "address",
          "name": "to",
          "type": "address"
        },
        {
          "internalType": "uint256",
          "name": "tokenId",
          "type": "uint256"
        }
      ],
      "name": "transferFrom",
      "outputs": [],
      "stateMutability": "nonpayable",
      "type": "function"
    }
  ],
  "bytecode": {
    "object": "0x60806040523480156200001157600080fd5b506040805180820182526006808252654e465442697360d01b60208084018290528451808601909552918452908301529060006200005083826200010d565b5060016200005f82826200010d565b505050620001d9565b634e487b7160e01b600052604160045260246000fd5b600181811c908216806200009357607f821691505b602082108103620000b457634e487b7160e01b600052602260045260246000fd5b50919050565b601f8211156200010857600081815260208120601f850160051c81016020861015620000e35750805b601f850160051c820191505b818110156200010457828155600101620000ef565b5050505b505050565b81516001600160401b0381111562000129576200012962000068565b62000141816200013a84546200007e565b84620000ba565b602080601f831160018114620001795760008415620001605750858301515b600019600386901b1c1916600185901b17855562000104565b600085815260208120601f198616915b82811015620001aa5788860151825594840194600190910190840162000189565b5085821015620001c95787850151600019600388901b60f8161c191681555b5050505050600190811b01905550565b611b1c80620001e96000396000f3fe608060405234801561001057600080fd5b50600436106101365760003560e01c80634f6ccce7116100b2578063a22cb46511610081578063c243935e11610066578063c243935e1461028a578063c87b56dd1461029d578063e985e9c5146102b057600080fd5b8063a22cb46514610264578063b88d4fde1461027757600080fd5b80634f6ccce7146102235780636352211e1461023657806370a082311461024957806395d89b411461025c57600080fd5b806318160ddd116101095780632f745c59116100ee5780632f745c59146101ea57806342703494146101fd57806342842e0e1461021057600080fd5b806318160ddd146101c557806323b872dd146101d757600080fd5b806301ffc9a71461013b57806306fdde0314610163578063081812fc14610178578063095ea7b3146101b0575b600080fd5b61014e6101493660046115db565b6102f9565b60405190151581526020015b60405180910390f35b61016b610355565b60405161015a9190611666565b61018b610186366004611679565b6103e7565b60405173ffffffffffffffffffffffffffffffffffffffff909116815260200161015a565b6101c36101be3660046116bb565b61041d565b005b6008545b60405190815260200161015a565b6101c36101e53660046116e5565b61042c565b6101c96101f83660046116bb565b610522565b61014e61020b366004611679565b6105ba565b6101c361021e3660046116e5565b610614565b6101c9610231366004611679565b610634565b61018b610244366004611679565b6106a6565b6101c9610257366004611721565b6106b1565b61016b61072c565b6101c361027236600461173c565b61073b565b6101c36102853660046117a7565b610746565b6101c9610298366004611721565b61075d565b61016b6102ab366004611679565b6107bc565b61014e6102be3660046118a1565b73ffffffffffffffffffffffffffffffffffffffff918216600090815260056020908152604080832093909416825291909152205460ff1690565b60007fffffffff0000000000000000000000000000000000000000000000000000000082167f780e9d6300000000000000000000000000000000000000000000000000000000148061034f575061034f82610831565b92915050565b606060008054610364906118d4565b80601f0160208091040260200160405190810160405280929190818152602001828054610390906118d4565b80156103dd5780601f106103b2576101008083540402835291602001916103dd565b820191906000526020600020905b8154815290600101906020018083116103c057829003601f168201915b5050505050905090565b60006103f282610914565b5060008281526004602052604090205473ffffffffffffffffffffffffffffffffffffffff1661034f565b610428828233610973565b5050565b73ffffffffffffffffffffffffffffffffffffffff8216610481576040517f64a0ae92000000000000000000000000000000000000000000000000000000008152600060048201526024015b60405180910390fd5b600061048e838333610980565b90508373ffffffffffffffffffffffffffffffffffffffff168173ffffffffffffffffffffffffffffffffffffffff161461051c576040517f64283d7b00000000000000000000000000000000000000000000000000000000815273ffffffffffffffffffffffffffffffffffffffff80861660048301526024820184905282166044820152606401610478565b50505050565b600061052d836106b1565b8210610584576040517fa57d13dc00000000000000000000000000000000000000000000000000000000815273ffffffffffffffffffffffffffffffffffffffff8416600482015260248101839052604401610478565b5073ffffffffffffffffffffffffffffffffffffffff919091166000908152600660209081526040808320938352929052205490565b6000600182116105cc57506000919050565b60025b826105da8280611956565b1161060b576105e9818461196d565b6000036105f95750600092915050565b80610603816119a8565b9150506105cf565b50600192915050565b61062f83838360405180602001604052806000815250610746565b505050565b600061063f60085490565b8210610681576040517fa57d13dc0000000000000000000000000000000000000000000000000000000081526000600482015260248101839052604401610478565b60088281548110610694576106946119e0565b90600052602060002001549050919050565b600061034f82610914565b600073ffffffffffffffffffffffffffffffffffffffff8216610703576040517f89c62b6400000000000000000000000000000000000000000000000000000000815260006004820152602401610478565b5073ffffffffffffffffffffffffffffffffffffffff1660009081526003602052604090205490565b606060018054610364906118d4565b610428338383610aa3565b61075184848461042c565b61051c84848484610ba0565b600080610769836106b1565b90506000805b828110156107b45760006107838683610522565b905061078e816105ba565b156107a1578261079d816119a8565b9350505b50806107ac816119a8565b91505061076f565b509392505050565b60606107c782610914565b5060006107df60408051602081019091526000815290565b905060008151116107ff576040518060200160405280600081525061082a565b8061080984610d97565b60405160200161081a929190611a0f565b6040516020818303038152906040525b9392505050565b60007fffffffff0000000000000000000000000000000000000000000000000000000082167f80ac58cd0000000000000000000000000000000000000000000000000000000014806108c457507fffffffff0000000000000000000000000000000000000000000000000000000082167f5b5e139f00000000000000000000000000000000000000000000000000000000145b8061034f57507f01ffc9a7000000000000000000000000000000000000000000000000000000007fffffffff0000000000000000000000000000000000000000000000000000000083161461034f565b60008181526002602052604081205473ffffffffffffffffffffffffffffffffffffffff168061034f576040517f7e27328900000000000000000000000000000000000000000000000000000000815260048101849052602401610478565b61062f8383836001610e55565b60008061098e858585611020565b905073ffffffffffffffffffffffffffffffffffffffff81166109f8576109f384600880546000838152600960205260408120829055600182018355919091527ff3f7a9fe364faab93b216da50a3214154f22a0a2b415b23a84c8169e8b636ee30155565b610a35565b8473ffffffffffffffffffffffffffffffffffffffff168173ffffffffffffffffffffffffffffffffffffffff1614610a3557610a35818561119d565b73ffffffffffffffffffffffffffffffffffffffff8516610a5e57610a5984611248565b610a9b565b8473ffffffffffffffffffffffffffffffffffffffff168173ffffffffffffffffffffffffffffffffffffffff1614610a9b57610a9b85856112f7565b949350505050565b73ffffffffffffffffffffffffffffffffffffffff8216610b08576040517f5b08ba1800000000000000000000000000000000000000000000000000000000815273ffffffffffffffffffffffffffffffffffffffff83166004820152602401610478565b73ffffffffffffffffffffffffffffffffffffffff83811660008181526005602090815260408083209487168084529482529182902080547fffffffffffffffffffffffffffffffffffffffffffffffffffffffffffffff001686151590811790915591519182527f17307eab39ab6107e8899845ad3d59bd9653f200f220920489ca2b5937696c31910160405180910390a3505050565b73ffffffffffffffffffffffffffffffffffffffff83163b1561051c576040517f150b7a0200000000000000000000000000000000000000000000000000000000815273ffffffffffffffffffffffffffffffffffffffff84169063150b7a0290610c15903390889087908790600401611a3e565b6020604051808303816000875af1925050508015610c6e575060408051601f3d9081017fffffffffffffffffffffffffffffffffffffffffffffffffffffffffffffffe0168201909252610c6b91810190611a87565b60015b610cfd573d808015610c9c576040519150601f19603f3d011682016040523d82523d6000602084013e610ca1565b606091505b508051600003610cf5576040517f64a0ae9200000000000000000000000000000000000000000000000000000000815273ffffffffffffffffffffffffffffffffffffffff85166004820152602401610478565b805181602001fd5b7fffffffff0000000000000000000000000000000000000000000000000000000081167f150b7a020000000000000000000000000000000000000000000000000000000014610d90576040517f64a0ae9200000000000000000000000000000000000000000000000000000000815273ffffffffffffffffffffffffffffffffffffffff85166004820152602401610478565b5050505050565b60606000610da483611354565b600101905060008167ffffffffffffffff811115610dc457610dc4611778565b6040519080825280601f01601f191660200182016040528015610dee576020820181803683370190505b5090508181016020015b7fffffffffffffffffffffffffffffffffffffffffffffffffffffffffffffffff017f3031323334353637383961626364656600000000000000000000000000000000600a86061a8153600a8504945084610df857509392505050565b8080610e76575073ffffffffffffffffffffffffffffffffffffffff821615155b15610fcb576000610e8684610914565b905073ffffffffffffffffffffffffffffffffffffffff831615801590610ed957508273ffffffffffffffffffffffffffffffffffffffff168173ffffffffffffffffffffffffffffffffffffffff1614155b8015610f18575073ffffffffffffffffffffffffffffffffffffffff80821660009081526005602090815260408083209387168352929052205460ff16155b15610f67576040517fa9fbf51f00000000000000000000000000000000000000000000000000000000815273ffffffffffffffffffffffffffffffffffffffff84166004820152602401610478565b8115610fc957838573ffffffffffffffffffffffffffffffffffffffff168273ffffffffffffffffffffffffffffffffffffffff167f8c5be1e5ebec7d5bd14f71427d1e84f3dd0314c0f7b2291e5b200ac8c7c3b92560405160405180910390a45b505b5050600090815260046020526040902080547fffffffffffffffffffffffff00000000000000000000000000000000000000001673ffffffffffffffffffffffffffffffffffffffff92909216919091179055565b60008281526002602052604081205473ffffffffffffffffffffffffffffffffffffffff9081169083161561105a5761105a818486611436565b73ffffffffffffffffffffffffffffffffffffffff8116156110d057611084600085600080610e55565b73ffffffffffffffffffffffffffffffffffffffff8116600090815260036020526040902080547fffffffffffffffffffffffffffffffffffffffffffffffffffffffffffffffff0190555b73ffffffffffffffffffffffffffffffffffffffff8516156111195773ffffffffffffffffffffffffffffffffffffffff85166000908152600360205260409020805460010190555b60008481526002602052604080822080547fffffffffffffffffffffffff00000000000000000000000000000000000000001673ffffffffffffffffffffffffffffffffffffffff89811691821790925591518793918516917fddf252ad1be2c89b69c2b068fc378daa952ba7f163c4a11628f55a4df523b3ef91a4949350505050565b60006111a8836106b1565b6000838152600760205260409020549091508082146112085773ffffffffffffffffffffffffffffffffffffffff841660009081526006602090815260408083208584528252808320548484528184208190558352600790915290208190555b50600091825260076020908152604080842084905573ffffffffffffffffffffffffffffffffffffffff9094168352600681528383209183525290812055565b60085460009061125a90600190611aa4565b60008381526009602052604081205460088054939450909284908110611282576112826119e0565b9060005260206000200154905080600883815481106112a3576112a36119e0565b60009182526020808320909101929092558281526009909152604080822084905585825281205560088054806112db576112db611ab7565b6001900381819060005260206000200160009055905550505050565b60006001611304846106b1565b61130e9190611aa4565b73ffffffffffffffffffffffffffffffffffffffff9093166000908152600660209081526040808320868452825280832085905593825260079052919091209190915550565b6000807a184f03e93ff9f4daa797ed6e38ed64bf6a1f010000000000000000831061139d577a184f03e93ff9f4daa797ed6e38ed64bf6a1f010000000000000000830492506040015b6d04ee2d6d415b85acef810000000083106113c9576d04ee2d6d415b85acef8100000000830492506020015b662386f26fc1000083106113e757662386f26fc10000830492506010015b6305f5e10083106113ff576305f5e100830492506008015b612710831061141357612710830492506004015b60648310611425576064830492506002015b600a831061034f5760010192915050565b6114418383836114e6565b61062f5773ffffffffffffffffffffffffffffffffffffffff8316611495576040517f7e27328900000000000000000000000000000000000000000000000000000000815260048101829052602401610478565b6040517f177e802f00000000000000000000000000000000000000000000000000000000815273ffffffffffffffffffffffffffffffffffffffff8316600482015260248101829052604401610478565b600073ffffffffffffffffffffffffffffffffffffffff831615801590610a9b57508273ffffffffffffffffffffffffffffffffffffffff168473ffffffffffffffffffffffffffffffffffffffff161480611574575073ffffffffffffffffffffffffffffffffffffffff80851660009081526005602090815260408083209387168352929052205460ff165b80610a9b57505060009081526004602052604090205473ffffffffffffffffffffffffffffffffffffffff908116911614919050565b7fffffffff00000000000000000000000000000000000000000000000000000000811681146115d857600080fd5b50565b6000602082840312156115ed57600080fd5b813561082a816115aa565b60005b838110156116135781810151838201526020016115fb565b50506000910152565b600081518084526116348160208601602086016115f8565b601f017fffffffffffffffffffffffffffffffffffffffffffffffffffffffffffffffe0169290920160200192915050565b60208152600061082a602083018461161c565b60006020828403121561168b57600080fd5b5035919050565b803573ffffffffffffffffffffffffffffffffffffffff811681146116b657600080fd5b919050565b600080604083850312156116ce57600080fd5b6116d783611692565b946020939093013593505050565b6000806000606084860312156116fa57600080fd5b61170384611692565b925061171160208501611692565b9150604084013590509250925092565b60006020828403121561173357600080fd5b61082a82611692565b6000806040838503121561174f57600080fd5b61175883611692565b91506020830135801515811461176d57600080fd5b809150509250929050565b7f4e487b7100000000000000000000000000000000000000000000000000000000600052604160045260246000fd5b600080600080608085870312156117bd57600080fd5b6117c685611692565b93506117d460208601611692565b925060408501359150606085013567ffffffffffffffff808211156117f857600080fd5b818701915087601f83011261180c57600080fd5b81358181111561181e5761181e611778565b604051601f82017fffffffffffffffffffffffffffffffffffffffffffffffffffffffffffffffe0908116603f0116810190838211818310171561186457611864611778565b816040528281528a602084870101111561187d57600080fd5b82602086016020830137600060208483010152809550505050505092959194509250565b600080604083850312156118b457600080fd5b6118bd83611692565b91506118cb60208401611692565b90509250929050565b600181811c908216806118e857607f821691505b602082108103611921577f4e487b7100000000000000000000000000000000000000000000000000000000600052602260045260246000fd5b50919050565b7f4e487b7100000000000000000000000000000000000000000000000000000000600052601160045260246000fd5b808202811582820484141761034f5761034f611927565b6000826119a3577f4e487b7100000000000000000000000000000000000000000000000000000000600052601260045260246000fd5b500690565b60007fffffffffffffffffffffffffffffffffffffffffffffffffffffffffffffffff82036119d9576119d9611927565b5060010190565b7f4e487b7100000000000000000000000000000000000000000000000000000000600052603260045260246000fd5b60008351611a218184602088016115f8565b835190830190611a358183602088016115f8565b01949350505050565b600073ffffffffffffffffffffffffffffffffffffffff808716835280861660208401525083604083015260806060830152611a7d608083018461161c565b9695505050505050565b600060208284031215611a9957600080fd5b815161082a816115aa565b8181038181111561034f5761034f611927565b7f4e487b7100000000000000000000000000000000000000000000000000000000600052603160045260246000fdfea26469706673582212203665f9fb3bd3df5945194d68f1311f21720abef3b16b0ae6ffcd73431e2a0e9064736f6c63430008150033",
    "linkReferences": {}
  },
  "methodIdentifiers": {
    "approve(address,uint256)": "095ea7b3",
    "balanceOf(address)": "70a08231",
    "countPrimeTokens(address)": "c243935e",
    "getApproved(uint256)": "081812fc",
    "isApprovedForAll(address,address)": "e985e9c5",
    "isPrime(uint256)": "42703494",
    "name()": "06fdde03",
    "ownerOf(uint256)": "6352211e",
    "safeTransferFrom(address,address,uint256)": "42842e0e",
    "safeTransferFrom(address,address,uint256,bytes)": "b88d4fde",
    "setApprovalForAll(address,bool)": "a22cb465",
    "supportsInterface(bytes4)": "01ffc9a7",
    "symbol()": "95d89b41",
    "tokenByIndex(uint256)": "4f6ccce7",
    "tokenOfOwnerByIndex(address,uint256)": "2f745c59",
    "tokenURI(uint256)": "c87b56dd",
    "totalSupply()": "18160ddd",
    "transferFrom(address,address,uint256)": "23b872dd"
  },
  "id": 31
}