{
  "abi": [
    {
      "inputs": [],
      "name": "read",
      "outputs": [
        {
          "internalType": "uint256",
          "name": "",
          "type": "uint256"
        }
      ],
      "stateMutability": "view",
      "type": "function"
    },
    {
      "inputs": [
        {
          "internalType": "uint256",
          "name": "newValue",
          "type": "uint256"
        }
      ],
      "name": "store",
      "outputs": [],
      "stateMutability": "nonpayable",
      "type": "function"
    }
  ],
  "bytecode": {
    "object": "0x6080604052348015600e575f80fd5b5060a58061001b5f395ff3fe6080604052348015600e575f80fd5b50600436106030575f3560e01c806357de26a41460345780636057361d146048575b5f80fd5b5f5460405190815260200160405180910390f35b605760533660046059565b5f55565b005b5f602082840312156068575f80fd5b503591905056fea2646970667358221220127fe9c7d5f678c89b50b7d26f1fa852fc0fb0e15b97f45d4c00aecdc89c00fc64736f6c63430008150033",
    "linkReferences": {}
  },
  "methodIdentifiers": {
    "read()": "57de26a4",
    "store(uint256)": "6057361d"
  },
  "id": 0
}