{
  "abi": [
    {
      "inputs": [
        {
          "internalType": "address",
          "name": "",
          "type": "address"
        }
      ],
      "name": "balances",
      "outputs": [
        {
          "internalType": "uint256",
          "name": "",
          "type": "uint256"
        }
      ],
      "stateMutability": "view",
      "type": "function"
    },
    {
      "inputs": [
        {
          "internalType": "uint256",
          "name": "itemId",
          "type": "uint256"
        }
      ],
      "name": "buy",
      "outputs": [],
      "stateMutability": "nonpayable",
      "type": "function"
    },
    {
      "inputs": [],
      "name": "depositEth",
      "outputs": [],
      "stateMutability": "payable",
      "type": "function"
    },
    {
      "inputs": [
        {
          "internalType": "uint256",
          "name": "",
          "type": "uint256"
        }
      ],
      "name": "items",
      "outputs": [
        {
          "internalType": "address",
          "name": "seller",
          "type": "address"
        },
        {
          "internalType": "uint256",
          "name": "price",
          "type": "uint256"
        },
        {
          "internalType": "uint256",
          "name": "tokenId",
          "type": "uint256"
        },
        {
          "internalType": "address",
          "name": "nftContract",
          "type": "address"
        }
      ],
      "stateMutability": "view",
      "type": "function"
    },
    {
      "inputs": [
        {
          "components": [
            {
              "internalType": "address",
              "name": "seller",
              "type": "address"
            },
            {
              "internalType": "uint256",
              "name": "price",
              "type": "uint256"
            },
            {
              "internalType": "uint256",
              "name": "tokenId",
              "type": "uint256"
            },
            {
              "internalType": "address",
              "name": "nftContract",
              "type": "address"
            }
          ],
          "internalType": "struct MarketPlace.MarketItem",
          "name": "item",
          "type": "tuple"
        }
      ],
      "name": "sell",
      "outputs": [],
      "stateMutability": "nonpayable",
      "type": "function"
    },
    {
      "inputs": [
        {
          "internalType": "uint256",
          "name": "itemId",
          "type": "uint256"
        },
        {
          "internalType": "uint256",
          "name": "price",
          "type": "uint256"
        }
      ],
      "name": "updatePrice",
      "outputs": [],
      "stateMutability": "nonpayable",
      "type": "function"
    },
    {
      "inputs": [
        {
          "internalType": "uint256",
          "name": "amount",
          "type": "uint256"
        }
      ],
      "name": "withdrawEth",
      "outputs": [],
      "stateMutability": "payable",
      "type": "function"
    }
  ],
  "bytecode": {
    "object": "0x608060405234801561001057600080fd5b50610773806100206000396000f3fe6080604052600436106100705760003560e01c806382367b2d1161004e57806382367b2d146100df578063bfb231d2146100ff578063c311d0491461014e578063d96a094a1461016157600080fd5b806327e235e31461007557806334ab540c146100b5578063439370b1146100d7575b600080fd5b34801561008157600080fd5b506100a26100903660046105d1565b60016020526000908152604090205481565b6040519081526020015b60405180910390f35b3480156100c157600080fd5b506100d56100d03660046105f5565b610181565b005b6100d5610297565b3480156100eb57600080fd5b506100d56100fa36600461060d565b6102bd565b34801561010b57600080fd5b5061011f61011a36600461062f565b610373565b604080516001600160a01b039586168152602081019490945283019190915290911660608201526080016100ac565b6100d561015c36600461062f565b6103b9565b34801561016d57600080fd5b506100d561017c36600461062f565b610466565b3361018f60208301836105d1565b6001600160a01b0316146101db5760405162461bcd60e51b815260206004820152600e60248201526d34b73b30b634b21039b2b63632b960911b60448201526064015b60405180910390fd5b6000805460018101825590805281906004027f290decd9548b62a8d60345a988386fc84ba6bc95484008f6362f93160ef3e563016102198282610668565b5061022c905060808201606083016105d1565b6001600160a01b031663f242432a3330846040013560016040518563ffffffff1660e01b815260040161026294939291906106ad565b600060405180830381600087803b15801561027c57600080fd5b505af1158015610290573d6000803e3d6000fd5b5050505050565b33600090815260016020526040812080543492906102b69084906106fb565b9091555050565b600081116102fd5760405162461bcd60e51b815260206004820152600d60248201526c6e6f6e7a65726f20707269636560981b60448201526064016101d2565b600080838154811061031157610311610714565b6000918252602090912060049091020180549091506001600160a01b0316331461036c5760405162461bcd60e51b815260206004820152600c60248201526b1d5b985d5d1a1bdc9a5e995960a21b60448201526064016101d2565b6001015550565b6000818154811061038357600080fd5b600091825260209091206004909102018054600182015460028301546003909301546001600160a01b0392831694509092911684565b33600090815260016020526040902054818110156104105760405162461bcd60e51b8152602060048201526014602482015273696e73756666696369656e742062616c616e636560601b60448201526064016101d2565b336000908152600160205260408120805484929061042f90849061072a565b9091555050604051339083156108fc029084906000818181858888f19350505050158015610461573d6000803e3d6000fd5b505050565b600080828154811061047a5761047a610714565b600091825260208083206001600490930201828101543385529290915260409092205491925011156104e55760405162461bcd60e51b8152602060048201526014602482015273696e73756666696369656e742062616c616e636560601b60448201526064016101d2565b6001808201543360009081526020929092526040822080549192909161050c90849061072a565b909155505060018082015482546001600160a01b03166000908152602092909252604082208054919290916105429084906106fb565b909155505060038101546002820154604051637921219560e11b81526001600160a01b039092169163f242432a9161058391309133916001906004016106ad565b600060405180830381600087803b15801561059d57600080fd5b505af11580156105b1573d6000803e3d6000fd5b505050505050565b6001600160a01b03811681146105ce57600080fd5b50565b6000602082840312156105e357600080fd5b81356105ee816105b9565b9392505050565b60006080828403121561060757600080fd5b50919050565b6000806040838503121561062057600080fd5b50508035926020909101359150565b60006020828403121561064157600080fd5b5035919050565b80546001600160a01b0319166001600160a01b0392909216919091179055565b8135610673816105b9565b61067d8183610648565b50602082013560018201556040820135600282015560608201356106a0816105b9565b6104618160038401610648565b6001600160a01b0394851681529290931660208301526040820152606081019190915260a06080820181905260009082015260c00190565b634e487b7160e01b600052601160045260246000fd5b8082018082111561070e5761070e6106e5565b92915050565b634e487b7160e01b600052603260045260246000fd5b8181038181111561070e5761070e6106e556fea26469706673582212204aa267c536a80c9592ced1980fc5dab5dd012ee5b456d10e8f71b08321666a0a64736f6c63430008150033",
    "linkReferences": {}
  },
  "methodIdentifiers": {
    "balances(address)": "27e235e3",
    "buy(uint256)": "d96a094a",
    "depositEth()": "439370b1",
    "items(uint256)": "bfb231d2",
    "sell((address,uint256,uint256,address))": "34ab540c",
    "updatePrice(uint256,uint256)": "82367b2d",
    "withdrawEth(uint256)": "c311d049"
  },
  "id": 24
}