{
  "abi": [
    {
      "inputs": [
        {
          "internalType": "uint256",
          "name": "",
          "type": "uint256"
        },
        {
          "internalType": "uint256",
          "name": "",
          "type": "uint256"
        }
      ],
      "name": "multiply",
      "outputs": [
        {
          "internalType": "uint256",
          "name": "",
          "type": "uint256"
        }
      ],
      "stateMutability": "payable",
      "type": "function"
    }
  ],
  "bytecode": {
    "object": "0x6080604052348015600e575f80fd5b5060988061001b5f395ff3fe608060405260043610601b575f3560e01c8063165c4a1614601f575b5f80fd5b6031602a3660046043565b5f92915050565b60405190815260200160405180910390f35b5f80604083850312156053575f80fd5b5050803592602090910135915056fea264697066735822122052e7091d12a8fbe61532e26cf4cb63c1c6a66c3c6fe56b3119346afaf75c829964736f6c63430008150033",
    "linkReferences": {}
  },
  "methodIdentifiers": {
    "multiply(uint256,uint256)": "165c4a16"
  },
  "id": 0
}