{
  "abi": [
    {
      "inputs": [
        {
          "internalType": "address",
          "name": "_owner",
          "type": "address"
        },
        {
          "internalType": "address",
          "name": "_rewardToken",
          "type": "address"
        }
      ],
      "stateMutability": "nonpayable",
      "type": "constructor"
    },
    {
      "inputs": [
        {
          "internalType": "address",
          "name": "target",
          "type": "address"
        }
      ],
      "name": "AddressEmptyCode",
      "type": "error"
    },
    {
      "inputs": [
        {
          "internalType": "address",
          "name": "account",
          "type": "address"
        }
      ],
      "name": "AddressInsufficientBalance",
      "type": "error"
    },
    {
      "inputs": [],
      "name": "FailedInnerCall",
      "type": "error"
    },
    {
      "inputs": [
        {
          "internalType": "address",
          "name": "owner",
          "type": "address"
        }
      ],
      "name": "OwnableInvalidOwner",
      "type": "error"
    },
    {
      "inputs": [
        {
          "internalType": "address",
          "name": "account",
          "type": "address"
        }
      ],
      "name": "OwnableUnauthorizedAccount",
      "type": "error"
    },
    {
      "inputs": [
        {
          "internalType": "address",
          "name": "token",
          "type": "address"
        }
      ],
      "name": "SafeERC20FailedOperation",
      "type": "error"
    },
    {
      "anonymous": false,
      "inputs": [
        {
          "indexed": true,
          "internalType": "address",
          "name": "previousOwner",
          "type": "address"
        },
        {
          "indexed": true,
          "internalType": "address",
          "name": "newOwner",
          "type": "address"
        }
      ],
      "name": "OwnershipTransferStarted",
      "type": "event"
    },
    {
      "anonymous": false,
      "inputs": [
        {
          "indexed": true,
          "internalType": "address",
          "name": "previousOwner",
          "type": "address"
        },
        {
          "indexed": true,
          "internalType": "address",
          "name": "newOwner",
          "type": "address"
        }
      ],
      "name": "OwnershipTransferred",
      "type": "event"
    },
    {
      "inputs": [],
      "name": "acceptOwnership",
      "outputs": [],
      "stateMutability": "nonpayable",
      "type": "function"
    },
    {
      "inputs": [
        {
          "internalType": "uint256",
          "name": "tokenId",
          "type": "uint256"
        },
        {
          "internalType": "uint256",
          "name": "amount",
          "type": "uint256"
        }
      ],
      "name": "claim",
      "outputs": [
        {
          "internalType": "bool",
          "name": "",
          "type": "bool"
        }
      ],
      "stateMutability": "nonpayable",
      "type": "function"
    },
    {
      "inputs": [],
      "name": "nftSpecial",
      "outputs": [
        {
          "internalType": "contract NFTSpecial",
          "name": "",
          "type": "address"
        }
      ],
      "stateMutability": "view",
      "type": "function"
    },
    {
      "inputs": [
        {
          "internalType": "address",
          "name": "operator",
          "type": "address"
        },
        {
          "internalType": "address",
          "name": "from",
          "type": "address"
        },
        {
          "internalType": "uint256",
          "name": "tokenId",
          "type": "uint256"
        },
        {
          "internalType": "bytes",
          "name": "data",
          "type": "bytes"
        }
      ],
      "name": "onERC721Received",
      "outputs": [
        {
          "internalType": "bytes4",
          "name": "",
          "type": "bytes4"
        }
      ],
      "stateMutability": "nonpayable",
      "type": "function"
    },
    {
      "inputs": [],
      "name": "owner",
      "outputs": [
        {
          "internalType": "address",
          "name": "",
          "type": "address"
        }
      ],
      "stateMutability": "view",
      "type": "function"
    },
    {
      "inputs": [],
      "name": "pendingOwner",
      "outputs": [
        {
          "internalType": "address",
          "name": "",
          "type": "address"
        }
      ],
      "stateMutability": "view",
      "type": "function"
    },
    {
      "inputs": [],
      "name": "renounceOwnership",
      "outputs": [],
      "stateMutability": "nonpayable",
      "type": "function"
    },
    {
      "inputs": [],
      "name": "rewardAmount",
      "outputs": [
        {
          "internalType": "uint256",
          "name": "",
          "type": "uint256"
        }
      ],
      "stateMutability": "view",
      "type": "function"
    },
    {
      "inputs": [],
      "name": "rewardToken",
      "outputs": [
        {
          "internalType": "contract IERC20",
          "name": "",
          "type": "address"
        }
      ],
      "stateMutability": "view",
      "type": "function"
    },
    {
      "inputs": [
        {
          "internalType": "address",
          "name": "",
          "type": "address"
        },
        {
          "internalType": "uint256",
          "name": "",
          "type": "uint256"
        }
      ],
      "name": "stakedNFT",
      "outputs": [
        {
          "internalType": "bool",
          "name": "",
          "type": "bool"
        }
      ],
      "stateMutability": "view",
      "type": "function"
    },
    {
      "inputs": [
        {
          "internalType": "address",
          "name": "",
          "type": "address"
        },
        {
          "internalType": "uint256",
          "name": "",
          "type": "uint256"
        }
      ],
      "name": "stakedTime",
      "outputs": [
        {
          "internalType": "uint256",
          "name": "",
          "type": "uint256"
        }
      ],
      "stateMutability": "view",
      "type": "function"
    },
    {
      "inputs": [],
      "name": "threshold",
      "outputs": [
        {
          "internalType": "uint256",
          "name": "",
          "type": "uint256"
        }
      ],
      "stateMutability": "view",
      "type": "function"
    },
    {
      "inputs": [
        {
          "internalType": "address",
          "name": "newOwner",
          "type": "address"
        }
      ],
      "name": "transferOwnership",
      "outputs": [],
      "stateMutability": "nonpayable",
      "type": "function"
    },
    {
      "inputs": [
        {
          "internalType": "uint256",
          "name": "tokenId",
          "type": "uint256"
        }
      ],
      "name": "unStakeNFT",
      "outputs": [],
      "stateMutability": "nonpayable",
      "type": "function"
    }
  ],
  "bytecode": {
    "object": "0x60e06040526201518060c05234801561001757600080fd5b506040516110a93803806110a983398101604081905261003691610109565b816001600160a01b03811661006557604051631e4fbdf760e01b81526000600482015260240160405180910390fd5b61006e81610081565b506001600160a01b03166080525061013c565b600180546001600160a01b031916905561009a8161009d565b50565b600080546001600160a01b038381166001600160a01b0319831681178455604051919092169283917f8be0079c531659141344cd1fd0a4f28419497f9722a3daafe3b4186f6b6457e09190a35050565b80516001600160a01b038116811461010457600080fd5b919050565b6000806040838503121561011c57600080fd5b610125836100ed565b9150610133602084016100ed565b90509250929050565b60805160a05160c051610f1b61018e6000396000818161013d01526107960152600081816102b2015281816102ee01528181610449015261067801526000818161028b015261083d0152610f1b6000f3fe608060405234801561001057600080fd5b50600436106100ea5760003560e01c8063a679c2ff1161008c578063f2fde38b11610066578063f2fde38b1461026b578063f7b2a7be1461027e578063f7c618c114610286578063fa3e537a146102ad57600080fd5b8063a679c2ff14610227578063c34902631461023a578063e30c39781461024d57600080fd5b8063715018a6116100c8578063715018a61461019857806379ba5097146101a25780638da5cb5b146101aa57806396c243f0146101e957600080fd5b8063150b7a02146100ef57806342cde4e8146101385780634aec48c91461016d575b600080fd5b6101026100fd366004610d1a565b6102d4565b6040517fffffffff0000000000000000000000000000000000000000000000000000000090911681526020015b60405180910390f35b61015f7f000000000000000000000000000000000000000000000000000000000000000081565b60405190815260200161012f565b61015f61017b366004610db9565b600360209081526000928352604080842090915290825290205481565b6101a06105b2565b005b6101a06105c6565b60005473ffffffffffffffffffffffffffffffffffffffff165b60405173ffffffffffffffffffffffffffffffffffffffff909116815260200161012f565b6102176101f7366004610db9565b600260209081526000928352604080842090915290825290205460ff1681565b604051901515815260200161012f565b6101a0610235366004610de5565b61063d565b610217610248366004610dfe565b6106ec565b60015473ffffffffffffffffffffffffffffffffffffffff166101c4565b6101a0610279366004610e20565b610870565b61015f600a81565b6101c47f000000000000000000000000000000000000000000000000000000000000000081565b6101c47f000000000000000000000000000000000000000000000000000000000000000081565b60003373ffffffffffffffffffffffffffffffffffffffff7f0000000000000000000000000000000000000000000000000000000000000000161461037a576040517f08c379a000000000000000000000000000000000000000000000000000000000815260206004820152600b60248201527f496e76616c6964204e465400000000000000000000000000000000000000000060448201526064015b60405180910390fd5b33600090815260026020908152604080832087845290915290205460ff161515600114610403576040517f08c379a000000000000000000000000000000000000000000000000000000000815260206004820152600e60248201527f416c7265616479207374616b65640000000000000000000000000000000000006044820152606401610371565b6040517f6352211e00000000000000000000000000000000000000000000000000000000815260048101859052339073ffffffffffffffffffffffffffffffffffffffff7f00000000000000000000000000000000000000000000000000000000000000001690636352211e90602401602060405180830381865afa158015610490573d6000803e3d6000fd5b505050506040513d601f19601f820116820180604052508101906104b49190610e3d565b73ffffffffffffffffffffffffffffffffffffffff1614610531576040517f08c379a000000000000000000000000000000000000000000000000000000000815260206004820152600d60248201527f496e76616c6964204f776e6572000000000000000000000000000000000000006044820152606401610371565b50336000818152600260209081526040808320878452825280832080547fffffffffffffffffffffffffffffffffffffffffffffffffffffffffffffff00166001179055928252600381528282208683529052204290557f150b7a020000000000000000000000000000000000000000000000000000000095945050505050565b6105ba610920565b6105c46000610973565b565b600154339073ffffffffffffffffffffffffffffffffffffffff168114610631576040517f118cdaa700000000000000000000000000000000000000000000000000000000815273ffffffffffffffffffffffffffffffffffffffff82166004820152602401610371565b61063a81610973565b50565b6040517f42842e0e000000000000000000000000000000000000000000000000000000008152306004820152336024820152604481018290527f000000000000000000000000000000000000000000000000000000000000000073ffffffffffffffffffffffffffffffffffffffff16906342842e0e90606401600060405180830381600087803b1580156106d157600080fd5b505af11580156106e5573d6000803e3d6000fd5b5050505050565b33600090815260026020908152604080832085845290915281205460ff161515600114610775576040517f08c379a000000000000000000000000000000000000000000000000000000000815260206004820152600a60248201527f4e6f74207374616b6564000000000000000000000000000000000000000000006044820152606401610371565b3360009081526003602090815260408083208684529091529020546107bb907f000000000000000000000000000000000000000000000000000000000000000090610e5a565b4211610823576040517f08c379a000000000000000000000000000000000000000000000000000000000815260206004820152601a60248201527f4e6f7420656e6f7567682074696d6520686173207061737365640000000000006044820152606401610371565b61086673ffffffffffffffffffffffffffffffffffffffff7f0000000000000000000000000000000000000000000000000000000000000000163033600a6109a4565b5060015b92915050565b610878610920565b6001805473ffffffffffffffffffffffffffffffffffffffff83167fffffffffffffffffffffffff000000000000000000000000000000000000000090911681179091556108db60005473ffffffffffffffffffffffffffffffffffffffff1690565b73ffffffffffffffffffffffffffffffffffffffff167f38d16b8cac22d99fc7c124b9cd0de2d3fa1faef420bfe791d8c362d765e2270060405160405180910390a350565b60005473ffffffffffffffffffffffffffffffffffffffff1633146105c4576040517f118cdaa7000000000000000000000000000000000000000000000000000000008152336004820152602401610371565b600180547fffffffffffffffffffffffff000000000000000000000000000000000000000016905561063a81610a3f565b6040805173ffffffffffffffffffffffffffffffffffffffff85811660248301528416604482015260648082018490528251808303909101815260849091019091526020810180517bffffffffffffffffffffffffffffffffffffffffffffffffffffffff167f23b872dd00000000000000000000000000000000000000000000000000000000179052610a39908590610ab4565b50505050565b6000805473ffffffffffffffffffffffffffffffffffffffff8381167fffffffffffffffffffffffff0000000000000000000000000000000000000000831681178455604051919092169283917f8be0079c531659141344cd1fd0a4f28419497f9722a3daafe3b4186f6b6457e09190a35050565b6000610ad673ffffffffffffffffffffffffffffffffffffffff841683610b4f565b90508051600014158015610afb575080806020019051810190610af99190610e94565b155b15610b4a576040517f5274afe700000000000000000000000000000000000000000000000000000000815273ffffffffffffffffffffffffffffffffffffffff84166004820152602401610371565b505050565b6060610b5d83836000610b64565b9392505050565b606081471015610ba2576040517fcd786059000000000000000000000000000000000000000000000000000000008152306004820152602401610371565b6000808573ffffffffffffffffffffffffffffffffffffffff168486604051610bcb9190610eb6565b60006040518083038185875af1925050503d8060008114610c08576040519150601f19603f3d011682016040523d82523d6000602084013e610c0d565b606091505b5091509150610c1d868383610c27565b9695505050505050565b606082610c3c57610c3782610cb6565b610b5d565b8151158015610c60575073ffffffffffffffffffffffffffffffffffffffff84163b155b15610caf576040517f9996b31500000000000000000000000000000000000000000000000000000000815273ffffffffffffffffffffffffffffffffffffffff85166004820152602401610371565b5080610b5d565b805115610cc65780518082602001fd5b6040517f1425ea4200000000000000000000000000000000000000000000000000000000815260040160405180910390fd5b73ffffffffffffffffffffffffffffffffffffffff8116811461063a57600080fd5b600080600080600060808688031215610d3257600080fd5b8535610d3d81610cf8565b94506020860135610d4d81610cf8565b935060408601359250606086013567ffffffffffffffff80821115610d7157600080fd5b818801915088601f830112610d8557600080fd5b813581811115610d9457600080fd5b896020828501011115610da657600080fd5b9699959850939650602001949392505050565b60008060408385031215610dcc57600080fd5b8235610dd781610cf8565b946020939093013593505050565b600060208284031215610df757600080fd5b5035919050565b60008060408385031215610e1157600080fd5b50508035926020909101359150565b600060208284031215610e3257600080fd5b8135610b5d81610cf8565b600060208284031215610e4f57600080fd5b8151610b5d81610cf8565b8082018082111561086a577f4e487b7100000000000000000000000000000000000000000000000000000000600052601160045260246000fd5b600060208284031215610ea657600080fd5b81518015158114610b5d57600080fd5b6000825160005b81811015610ed75760208186018101518583015201610ebd565b50600092019182525091905056fea2646970667358221220edcf7234a1b1a39f9fa52b6f2b95d7c3468978a88a2bbc0f2b6dd50e59c3362f64736f6c63430008150033",
    "linkReferences": {}
  },
  "methodIdentifiers": {
    "acceptOwnership()": "79ba5097",
    "claim(uint256,uint256)": "c3490263",
    "nftSpecial()": "fa3e537a",
    "onERC721Received(address,address,uint256,bytes)": "150b7a02",
    "owner()": "8da5cb5b",
    "pendingOwner()": "e30c3978",
    "renounceOwnership()": "715018a6",
    "rewardAmount()": "f7b2a7be",
    "rewardToken()": "f7c618c1",
    "stakedNFT(address,uint256)": "96c243f0",
    "stakedTime(address,uint256)": "4aec48c9",
    "threshold()": "42cde4e8",
    "transferOwnership(address)": "f2fde38b",
    "unStakeNFT(uint256)": "a679c2ff"
  },
  "id": 41
}