{
  "abi": [
    {
      "inputs": [],
      "name": "WithdrawalsAreDisabled",
      "type": "error"
    },
    {
      "inputs": [
        {
          "internalType": "uint256",
          "name": "",
          "type": "uint256"
        },
        {
          "internalType": "address",
          "name": "",
          "type": "address"
        },
        {
          "internalType": "address",
          "name": "",
          "type": "address"
        }
      ],
      "name": "redeem",
      "outputs": [
        {
          "internalType": "address",
          "name": "",
          "type": "address"
        }
      ],
      "stateMutability": "nonpayable",
      "type": "function"
    }
  ],
  "bytecode": {
    "object": "0x608060405234801561001057600080fd5b5061012e806100206000396000f3fe6080604052348015600f57600080fd5b506004361060285760003560e01c8063ba08765214602d575b600080fd5b603c603836600460c1565b6065565b60405173ffffffffffffffffffffffffffffffffffffffff909116815260200160405180910390f35b60006040517f521d7dd600000000000000000000000000000000000000000000000000000000815260040160405180910390fd5b803573ffffffffffffffffffffffffffffffffffffffff8116811460bc57600080fd5b919050565b60008060006060848603121560d557600080fd5b8335925060e3602085016099565b915060ef604085016099565b9050925092509256fea26469706673582212209300696be9f6f39fbaabfb22ed07091ffd265ea9ea50b8479bf59c1305ef6dc564736f6c63430008140033",
    "linkReferences": {}
  },
  "methodIdentifiers": {
    "redeem(uint256,address,address)": "ba087652"
  },
  "id": 0
}