{
  "abi": [
    {
      "inputs": [],
      "name": "WithdrawalsAreDisabled",
      "type": "error"
    },
    {
      "inputs": [
        {
          "internalType": "uint256",
          "name": "",
          "type": "uint256"
        },
        {
          "internalType": "address",
          "name": "",
          "type": "address"
        },
        {
          "internalType": "address",
          "name": "",
          "type": "address"
        }
      ],
      "name": "redeem",
      "outputs": [
        {
          "internalType": "uint256",
          "name": "",
          "type": "uint256"
        }
      ],
      "stateMutability": "nonpayable",
      "type": "function"
    }
  ],
  "bytecode": {
    "object": "0x608060405234801561001057600080fd5b50610117806100206000396000f3fe6080604052348015600f57600080fd5b506004361060285760003560e01c8063ba08765214602d575b600080fd5b603c603836600460aa565b604e565b60405190815260200160405180910390f35b60006040517f521d7dd600000000000000000000000000000000000000000000000000000000815260040160405180910390fd5b803573ffffffffffffffffffffffffffffffffffffffff8116811460a557600080fd5b919050565b60008060006060848603121560be57600080fd5b8335925060cc602085016082565b915060d8604085016082565b9050925092509256fea2646970667358221220412434a912f4a8b231c2949767ed32ed7d50a49a9b3da602124920208dca0f9264736f6c63430008140033",
    "linkReferences": {}
  },
  "methodIdentifiers": {
    "redeem(uint256,address,address)": "ba087652"
  },
  "id": 18
}