{
  "abi": [
    {
      "inputs": [
        {
          "internalType": "address",
          "name": "intialOwner",
          "type": "address"
        }
      ],
      "stateMutability": "nonpayable",
      "type": "constructor"
    },
    {
      "inputs": [
        {
          "internalType": "address",
          "name": "receiver",
          "type": "address"
        }
      ],
      "name": "ERC1363EOAReceiver",
      "type": "error"
    },
    {
      "inputs": [
        {
          "internalType": "address",
          "name": "spender",
          "type": "address"
        }
      ],
      "name": "ERC1363EOASpender",
      "type": "error"
    },
    {
      "inputs": [
        {
          "internalType": "address",
          "name": "receiver",
          "type": "address"
        }
      ],
      "name": "ERC1363InvalidReceiver",
      "type": "error"
    },
    {
      "inputs": [
        {
          "internalType": "address",
          "name": "spender",
          "type": "address"
        }
      ],
      "name": "ERC1363InvalidSpender",
      "type": "error"
    },
    {
      "inputs": [
        {
          "internalType": "address",
          "name": "spender",
          "type": "address"
        },
        {
          "internalType": "uint256",
          "name": "allowance",
          "type": "uint256"
        },
        {
          "internalType": "uint256",
          "name": "needed",
          "type": "uint256"
        }
      ],
      "name": "ERC20InsufficientAllowance",
      "type": "error"
    },
    {
      "inputs": [
        {
          "internalType": "address",
          "name": "sender",
          "type": "address"
        },
        {
          "internalType": "uint256",
          "name": "balance",
          "type": "uint256"
        },
        {
          "internalType": "uint256",
          "name": "needed",
          "type": "uint256"
        }
      ],
      "name": "ERC20InsufficientBalance",
      "type": "error"
    },
    {
      "inputs": [
        {
          "internalType": "address",
          "name": "approver",
          "type": "address"
        }
      ],
      "name": "ERC20InvalidApprover",
      "type": "error"
    },
    {
      "inputs": [
        {
          "internalType": "address",
          "name": "receiver",
          "type": "address"
        }
      ],
      "name": "ERC20InvalidReceiver",
      "type": "error"
    },
    {
      "inputs": [
        {
          "internalType": "address",
          "name": "sender",
          "type": "address"
        }
      ],
      "name": "ERC20InvalidSender",
      "type": "error"
    },
    {
      "inputs": [
        {
          "internalType": "address",
          "name": "spender",
          "type": "address"
        }
      ],
      "name": "ERC20InvalidSpender",
      "type": "error"
    },
    {
      "inputs": [
        {
          "internalType": "address",
          "name": "owner",
          "type": "address"
        }
      ],
      "name": "OwnableInvalidOwner",
      "type": "error"
    },
    {
      "inputs": [
        {
          "internalType": "address",
          "name": "account",
          "type": "address"
        }
      ],
      "name": "OwnableUnauthorizedAccount",
      "type": "error"
    },
    {
      "anonymous": false,
      "inputs": [
        {
          "indexed": true,
          "internalType": "address",
          "name": "owner",
          "type": "address"
        },
        {
          "indexed": true,
          "internalType": "address",
          "name": "spender",
          "type": "address"
        },
        {
          "indexed": false,
          "internalType": "uint256",
          "name": "value",
          "type": "uint256"
        }
      ],
      "name": "Approval",
      "type": "event"
    },
    {
      "anonymous": false,
      "inputs": [
        {
          "indexed": true,
          "internalType": "address",
          "name": "previousOwner",
          "type": "address"
        },
        {
          "indexed": true,
          "internalType": "address",
          "name": "newOwner",
          "type": "address"
        }
      ],
      "name": "OwnershipTransferStarted",
      "type": "event"
    },
    {
      "anonymous": false,
      "inputs": [
        {
          "indexed": true,
          "internalType": "address",
          "name": "previousOwner",
          "type": "address"
        },
        {
          "indexed": true,
          "internalType": "address",
          "name": "newOwner",
          "type": "address"
        }
      ],
      "name": "OwnershipTransferred",
      "type": "event"
    },
    {
      "anonymous": false,
      "inputs": [
        {
          "indexed": true,
          "internalType": "address",
          "name": "from",
          "type": "address"
        },
        {
          "indexed": true,
          "internalType": "address",
          "name": "to",
          "type": "address"
        },
        {
          "indexed": false,
          "internalType": "uint256",
          "name": "value",
          "type": "uint256"
        }
      ],
      "name": "Transfer",
      "type": "event"
    },
    {
      "inputs": [],
      "name": "acceptOwnership",
      "outputs": [],
      "stateMutability": "nonpayable",
      "type": "function"
    },
    {
      "inputs": [
        {
          "internalType": "address",
          "name": "owner",
          "type": "address"
        },
        {
          "internalType": "address",
          "name": "spender",
          "type": "address"
        }
      ],
      "name": "allowance",
      "outputs": [
        {
          "internalType": "uint256",
          "name": "",
          "type": "uint256"
        }
      ],
      "stateMutability": "view",
      "type": "function"
    },
    {
      "inputs": [
        {
          "internalType": "address",
          "name": "spender",
          "type": "address"
        },
        {
          "internalType": "uint256",
          "name": "value",
          "type": "uint256"
        }
      ],
      "name": "approve",
      "outputs": [
        {
          "internalType": "bool",
          "name": "",
          "type": "bool"
        }
      ],
      "stateMutability": "nonpayable",
      "type": "function"
    },
    {
      "inputs": [
        {
          "internalType": "address",
          "name": "spender",
          "type": "address"
        },
        {
          "internalType": "uint256",
          "name": "value",
          "type": "uint256"
        }
      ],
      "name": "approveAndCall",
      "outputs": [
        {
          "internalType": "bool",
          "name": "",
          "type": "bool"
        }
      ],
      "stateMutability": "nonpayable",
      "type": "function"
    },
    {
      "inputs": [
        {
          "internalType": "address",
          "name": "spender",
          "type": "address"
        },
        {
          "internalType": "uint256",
          "name": "value",
          "type": "uint256"
        },
        {
          "internalType": "bytes",
          "name": "data",
          "type": "bytes"
        }
      ],
      "name": "approveAndCall",
      "outputs": [
        {
          "internalType": "bool",
          "name": "",
          "type": "bool"
        }
      ],
      "stateMutability": "nonpayable",
      "type": "function"
    },
    {
      "inputs": [
        {
          "internalType": "address",
          "name": "account",
          "type": "address"
        }
      ],
      "name": "balanceOf",
      "outputs": [
        {
          "internalType": "uint256",
          "name": "",
          "type": "uint256"
        }
      ],
      "stateMutability": "view",
      "type": "function"
    },
    {
      "inputs": [
        {
          "internalType": "address[]",
          "name": "_address",
          "type": "address[]"
        }
      ],
      "name": "banUser",
      "outputs": [],
      "stateMutability": "nonpayable",
      "type": "function"
    },
    {
      "inputs": [
        {
          "internalType": "address",
          "name": "",
          "type": "address"
        }
      ],
      "name": "banned",
      "outputs": [
        {
          "internalType": "bool",
          "name": "",
          "type": "bool"
        }
      ],
      "stateMutability": "view",
      "type": "function"
    },
    {
      "inputs": [],
      "name": "decimals",
      "outputs": [
        {
          "internalType": "uint8",
          "name": "",
          "type": "uint8"
        }
      ],
      "stateMutability": "view",
      "type": "function"
    },
    {
      "inputs": [
        {
          "internalType": "address",
          "name": "_to",
          "type": "address"
        },
        {
          "internalType": "uint256",
          "name": "_amount",
          "type": "uint256"
        }
      ],
      "name": "mint",
      "outputs": [],
      "stateMutability": "nonpayable",
      "type": "function"
    },
    {
      "inputs": [],
      "name": "name",
      "outputs": [
        {
          "internalType": "string",
          "name": "",
          "type": "string"
        }
      ],
      "stateMutability": "view",
      "type": "function"
    },
    {
      "inputs": [
        {
          "internalType": "address",
          "name": "operator",
          "type": "address"
        },
        {
          "internalType": "address",
          "name": "from",
          "type": "address"
        },
        {
          "internalType": "uint256",
          "name": "value",
          "type": "uint256"
        },
        {
          "internalType": "bytes",
          "name": "data",
          "type": "bytes"
        }
      ],
      "name": "onTransferReceived",
      "outputs": [
        {
          "internalType": "bytes4",
          "name": "",
          "type": "bytes4"
        }
      ],
      "stateMutability": "pure",
      "type": "function"
    },
    {
      "inputs": [],
      "name": "owner",
      "outputs": [
        {
          "internalType": "address",
          "name": "",
          "type": "address"
        }
      ],
      "stateMutability": "view",
      "type": "function"
    },
    {
      "inputs": [],
      "name": "pendingOwner",
      "outputs": [
        {
          "internalType": "address",
          "name": "",
          "type": "address"
        }
      ],
      "stateMutability": "view",
      "type": "function"
    },
    {
      "inputs": [],
      "name": "renounceOwnership",
      "outputs": [],
      "stateMutability": "nonpayable",
      "type": "function"
    },
    {
      "inputs": [
        {
          "internalType": "bytes4",
          "name": "interfaceId",
          "type": "bytes4"
        }
      ],
      "name": "supportsInterface",
      "outputs": [
        {
          "internalType": "bool",
          "name": "",
          "type": "bool"
        }
      ],
      "stateMutability": "view",
      "type": "function"
    },
    {
      "inputs": [],
      "name": "symbol",
      "outputs": [
        {
          "internalType": "string",
          "name": "",
          "type": "string"
        }
      ],
      "stateMutability": "view",
      "type": "function"
    },
    {
      "inputs": [],
      "name": "totalSupply",
      "outputs": [
        {
          "internalType": "uint256",
          "name": "",
          "type": "uint256"
        }
      ],
      "stateMutability": "view",
      "type": "function"
    },
    {
      "inputs": [
        {
          "internalType": "address",
          "name": "to",
          "type": "address"
        },
        {
          "internalType": "uint256",
          "name": "value",
          "type": "uint256"
        }
      ],
      "name": "transfer",
      "outputs": [
        {
          "internalType": "bool",
          "name": "",
          "type": "bool"
        }
      ],
      "stateMutability": "nonpayable",
      "type": "function"
    },
    {
      "inputs": [
        {
          "internalType": "address",
          "name": "to",
          "type": "address"
        },
        {
          "internalType": "uint256",
          "name": "value",
          "type": "uint256"
        }
      ],
      "name": "transferAndCall",
      "outputs": [
        {
          "internalType": "bool",
          "name": "",
          "type": "bool"
        }
      ],
      "stateMutability": "nonpayable",
      "type": "function"
    },
    {
      "inputs": [
        {
          "internalType": "address",
          "name": "to",
          "type": "address"
        },
        {
          "internalType": "uint256",
          "name": "value",
          "type": "uint256"
        },
        {
          "internalType": "bytes",
          "name": "_data",
          "type": "bytes"
        }
      ],
      "name": "transferAndCall",
      "outputs": [
        {
          "internalType": "bool",
          "name": "",
          "type": "bool"
        }
      ],
      "stateMutability": "nonpayable",
      "type": "function"
    },
    {
      "inputs": [
        {
          "internalType": "address",
          "name": "from",
          "type": "address"
        },
        {
          "internalType": "address",
          "name": "to",
          "type": "address"
        },
        {
          "internalType": "uint256",
          "name": "value",
          "type": "uint256"
        }
      ],
      "name": "transferFrom",
      "outputs": [
        {
          "internalType": "bool",
          "name": "",
          "type": "bool"
        }
      ],
      "stateMutability": "nonpayable",
      "type": "function"
    },
    {
      "inputs": [
        {
          "internalType": "address",
          "name": "from",
          "type": "address"
        },
        {
          "internalType": "address",
          "name": "to",
          "type": "address"
        },
        {
          "internalType": "uint256",
          "name": "value",
          "type": "uint256"
        },
        {
          "internalType": "bytes",
          "name": "data",
          "type": "bytes"
        }
      ],
      "name": "transferFromAndCall",
      "outputs": [
        {
          "internalType": "bool",
          "name": "",
          "type": "bool"
        }
      ],
      "stateMutability": "nonpayable",
      "type": "function"
    },
    {
      "inputs": [
        {
          "internalType": "address",
          "name": "from",
          "type": "address"
        },
        {
          "internalType": "address",
          "name": "to",
          "type": "address"
        },
        {
          "internalType": "uint256",
          "name": "value",
          "type": "uint256"
        }
      ],
      "name": "transferFromAndCall",
      "outputs": [
        {
          "internalType": "bool",
          "name": "",
          "type": "bool"
        }
      ],
      "stateMutability": "nonpayable",
      "type": "function"
    },
    {
      "inputs": [
        {
          "internalType": "address",
          "name": "newOwner",
          "type": "address"
        }
      ],
      "name": "transferOwnership",
      "outputs": [],
      "stateMutability": "nonpayable",
      "type": "function"
    },
    {
      "inputs": [
        {
          "internalType": "address[]",
          "name": "_address",
          "type": "address[]"
        }
      ],
      "name": "unBanUser",
      "outputs": [],
      "stateMutability": "nonpayable",
      "type": "function"
    }
  ],
  "bytecode": {
    "object": "0x60806040523480156200001157600080fd5b5060405162002073380380620020738339810160408190526200003491620002d0565b806040518060400160405280600a81526020016952617265536b696c6c7360b01b8152506040518060400160405280600381526020016252534b60e81b8152508160039081620000859190620003a7565b506004620000948282620003a7565b5050506001600160a01b038116620000c757604051631e4fbdf760e01b8152600060048201526024015b60405180910390fd5b620000d281620000ef565b50620000e8816801158e460913d000006200010d565b506200049b565b600680546001600160a01b03191690556200010a816200014b565b50565b6001600160a01b038216620001395760405163ec442f0560e01b815260006004820152602401620000be565b62000147600083836200019d565b5050565b600580546001600160a01b038381166001600160a01b0319831681179093556040519116919082907f8be0079c531659141344cd1fd0a4f28419497f9722a3daafe3b4186f6b6457e090600090a35050565b6001600160a01b038316620001cc578060026000828254620001c0919062000473565b90915550620002409050565b6001600160a01b03831660009081526020819052604090205481811015620002215760405163391434e360e21b81526001600160a01b03851660048201526024810182905260448101839052606401620000be565b6001600160a01b03841660009081526020819052604090209082900390555b6001600160a01b0382166200025e576002805482900390556200027d565b6001600160a01b03821660009081526020819052604090208054820190555b816001600160a01b0316836001600160a01b03167fddf252ad1be2c89b69c2b068fc378daa952ba7f163c4a11628f55a4df523b3ef83604051620002c391815260200190565b60405180910390a3505050565b600060208284031215620002e357600080fd5b81516001600160a01b0381168114620002fb57600080fd5b9392505050565b634e487b7160e01b600052604160045260246000fd5b600181811c908216806200032d57607f821691505b6020821081036200034e57634e487b7160e01b600052602260045260246000fd5b50919050565b601f821115620003a257600081815260208120601f850160051c810160208610156200037d5750805b601f850160051c820191505b818110156200039e5782815560010162000389565b5050505b505050565b81516001600160401b03811115620003c357620003c362000302565b620003db81620003d4845462000318565b8462000354565b602080601f831160018114620004135760008415620003fa5750858301515b600019600386901b1c1916600185901b1785556200039e565b600085815260208120601f198616915b82811015620004445788860151825594840194600190910190840162000423565b5085821015620004635787850151600019600388901b60f8161c191681555b5050505050600190811b01905550565b808201808211156200049557634e487b7160e01b600052601160045260246000fd5b92915050565b611bc880620004ab6000396000f3fe608060405234801561001057600080fd5b50600436106101ae5760003560e01c806379ba5097116100ee578063a9059cbb11610097578063d8fbe99411610071578063d8fbe994146103fd578063dd62ed3e14610410578063e30c397814610456578063f2fde38b1461047457600080fd5b8063a9059cbb146103c4578063c1d34b89146103d7578063cae9ca51146103ea57600080fd5b80638da5cb5b116100c85780638da5cb5b1461035a57806395d89b41146103995780639c8d83bb146103a157600080fd5b806379ba5097146102d65780637f205499146102de57806388a7ca5c146102f157600080fd5b8063313ce5671161015b57806340c10f191161013557806340c10f19146102705780634aab6f181461028557806370a0823114610298578063715018a6146102ce57600080fd5b8063313ce5671461023b5780633177029f1461024a5780634000aea01461025d57600080fd5b80631296ee621161018c5780631296ee621461020357806318160ddd1461021657806323b872dd1461022857600080fd5b806301ffc9a7146101b357806306fdde03146101db578063095ea7b3146101f0575b600080fd5b6101c66101c13660046115d8565b610487565b60405190151581526020015b60405180910390f35b6101e3610520565b6040516101d29190611659565b6101c66101fe366004611695565b6105b2565b6101c6610211366004611695565b6105ca565b6002545b6040519081526020016101d2565b6101c66102363660046116bf565b6105ed565b604051601281526020016101d2565b6101c6610258366004611695565b610611565b6101c661026b3660046117d5565b61062d565b61028361027e366004611695565b61064b565b005b61028361029336600461182c565b610661565b61021a6102a63660046118a1565b73ffffffffffffffffffffffffffffffffffffffff1660009081526020819052604090205490565b610283610779565b61028361078d565b6102836102ec36600461182c565b610804565b6103296102ff3660046118bc565b7f88a7ca5c0000000000000000000000000000000000000000000000000000000095945050505050565b6040517fffffffff0000000000000000000000000000000000000000000000000000000090911681526020016101d2565b60055473ffffffffffffffffffffffffffffffffffffffff165b60405173ffffffffffffffffffffffffffffffffffffffff90911681526020016101d2565b6101e3610911565b6101c66103af3660046118a1565b60076020526000908152604090205460ff1681565b6101c66103d2366004611695565b610920565b6101c66103e5366004611957565b610935565b6101c66103f83660046117d5565b61094f565b6101c661040b3660046116bf565b610967565b61021a61041e3660046119bf565b73ffffffffffffffffffffffffffffffffffffffff918216600090815260016020908152604080832093909416825291909152205490565b60065473ffffffffffffffffffffffffffffffffffffffff16610374565b6102836104823660046118a1565b610984565b60007fffffffff0000000000000000000000000000000000000000000000000000000082167fb0202a1100000000000000000000000000000000000000000000000000000000148061051a57507f01ffc9a7000000000000000000000000000000000000000000000000000000007fffffffff000000000000000000000000000000000000000000000000000000008316145b92915050565b60606003805461052f906119f2565b80601f016020809104026020016040519081016040528092919081815260200182805461055b906119f2565b80156105a85780601f1061057d576101008083540402835291602001916105a8565b820191906000526020600020905b81548152906001019060200180831161058b57829003601f168201915b5050505050905090565b6000336105c0818585610a34565b5060019392505050565b60006105e683836040518060200160405280600081525061062d565b9392505050565b6000336105fb858285610a46565b610606858585610b0f565b506001949350505050565b60006105e683836040518060200160405280600081525061094f565b600061063884610bba565b610643848484610cc4565b949350505050565b610653610cdd565b61065d8282610d30565b5050565b610669610cdd565b806106d5576040517f08c379a000000000000000000000000000000000000000000000000000000000815260206004820152601360248201527f4e6f206164647265737320746f20756e62616e0000000000000000000000000060448201526064015b60405180910390fd5b8060005b81811015610773576000600760008686858181106106f9576106f9611a45565b905060200201602081019061070e91906118a1565b73ffffffffffffffffffffffffffffffffffffffff168152602081019190915260400160002080547fffffffffffffffffffffffffffffffffffffffffffffffffffffffffffffff00169115159190911790558061076b81611aa3565b9150506106d9565b50505050565b610781610cdd565b61078b6000610d8c565b565b600654339073ffffffffffffffffffffffffffffffffffffffff1681146107f8576040517f118cdaa700000000000000000000000000000000000000000000000000000000815273ffffffffffffffffffffffffffffffffffffffff821660048201526024016106cc565b61080181610d8c565b50565b61080c610cdd565b80610873576040517f08c379a000000000000000000000000000000000000000000000000000000000815260206004820152601160248201527f4e6f206164647265737320746f2062616e00000000000000000000000000000060448201526064016106cc565b8060005b818110156107735760016007600086868581811061089757610897611a45565b90506020020160208101906108ac91906118a1565b73ffffffffffffffffffffffffffffffffffffffff168152602081019190915260400160002080547fffffffffffffffffffffffffffffffffffffffffffffffffffffffffffffff00169115159190911790558061090981611aa3565b915050610877565b60606004805461052f906119f2565b600061092b83610bba565b6105e68383610dbd565b60006109428585856105ed565b5061060685858585610dcb565b600061095b84846105b2565b506105c084848461100e565b600061064384848460405180602001604052806000815250610935565b61098c610cdd565b6006805473ffffffffffffffffffffffffffffffffffffffff83167fffffffffffffffffffffffff000000000000000000000000000000000000000090911681179091556109ef60055473ffffffffffffffffffffffffffffffffffffffff1690565b73ffffffffffffffffffffffffffffffffffffffff167f38d16b8cac22d99fc7c124b9cd0de2d3fa1faef420bfe791d8c362d765e2270060405160405180910390a350565b610a418383836001611240565b505050565b73ffffffffffffffffffffffffffffffffffffffff8381166000908152600160209081526040808320938616835292905220547fffffffffffffffffffffffffffffffffffffffffffffffffffffffffffffffff81146107735781811015610b00576040517ffb8f41b200000000000000000000000000000000000000000000000000000000815273ffffffffffffffffffffffffffffffffffffffff8416600482015260248101829052604481018390526064016106cc565b61077384848484036000611240565b73ffffffffffffffffffffffffffffffffffffffff8316610b5f576040517f96c6fd1e000000000000000000000000000000000000000000000000000000008152600060048201526024016106cc565b73ffffffffffffffffffffffffffffffffffffffff8216610baf576040517fec442f05000000000000000000000000000000000000000000000000000000008152600060048201526024016106cc565b610a41838383611388565b3360009081526007602052604090205460ff1615610c34576040517f08c379a000000000000000000000000000000000000000000000000000000000815260206004820152601060248201527f53656e6465722069732062616e6e65640000000000000000000000000000000060448201526064016106cc565b73ffffffffffffffffffffffffffffffffffffffff811660009081526007602052604090205460ff1615610801576040517f08c379a000000000000000000000000000000000000000000000000000000000815260206004820152601360248201527f526563697069656e742069732062616e6e65640000000000000000000000000060448201526064016106cc565b6000610cd08484610920565b506105c033858585610dcb565b60055473ffffffffffffffffffffffffffffffffffffffff16331461078b576040517f118cdaa70000000000000000000000000000000000000000000000000000000081523360048201526024016106cc565b73ffffffffffffffffffffffffffffffffffffffff8216610d80576040517fec442f05000000000000000000000000000000000000000000000000000000008152600060048201526024016106cc565b61065d60008383611388565b600680547fffffffffffffffffffffffff000000000000000000000000000000000000000016905561080181611533565b6000336105c0818585610b0f565b8273ffffffffffffffffffffffffffffffffffffffff163b600003610e34576040517f14b41af400000000000000000000000000000000000000000000000000000000815273ffffffffffffffffffffffffffffffffffffffff841660048201526024016106cc565b6040517f88a7ca5c00000000000000000000000000000000000000000000000000000000815273ffffffffffffffffffffffffffffffffffffffff8416906388a7ca5c90610e8c903390889087908790600401611adb565b6020604051808303816000875af1925050508015610ee5575060408051601f3d9081017fffffffffffffffffffffffffffffffffffffffffffffffffffffffffffffffe0168201909252610ee291810190611b24565b60015b610f74573d808015610f13576040519150601f19603f3d011682016040523d82523d6000602084013e610f18565b606091505b508051600003610f6c576040517f8a96cd9c00000000000000000000000000000000000000000000000000000000815273ffffffffffffffffffffffffffffffffffffffff851660048201526024016106cc565b805181602001fd5b7fffffffff0000000000000000000000000000000000000000000000000000000081167f88a7ca5c0000000000000000000000000000000000000000000000000000000014611007576040517f8a96cd9c00000000000000000000000000000000000000000000000000000000815273ffffffffffffffffffffffffffffffffffffffff851660048201526024016106cc565b5050505050565b8273ffffffffffffffffffffffffffffffffffffffff163b600003611077576040517f0778150c00000000000000000000000000000000000000000000000000000000815273ffffffffffffffffffffffffffffffffffffffff841660048201526024016106cc565b6040517f7b04a2d000000000000000000000000000000000000000000000000000000000815273ffffffffffffffffffffffffffffffffffffffff841690637b04a2d0906110cd90339086908690600401611b41565b6020604051808303816000875af1925050508015611126575060408051601f3d9081017fffffffffffffffffffffffffffffffffffffffffffffffffffffffffffffffe016820190925261112391810190611b24565b60015b6111ad573d808015611154576040519150601f19603f3d011682016040523d82523d6000602084013e611159565b606091505b508051600003610f6c576040517fdeb6d3ed00000000000000000000000000000000000000000000000000000000815273ffffffffffffffffffffffffffffffffffffffff851660048201526024016106cc565b7fffffffff0000000000000000000000000000000000000000000000000000000081167f7b04a2d00000000000000000000000000000000000000000000000000000000014610773576040517fdeb6d3ed00000000000000000000000000000000000000000000000000000000815273ffffffffffffffffffffffffffffffffffffffff851660048201526024016106cc565b73ffffffffffffffffffffffffffffffffffffffff8416611290576040517fe602df05000000000000000000000000000000000000000000000000000000008152600060048201526024016106cc565b73ffffffffffffffffffffffffffffffffffffffff83166112e0576040517f94280d62000000000000000000000000000000000000000000000000000000008152600060048201526024016106cc565b73ffffffffffffffffffffffffffffffffffffffff80851660009081526001602090815260408083209387168352929052208290558015610773578273ffffffffffffffffffffffffffffffffffffffff168473ffffffffffffffffffffffffffffffffffffffff167f8c5be1e5ebec7d5bd14f71427d1e84f3dd0314c0f7b2291e5b200ac8c7c3b9258460405161137a91815260200190565b60405180910390a350505050565b73ffffffffffffffffffffffffffffffffffffffff83166113c05780600260008282546113b59190611b7f565b909155506114729050565b73ffffffffffffffffffffffffffffffffffffffff831660009081526020819052604090205481811015611446576040517fe450d38c00000000000000000000000000000000000000000000000000000000815273ffffffffffffffffffffffffffffffffffffffff8516600482015260248101829052604481018390526064016106cc565b73ffffffffffffffffffffffffffffffffffffffff841660009081526020819052604090209082900390555b73ffffffffffffffffffffffffffffffffffffffff821661149b576002805482900390556114c7565b73ffffffffffffffffffffffffffffffffffffffff821660009081526020819052604090208054820190555b8173ffffffffffffffffffffffffffffffffffffffff168373ffffffffffffffffffffffffffffffffffffffff167fddf252ad1be2c89b69c2b068fc378daa952ba7f163c4a11628f55a4df523b3ef8360405161152691815260200190565b60405180910390a3505050565b6005805473ffffffffffffffffffffffffffffffffffffffff8381167fffffffffffffffffffffffff0000000000000000000000000000000000000000831681179093556040519116919082907f8be0079c531659141344cd1fd0a4f28419497f9722a3daafe3b4186f6b6457e090600090a35050565b7fffffffff000000000000000000000000000000000000000000000000000000008116811461080157600080fd5b6000602082840312156115ea57600080fd5b81356105e6816115aa565b6000815180845260005b8181101561161b576020818501810151868301820152016115ff565b5060006020828601015260207fffffffffffffffffffffffffffffffffffffffffffffffffffffffffffffffe0601f83011685010191505092915050565b6020815260006105e660208301846115f5565b803573ffffffffffffffffffffffffffffffffffffffff8116811461169057600080fd5b919050565b600080604083850312156116a857600080fd5b6116b18361166c565b946020939093013593505050565b6000806000606084860312156116d457600080fd5b6116dd8461166c565b92506116eb6020850161166c565b9150604084013590509250925092565b7f4e487b7100000000000000000000000000000000000000000000000000000000600052604160045260246000fd5b600082601f83011261173b57600080fd5b813567ffffffffffffffff80821115611756576117566116fb565b604051601f83017fffffffffffffffffffffffffffffffffffffffffffffffffffffffffffffffe0908116603f0116810190828211818310171561179c5761179c6116fb565b816040528381528660208588010111156117b557600080fd5b836020870160208301376000602085830101528094505050505092915050565b6000806000606084860312156117ea57600080fd5b6117f38461166c565b925060208401359150604084013567ffffffffffffffff81111561181657600080fd5b6118228682870161172a565b9150509250925092565b6000806020838503121561183f57600080fd5b823567ffffffffffffffff8082111561185757600080fd5b818501915085601f83011261186b57600080fd5b81358181111561187a57600080fd5b8660208260051b850101111561188f57600080fd5b60209290920196919550909350505050565b6000602082840312156118b357600080fd5b6105e68261166c565b6000806000806000608086880312156118d457600080fd5b6118dd8661166c565b94506118eb6020870161166c565b935060408601359250606086013567ffffffffffffffff8082111561190f57600080fd5b818801915088601f83011261192357600080fd5b81358181111561193257600080fd5b89602082850101111561194457600080fd5b9699959850939650602001949392505050565b6000806000806080858703121561196d57600080fd5b6119768561166c565b93506119846020860161166c565b925060408501359150606085013567ffffffffffffffff8111156119a757600080fd5b6119b38782880161172a565b91505092959194509250565b600080604083850312156119d257600080fd5b6119db8361166c565b91506119e96020840161166c565b90509250929050565b600181811c90821680611a0657607f821691505b602082108103611a3f577f4e487b7100000000000000000000000000000000000000000000000000000000600052602260045260246000fd5b50919050565b7f4e487b7100000000000000000000000000000000000000000000000000000000600052603260045260246000fd5b7f4e487b7100000000000000000000000000000000000000000000000000000000600052601160045260246000fd5b60007fffffffffffffffffffffffffffffffffffffffffffffffffffffffffffffffff8203611ad457611ad4611a74565b5060010190565b600073ffffffffffffffffffffffffffffffffffffffff808716835280861660208401525083604083015260806060830152611b1a60808301846115f5565b9695505050505050565b600060208284031215611b3657600080fd5b81516105e6816115aa565b73ffffffffffffffffffffffffffffffffffffffff84168152826020820152606060408201526000611b7660608301846115f5565b95945050505050565b8082018082111561051a5761051a611a7456fea2646970667358221220c5b3f973ab5f470272694cefbc7f8b4a831c12d63d1b83c51923097bbffcf64464736f6c63430008140033",
    "linkReferences": {}
  },
  "methodIdentifiers": {
    "acceptOwnership()": "79ba5097",
    "allowance(address,address)": "dd62ed3e",
    "approve(address,uint256)": "095ea7b3",
    "approveAndCall(address,uint256)": "3177029f",
    "approveAndCall(address,uint256,bytes)": "cae9ca51",
    "balanceOf(address)": "70a08231",
    "banUser(address[])": "7f205499",
    "banned(address)": "9c8d83bb",
    "decimals()": "313ce567",
    "mint(address,uint256)": "40c10f19",
    "name()": "06fdde03",
    "onTransferReceived(address,address,uint256,bytes)": "88a7ca5c",
    "owner()": "8da5cb5b",
    "pendingOwner()": "e30c3978",
    "renounceOwnership()": "715018a6",
    "supportsInterface(bytes4)": "01ffc9a7",
    "symbol()": "95d89b41",
    "totalSupply()": "18160ddd",
    "transfer(address,uint256)": "a9059cbb",
    "transferAndCall(address,uint256)": "1296ee62",
    "transferAndCall(address,uint256,bytes)": "4000aea0",
    "transferFrom(address,address,uint256)": "23b872dd",
    "transferFromAndCall(address,address,uint256)": "d8fbe994",
    "transferFromAndCall(address,address,uint256,bytes)": "c1d34b89",
    "transferOwnership(address)": "f2fde38b",
    "unBanUser(address[])": "4aab6f18"
  },
  "id": 21
}