{
  "abi": [
    {
      "inputs": [
        {
          "internalType": "address",
          "name": "_buyer",
          "type": "address"
        },
        {
          "internalType": "address",
          "name": "_seller",
          "type": "address"
        }
      ],
      "stateMutability": "nonpayable",
      "type": "constructor"
    },
    {
      "inputs": [
        {
          "internalType": "address",
          "name": "target",
          "type": "address"
        }
      ],
      "name": "AddressEmptyCode",
      "type": "error"
    },
    {
      "inputs": [
        {
          "internalType": "address",
          "name": "account",
          "type": "address"
        }
      ],
      "name": "AddressInsufficientBalance",
      "type": "error"
    },
    {
      "inputs": [],
      "name": "FailedInnerCall",
      "type": "error"
    },
    {
      "inputs": [],
      "name": "ReentrancyGuardReentrantCall",
      "type": "error"
    },
    {
      "inputs": [
        {
          "internalType": "address",
          "name": "token",
          "type": "address"
        }
      ],
      "name": "SafeERC20FailedOperation",
      "type": "error"
    },
    {
      "inputs": [
        {
          "internalType": "address",
          "name": "erc20",
          "type": "address"
        },
        {
          "internalType": "uint256",
          "name": "amount",
          "type": "uint256"
        }
      ],
      "name": "depositTokens",
      "outputs": [],
      "stateMutability": "nonpayable",
      "type": "function"
    },
    {
      "inputs": [
        {
          "internalType": "address",
          "name": "",
          "type": "address"
        },
        {
          "internalType": "address",
          "name": "",
          "type": "address"
        }
      ],
      "name": "escrow",
      "outputs": [
        {
          "internalType": "uint256",
          "name": "amount",
          "type": "uint256"
        },
        {
          "internalType": "uint256",
          "name": "depositTime",
          "type": "uint256"
        }
      ],
      "stateMutability": "view",
      "type": "function"
    },
    {
      "inputs": [
        {
          "internalType": "address",
          "name": "",
          "type": "address"
        }
      ],
      "name": "marketMaker",
      "outputs": [
        {
          "internalType": "enum UnEscrow.MarketMaker",
          "name": "",
          "type": "uint8"
        }
      ],
      "stateMutability": "view",
      "type": "function"
    },
    {
      "inputs": [
        {
          "internalType": "address",
          "name": "erc20",
          "type": "address"
        },
        {
          "internalType": "address",
          "name": "_depositor",
          "type": "address"
        },
        {
          "internalType": "uint256",
          "name": "_amount",
          "type": "uint256"
        }
      ],
      "name": "withdraw",
      "outputs": [],
      "stateMutability": "nonpayable",
      "type": "function"
    }
  ],
  "bytecode": {
    "object": "0x608060405234801561001057600080fd5b50604051610cbb380380610cbb83398101604081905261002f9161008d565b600160008181556001600160a01b03938416815260026020526040808220805460ff1990811690915593909416815292909220805490911690911790556100c0565b80516001600160a01b038116811461008857600080fd5b919050565b600080604083850312156100a057600080fd5b6100a983610071565b91506100b760208401610071565b90509250929050565b610bec806100cf6000396000f3fe608060405234801561001057600080fd5b506004361061004c5760003560e01c806336fe51ef1461005157806366168bd71461008a578063d9caed121461009f578063fac958a9146100b2575b600080fd5b61007461005f366004610998565b60026020526000908152604090205460ff1681565b60405161008191906109e2565b60405180910390f35b61009d610098366004610a23565b6100f6565b005b61009d6100ad366004610a4d565b610236565b6100e16100c0366004610a89565b60016020818152600093845260408085209091529183529120805491015482565b60408051928352602083019190915201610081565b3360009081526002602052604081205460ff16600181111561011a5761011a6109b3565b146101ac576040517f08c379a000000000000000000000000000000000000000000000000000000000815260206004820152602160248201527f4f6e6c792062757965722063616e2063616c6c20746869732066756e6374696f60448201527f6e0000000000000000000000000000000000000000000000000000000000000060648201526084015b60405180910390fd5b73ffffffffffffffffffffffffffffffffffffffff82166000908152600160209081526040808320338452909152812080548392906101ec908490610aeb565b909155505073ffffffffffffffffffffffffffffffffffffffff82166000818152600160208181526040808420338086529252909220429101556102329190308461061c565b5050565b61023e6106ab565b60013360009081526002602052604090205460ff166001811115610264576102646109b3565b146102f1576040517f08c379a000000000000000000000000000000000000000000000000000000000815260206004820152602260248201527f4f6e6c792073656c6c65722063616e2063616c6c20746869732066756e63746960448201527f6f6e00000000000000000000000000000000000000000000000000000000000060648201526084016101a3565b73ffffffffffffffffffffffffffffffffffffffff808416600090815260016020818152604080842094871684529390529190200154610334906203f480610aeb565b421161039c576040517f08c379a000000000000000000000000000000000000000000000000000000000815260206004820152601860248201527f5769746864726177206e6f7420616c6c6f77656420796574000000000000000060448201526064016101a3565b73ffffffffffffffffffffffffffffffffffffffff8084166000908152600160209081526040808320938616835292905220548111156103db57600080fd5b60006103e860c883610afe565b905060006103f68284610b39565b73ffffffffffffffffffffffffffffffffffffffff808716600090815260016020908152604080832093891683529290529081208054929350859290919061043f908490610b39565b90915550506040517f70a0823100000000000000000000000000000000000000000000000000000000815230600482015260009073ffffffffffffffffffffffffffffffffffffffff8716906370a0823190602401602060405180830381865afa1580156104b1573d6000803e3d6000fd5b505050506040513d601f19601f820116820180604052508101906104d59190610b4c565b90506104f873ffffffffffffffffffffffffffffffffffffffff871633846106ee565b6040517f70a0823100000000000000000000000000000000000000000000000000000000815230600482015260009073ffffffffffffffffffffffffffffffffffffffff8816906370a0823190602401602060405180830381865afa158015610565573d6000803e3d6000fd5b505050506040513d601f19601f820116820180604052508101906105899190610b4c565b90506000846105988385610b39565b6105a29190610b39565b9050838110156106085760006105b88286610b39565b73ffffffffffffffffffffffffffffffffffffffff808b166000908152600160209081526040808320938d16835292905290812080549293508392909190610601908490610aeb565b9091555050505b50505050506106176001600055565b505050565b60405173ffffffffffffffffffffffffffffffffffffffff84811660248301528381166044830152606482018390526106a59186918216906323b872dd906084015b604051602081830303815290604052915060e01b6020820180517bffffffffffffffffffffffffffffffffffffffffffffffffffffffff838183161783525050505061072c565b50505050565b6002600054036106e7576040517f3ee5aeb500000000000000000000000000000000000000000000000000000000815260040160405180910390fd5b6002600055565b60405173ffffffffffffffffffffffffffffffffffffffff83811660248301526044820183905261061791859182169063a9059cbb9060640161065e565b600061074e73ffffffffffffffffffffffffffffffffffffffff8416836107c2565b905080516000141580156107735750808060200190518101906107719190610b65565b155b15610617576040517f5274afe700000000000000000000000000000000000000000000000000000000815273ffffffffffffffffffffffffffffffffffffffff841660048201526024016101a3565b60606107d0838360006107d9565b90505b92915050565b606081471015610817576040517fcd7860590000000000000000000000000000000000000000000000000000000081523060048201526024016101a3565b6000808573ffffffffffffffffffffffffffffffffffffffff1684866040516108409190610b87565b60006040518083038185875af1925050503d806000811461087d576040519150601f19603f3d011682016040523d82523d6000602084013e610882565b606091505b509150915061089286838361089e565b925050505b9392505050565b6060826108b3576108ae8261092d565b610897565b81511580156108d7575073ffffffffffffffffffffffffffffffffffffffff84163b155b15610926576040517f9996b31500000000000000000000000000000000000000000000000000000000815273ffffffffffffffffffffffffffffffffffffffff851660048201526024016101a3565b5080610897565b80511561093d5780518082602001fd5b6040517f1425ea4200000000000000000000000000000000000000000000000000000000815260040160405180910390fd5b803573ffffffffffffffffffffffffffffffffffffffff8116811461099357600080fd5b919050565b6000602082840312156109aa57600080fd5b6107d08261096f565b7f4e487b7100000000000000000000000000000000000000000000000000000000600052602160045260246000fd5b6020810160028310610a1d577f4e487b7100000000000000000000000000000000000000000000000000000000600052602160045260246000fd5b91905290565b60008060408385031215610a3657600080fd5b610a3f8361096f565b946020939093013593505050565b600080600060608486031215610a6257600080fd5b610a6b8461096f565b9250610a796020850161096f565b9150604084013590509250925092565b60008060408385031215610a9c57600080fd5b610aa58361096f565b9150610ab36020840161096f565b90509250929050565b7f4e487b7100000000000000000000000000000000000000000000000000000000600052601160045260246000fd5b808201808211156107d3576107d3610abc565b600082610b34577f4e487b7100000000000000000000000000000000000000000000000000000000600052601260045260246000fd5b500490565b818103818111156107d3576107d3610abc565b600060208284031215610b5e57600080fd5b5051919050565b600060208284031215610b7757600080fd5b8151801515811461089757600080fd5b6000825160005b81811015610ba85760208186018101518583015201610b8e565b50600092019182525091905056fea26469706673582212200261709923a0a58a8ca5633e3010ad222060cda4060439fb828ed29f590336da64736f6c63430008140033",
    "linkReferences": {}
  },
  "methodIdentifiers": {
    "depositTokens(address,uint256)": "66168bd7",
    "escrow(address,address)": "fac958a9",
    "marketMaker(address)": "36fe51ef",
    "withdraw(address,address,uint256)": "d9caed12"
  },
  "id": 22
}