{
  "abi": [
    {
      "inputs": [],
      "stateMutability": "nonpayable",
      "type": "constructor"
    },
    {
      "inputs": [],
      "name": "ERC721EnumerableForbiddenBatchMint",
      "type": "error"
    },
    {
      "inputs": [
        {
          "internalType": "address",
          "name": "sender",
          "type": "address"
        },
        {
          "internalType": "uint256",
          "name": "tokenId",
          "type": "uint256"
        },
        {
          "internalType": "address",
          "name": "owner",
          "type": "address"
        }
      ],
      "name": "ERC721IncorrectOwner",
      "type": "error"
    },
    {
      "inputs": [
        {
          "internalType": "address",
          "name": "operator",
          "type": "address"
        },
        {
          "internalType": "uint256",
          "name": "tokenId",
          "type": "uint256"
        }
      ],
      "name": "ERC721InsufficientApproval",
      "type": "error"
    },
    {
      "inputs": [
        {
          "internalType": "address",
          "name": "approver",
          "type": "address"
        }
      ],
      "name": "ERC721InvalidApprover",
      "type": "error"
    },
    {
      "inputs": [
        {
          "internalType": "address",
          "name": "operator",
          "type": "address"
        }
      ],
      "name": "ERC721InvalidOperator",
      "type": "error"
    },
    {
      "inputs": [
        {
          "internalType": "address",
          "name": "owner",
          "type": "address"
        }
      ],
      "name": "ERC721InvalidOwner",
      "type": "error"
    },
    {
      "inputs": [
        {
          "internalType": "address",
          "name": "receiver",
          "type": "address"
        }
      ],
      "name": "ERC721InvalidReceiver",
      "type": "error"
    },
    {
      "inputs": [
        {
          "internalType": "address",
          "name": "sender",
          "type": "address"
        }
      ],
      "name": "ERC721InvalidSender",
      "type": "error"
    },
    {
      "inputs": [
        {
          "internalType": "uint256",
          "name": "tokenId",
          "type": "uint256"
        }
      ],
      "name": "ERC721NonexistentToken",
      "type": "error"
    },
    {
      "inputs": [
        {
          "internalType": "address",
          "name": "owner",
          "type": "address"
        },
        {
          "internalType": "uint256",
          "name": "index",
          "type": "uint256"
        }
      ],
      "name": "ERC721OutOfBoundsIndex",
      "type": "error"
    },
    {
      "anonymous": false,
      "inputs": [
        {
          "indexed": true,
          "internalType": "address",
          "name": "owner",
          "type": "address"
        },
        {
          "indexed": true,
          "internalType": "address",
          "name": "approved",
          "type": "address"
        },
        {
          "indexed": true,
          "internalType": "uint256",
          "name": "tokenId",
          "type": "uint256"
        }
      ],
      "name": "Approval",
      "type": "event"
    },
    {
      "anonymous": false,
      "inputs": [
        {
          "indexed": true,
          "internalType": "address",
          "name": "owner",
          "type": "address"
        },
        {
          "indexed": true,
          "internalType": "address",
          "name": "operator",
          "type": "address"
        },
        {
          "indexed": false,
          "internalType": "bool",
          "name": "approved",
          "type": "bool"
        }
      ],
      "name": "ApprovalForAll",
      "type": "event"
    },
    {
      "anonymous": false,
      "inputs": [
        {
          "indexed": true,
          "internalType": "address",
          "name": "from",
          "type": "address"
        },
        {
          "indexed": true,
          "internalType": "address",
          "name": "to",
          "type": "address"
        },
        {
          "indexed": true,
          "internalType": "uint256",
          "name": "tokenId",
          "type": "uint256"
        }
      ],
      "name": "Transfer",
      "type": "event"
    },
    {
      "inputs": [
        {
          "internalType": "address",
          "name": "to",
          "type": "address"
        },
        {
          "internalType": "uint256",
          "name": "tokenId",
          "type": "uint256"
        }
      ],
      "name": "approve",
      "outputs": [],
      "stateMutability": "nonpayable",
      "type": "function"
    },
    {
      "inputs": [
        {
          "internalType": "address",
          "name": "owner",
          "type": "address"
        }
      ],
      "name": "balanceOf",
      "outputs": [
        {
          "internalType": "uint256",
          "name": "",
          "type": "uint256"
        }
      ],
      "stateMutability": "view",
      "type": "function"
    },
    {
      "inputs": [
        {
          "internalType": "uint256",
          "name": "tokenId",
          "type": "uint256"
        }
      ],
      "name": "getApproved",
      "outputs": [
        {
          "internalType": "address",
          "name": "",
          "type": "address"
        }
      ],
      "stateMutability": "view",
      "type": "function"
    },
    {
      "inputs": [
        {
          "internalType": "address",
          "name": "owner",
          "type": "address"
        },
        {
          "internalType": "address",
          "name": "operator",
          "type": "address"
        }
      ],
      "name": "isApprovedForAll",
      "outputs": [
        {
          "internalType": "bool",
          "name": "",
          "type": "bool"
        }
      ],
      "stateMutability": "view",
      "type": "function"
    },
    {
      "inputs": [],
      "name": "mint",
      "outputs": [],
      "stateMutability": "nonpayable",
      "type": "function"
    },
    {
      "inputs": [],
      "name": "name",
      "outputs": [
        {
          "internalType": "string",
          "name": "",
          "type": "string"
        }
      ],
      "stateMutability": "view",
      "type": "function"
    },
    {
      "inputs": [
        {
          "internalType": "uint256",
          "name": "tokenId",
          "type": "uint256"
        }
      ],
      "name": "ownerOf",
      "outputs": [
        {
          "internalType": "address",
          "name": "",
          "type": "address"
        }
      ],
      "stateMutability": "view",
      "type": "function"
    },
    {
      "inputs": [
        {
          "internalType": "address",
          "name": "from",
          "type": "address"
        },
        {
          "internalType": "address",
          "name": "to",
          "type": "address"
        },
        {
          "internalType": "uint256",
          "name": "tokenId",
          "type": "uint256"
        }
      ],
      "name": "safeTransferFrom",
      "outputs": [],
      "stateMutability": "nonpayable",
      "type": "function"
    },
    {
      "inputs": [
        {
          "internalType": "address",
          "name": "from",
          "type": "address"
        },
        {
          "internalType": "address",
          "name": "to",
          "type": "address"
        },
        {
          "internalType": "uint256",
          "name": "tokenId",
          "type": "uint256"
        },
        {
          "internalType": "bytes",
          "name": "data",
          "type": "bytes"
        }
      ],
      "name": "safeTransferFrom",
      "outputs": [],
      "stateMutability": "nonpayable",
      "type": "function"
    },
    {
      "inputs": [
        {
          "internalType": "address",
          "name": "operator",
          "type": "address"
        },
        {
          "internalType": "bool",
          "name": "approved",
          "type": "bool"
        }
      ],
      "name": "setApprovalForAll",
      "outputs": [],
      "stateMutability": "nonpayable",
      "type": "function"
    },
    {
      "inputs": [
        {
          "internalType": "bytes4",
          "name": "interfaceId",
          "type": "bytes4"
        }
      ],
      "name": "supportsInterface",
      "outputs": [
        {
          "internalType": "bool",
          "name": "",
          "type": "bool"
        }
      ],
      "stateMutability": "view",
      "type": "function"
    },
    {
      "inputs": [],
      "name": "symbol",
      "outputs": [
        {
          "internalType": "string",
          "name": "",
          "type": "string"
        }
      ],
      "stateMutability": "view",
      "type": "function"
    },
    {
      "inputs": [
        {
          "internalType": "uint256",
          "name": "index",
          "type": "uint256"
        }
      ],
      "name": "tokenByIndex",
      "outputs": [
        {
          "internalType": "uint256",
          "name": "",
          "type": "uint256"
        }
      ],
      "stateMutability": "view",
      "type": "function"
    },
    {
      "inputs": [
        {
          "internalType": "address",
          "name": "owner",
          "type": "address"
        },
        {
          "internalType": "uint256",
          "name": "index",
          "type": "uint256"
        }
      ],
      "name": "tokenOfOwnerByIndex",
      "outputs": [
        {
          "internalType": "uint256",
          "name": "",
          "type": "uint256"
        }
      ],
      "stateMutability": "view",
      "type": "function"
    },
    {
      "inputs": [
        {
          "internalType": "uint256",
          "name": "tokenId",
          "type": "uint256"
        }
      ],
      "name": "tokenURI",
      "outputs": [
        {
          "internalType": "string",
          "name": "",
          "type": "string"
        }
      ],
      "stateMutability": "view",
      "type": "function"
    },
    {
      "inputs": [],
      "name": "totalSupply",
      "outputs": [
        {
          "internalType": "uint256",
          "name": "",
          "type": "uint256"
        }
      ],
      "stateMutability": "view",
      "type": "function"
    },
    {
      "inputs": [
        {
          "internalType": "address",
          "name": "from",
          "type": "address"
        },
        {
          "internalType": "address",
          "name": "to",
          "type": "address"
        },
        {
          "internalType": "uint256",
          "name": "tokenId",
          "type": "uint256"
        }
      ],
      "name": "transferFrom",
      "outputs": [],
      "stateMutability": "nonpayable",
      "type": "function"
    }
  ],
  "bytecode": {
    "object": "0x60806040523480156200001157600080fd5b506040518060400160405280600d81526020016c27232a21b7b63632b1ba34b7b760991b815250604051806040016040528060048152602001634e46544360e01b815250816000908162000066919062000123565b50600162000075828262000123565b505050620001ef565b634e487b7160e01b600052604160045260246000fd5b600181811c90821680620000a957607f821691505b602082108103620000ca57634e487b7160e01b600052602260045260246000fd5b50919050565b601f8211156200011e57600081815260208120601f850160051c81016020861015620000f95750805b601f850160051c820191505b818110156200011a5782815560010162000105565b5050505b505050565b81516001600160401b038111156200013f576200013f6200007e565b620001578162000150845462000094565b84620000d0565b602080601f8311600181146200018f5760008415620001765750858301515b600019600386901b1c1916600185901b1785556200011a565b600085815260208120601f198616915b82811015620001c0578886015182559484019460019091019084016200019f565b5085821015620001df5787850151600019600388901b60f8161c191681555b5050505050600190811b01905550565b611b6f80620001ff6000396000f3fe608060405234801561001057600080fd5b506004361061011b5760003560e01c806342842e0e116100b257806395d89b4111610081578063b88d4fde11610066578063b88d4fde14610251578063c87b56dd14610264578063e985e9c51461027757600080fd5b806395d89b4114610236578063a22cb4651461023e57600080fd5b806342842e0e146101ea5780634f6ccce7146101fd5780636352211e1461021057806370a082311461022357600080fd5b80631249c58b116100ee5780631249c58b146101aa57806318160ddd146101b257806323b872dd146101c45780632f745c59146101d757600080fd5b806301ffc9a71461012057806306fdde0314610148578063081812fc1461015d578063095ea7b314610195575b600080fd5b61013361012e366004611680565b6102c0565b60405190151581526020015b60405180910390f35b61015061031c565b60405161013f919061170b565b61017061016b36600461171e565b6103ae565b60405173ffffffffffffffffffffffffffffffffffffffff909116815260200161013f565b6101a86101a3366004611760565b6103e4565b005b6101a86103f3565b6008545b60405190815260200161013f565b6101a86101d236600461178a565b6104ad565b6101b66101e5366004611760565b61059e565b6101a86101f836600461178a565b610636565b6101b661020b36600461171e565b610656565b61017061021e36600461171e565b6106c8565b6101b66102313660046117c6565b6106d3565b61015061074e565b6101a861024c3660046117e1565b61075d565b6101a861025f36600461184c565b610768565b61015061027236600461171e565b61077f565b610133610285366004611946565b73ffffffffffffffffffffffffffffffffffffffff918216600090815260056020908152604080832093909416825291909152205460ff1690565b60007fffffffff0000000000000000000000000000000000000000000000000000000082167f780e9d630000000000000000000000000000000000000000000000000000000014806103165750610316826107f4565b92915050565b60606000805461032b90611979565b80601f016020809104026020016040519081016040528092919081815260200182805461035790611979565b80156103a45780601f10610379576101008083540402835291602001916103a4565b820191906000526020600020905b81548152906001019060200180831161038757829003601f168201915b5050505050905090565b60006103b9826108d7565b5060008281526004602052604090205473ffffffffffffffffffffffffffffffffffffffff16610316565b6103ef828233610936565b5050565b6014600a541061048a576040517f08c379a000000000000000000000000000000000000000000000000000000000815260206004820152602160248201527f4e4654436f6c6c656374696f6e3a206d617820737570706c792072656163686560448201527f640000000000000000000000000000000000000000000000000000000000000060648201526084015b60405180910390fd5b600a805490600061049a836119fb565b91905055506104ab33600a54610943565b565b73ffffffffffffffffffffffffffffffffffffffff82166104fd576040517f64a0ae9200000000000000000000000000000000000000000000000000000000815260006004820152602401610481565b600061050a83833361095d565b90508373ffffffffffffffffffffffffffffffffffffffff168173ffffffffffffffffffffffffffffffffffffffff1614610598576040517f64283d7b00000000000000000000000000000000000000000000000000000000815273ffffffffffffffffffffffffffffffffffffffff80861660048301526024820184905282166044820152606401610481565b50505050565b60006105a9836106d3565b8210610600576040517fa57d13dc00000000000000000000000000000000000000000000000000000000815273ffffffffffffffffffffffffffffffffffffffff8416600482015260248101839052604401610481565b5073ffffffffffffffffffffffffffffffffffffffff919091166000908152600660209081526040808320938352929052205490565b61065183838360405180602001604052806000815250610768565b505050565b600061066160085490565b82106106a3576040517fa57d13dc0000000000000000000000000000000000000000000000000000000081526000600482015260248101839052604401610481565b600882815481106106b6576106b6611a33565b90600052602060002001549050919050565b6000610316826108d7565b600073ffffffffffffffffffffffffffffffffffffffff8216610725576040517f89c62b6400000000000000000000000000000000000000000000000000000000815260006004820152602401610481565b5073ffffffffffffffffffffffffffffffffffffffff1660009081526003602052604090205490565b60606001805461032b90611979565b6103ef338383610a80565b6107738484846104ad565b61059884848484610b7d565b606061078a826108d7565b5060006107a260408051602081019091526000815290565b905060008151116107c257604051806020016040528060008152506107ed565b806107cc84610d74565b6040516020016107dd929190611a62565b6040516020818303038152906040525b9392505050565b60007fffffffff0000000000000000000000000000000000000000000000000000000082167f80ac58cd00000000000000000000000000000000000000000000000000000000148061088757507fffffffff0000000000000000000000000000000000000000000000000000000082167f5b5e139f00000000000000000000000000000000000000000000000000000000145b8061031657507f01ffc9a7000000000000000000000000000000000000000000000000000000007fffffffff00000000000000000000000000000000000000000000000000000000831614610316565b60008181526002602052604081205473ffffffffffffffffffffffffffffffffffffffff1680610316576040517f7e27328900000000000000000000000000000000000000000000000000000000815260048101849052602401610481565b6106518383836001610e32565b6103ef828260405180602001604052806000815250610ffd565b60008061096b858585611014565b905073ffffffffffffffffffffffffffffffffffffffff81166109d5576109d084600880546000838152600960205260408120829055600182018355919091527ff3f7a9fe364faab93b216da50a3214154f22a0a2b415b23a84c8169e8b636ee30155565b610a12565b8473ffffffffffffffffffffffffffffffffffffffff168173ffffffffffffffffffffffffffffffffffffffff1614610a1257610a128185611191565b73ffffffffffffffffffffffffffffffffffffffff8516610a3b57610a368461123c565b610a78565b8473ffffffffffffffffffffffffffffffffffffffff168173ffffffffffffffffffffffffffffffffffffffff1614610a7857610a7885856112eb565b949350505050565b73ffffffffffffffffffffffffffffffffffffffff8216610ae5576040517f5b08ba1800000000000000000000000000000000000000000000000000000000815273ffffffffffffffffffffffffffffffffffffffff83166004820152602401610481565b73ffffffffffffffffffffffffffffffffffffffff83811660008181526005602090815260408083209487168084529482529182902080547fffffffffffffffffffffffffffffffffffffffffffffffffffffffffffffff001686151590811790915591519182527f17307eab39ab6107e8899845ad3d59bd9653f200f220920489ca2b5937696c31910160405180910390a3505050565b73ffffffffffffffffffffffffffffffffffffffff83163b15610598576040517f150b7a0200000000000000000000000000000000000000000000000000000000815273ffffffffffffffffffffffffffffffffffffffff84169063150b7a0290610bf2903390889087908790600401611a91565b6020604051808303816000875af1925050508015610c4b575060408051601f3d9081017fffffffffffffffffffffffffffffffffffffffffffffffffffffffffffffffe0168201909252610c4891810190611ada565b60015b610cda573d808015610c79576040519150601f19603f3d011682016040523d82523d6000602084013e610c7e565b606091505b508051600003610cd2576040517f64a0ae9200000000000000000000000000000000000000000000000000000000815273ffffffffffffffffffffffffffffffffffffffff85166004820152602401610481565b805181602001fd5b7fffffffff0000000000000000000000000000000000000000000000000000000081167f150b7a020000000000000000000000000000000000000000000000000000000014610d6d576040517f64a0ae9200000000000000000000000000000000000000000000000000000000815273ffffffffffffffffffffffffffffffffffffffff85166004820152602401610481565b5050505050565b60606000610d8183611348565b600101905060008167ffffffffffffffff811115610da157610da161181d565b6040519080825280601f01601f191660200182016040528015610dcb576020820181803683370190505b5090508181016020015b7fffffffffffffffffffffffffffffffffffffffffffffffffffffffffffffffff017f3031323334353637383961626364656600000000000000000000000000000000600a86061a8153600a8504945084610dd557509392505050565b8080610e53575073ffffffffffffffffffffffffffffffffffffffff821615155b15610fa8576000610e63846108d7565b905073ffffffffffffffffffffffffffffffffffffffff831615801590610eb657508273ffffffffffffffffffffffffffffffffffffffff168173ffffffffffffffffffffffffffffffffffffffff1614155b8015610ef5575073ffffffffffffffffffffffffffffffffffffffff80821660009081526005602090815260408083209387168352929052205460ff16155b15610f44576040517fa9fbf51f00000000000000000000000000000000000000000000000000000000815273ffffffffffffffffffffffffffffffffffffffff84166004820152602401610481565b8115610fa657838573ffffffffffffffffffffffffffffffffffffffff168273ffffffffffffffffffffffffffffffffffffffff167f8c5be1e5ebec7d5bd14f71427d1e84f3dd0314c0f7b2291e5b200ac8c7c3b92560405160405180910390a45b505b5050600090815260046020526040902080547fffffffffffffffffffffffff00000000000000000000000000000000000000001673ffffffffffffffffffffffffffffffffffffffff92909216919091179055565b611007838361142a565b6106516000848484610b7d565b60008281526002602052604081205473ffffffffffffffffffffffffffffffffffffffff9081169083161561104e5761104e8184866114db565b73ffffffffffffffffffffffffffffffffffffffff8116156110c457611078600085600080610e32565b73ffffffffffffffffffffffffffffffffffffffff8116600090815260036020526040902080547fffffffffffffffffffffffffffffffffffffffffffffffffffffffffffffffff0190555b73ffffffffffffffffffffffffffffffffffffffff85161561110d5773ffffffffffffffffffffffffffffffffffffffff85166000908152600360205260409020805460010190555b60008481526002602052604080822080547fffffffffffffffffffffffff00000000000000000000000000000000000000001673ffffffffffffffffffffffffffffffffffffffff89811691821790925591518793918516917fddf252ad1be2c89b69c2b068fc378daa952ba7f163c4a11628f55a4df523b3ef91a4949350505050565b600061119c836106d3565b6000838152600760205260409020549091508082146111fc5773ffffffffffffffffffffffffffffffffffffffff841660009081526006602090815260408083208584528252808320548484528184208190558352600790915290208190555b50600091825260076020908152604080842084905573ffffffffffffffffffffffffffffffffffffffff9094168352600681528383209183525290812055565b60085460009061124e90600190611af7565b6000838152600960205260408120546008805493945090928490811061127657611276611a33565b90600052602060002001549050806008838154811061129757611297611a33565b60009182526020808320909101929092558281526009909152604080822084905585825281205560088054806112cf576112cf611b0a565b6001900381819060005260206000200160009055905550505050565b600060016112f8846106d3565b6113029190611af7565b73ffffffffffffffffffffffffffffffffffffffff9093166000908152600660209081526040808320868452825280832085905593825260079052919091209190915550565b6000807a184f03e93ff9f4daa797ed6e38ed64bf6a1f0100000000000000008310611391577a184f03e93ff9f4daa797ed6e38ed64bf6a1f010000000000000000830492506040015b6d04ee2d6d415b85acef810000000083106113bd576d04ee2d6d415b85acef8100000000830492506020015b662386f26fc1000083106113db57662386f26fc10000830492506010015b6305f5e10083106113f3576305f5e100830492506008015b612710831061140757612710830492506004015b60648310611419576064830492506002015b600a83106103165760010192915050565b73ffffffffffffffffffffffffffffffffffffffff821661147a576040517f64a0ae9200000000000000000000000000000000000000000000000000000000815260006004820152602401610481565b60006114888383600061095d565b905073ffffffffffffffffffffffffffffffffffffffff811615610651576040517f73c6ac6e00000000000000000000000000000000000000000000000000000000815260006004820152602401610481565b6114e683838361158b565b6106515773ffffffffffffffffffffffffffffffffffffffff831661153a576040517f7e27328900000000000000000000000000000000000000000000000000000000815260048101829052602401610481565b6040517f177e802f00000000000000000000000000000000000000000000000000000000815273ffffffffffffffffffffffffffffffffffffffff8316600482015260248101829052604401610481565b600073ffffffffffffffffffffffffffffffffffffffff831615801590610a7857508273ffffffffffffffffffffffffffffffffffffffff168473ffffffffffffffffffffffffffffffffffffffff161480611619575073ffffffffffffffffffffffffffffffffffffffff80851660009081526005602090815260408083209387168352929052205460ff165b80610a7857505060009081526004602052604090205473ffffffffffffffffffffffffffffffffffffffff908116911614919050565b7fffffffff000000000000000000000000000000000000000000000000000000008116811461167d57600080fd5b50565b60006020828403121561169257600080fd5b81356107ed8161164f565b60005b838110156116b85781810151838201526020016116a0565b50506000910152565b600081518084526116d981602086016020860161169d565b601f017fffffffffffffffffffffffffffffffffffffffffffffffffffffffffffffffe0169290920160200192915050565b6020815260006107ed60208301846116c1565b60006020828403121561173057600080fd5b5035919050565b803573ffffffffffffffffffffffffffffffffffffffff8116811461175b57600080fd5b919050565b6000806040838503121561177357600080fd5b61177c83611737565b946020939093013593505050565b60008060006060848603121561179f57600080fd5b6117a884611737565b92506117b660208501611737565b9150604084013590509250925092565b6000602082840312156117d857600080fd5b6107ed82611737565b600080604083850312156117f457600080fd5b6117fd83611737565b91506020830135801515811461181257600080fd5b809150509250929050565b7f4e487b7100000000000000000000000000000000000000000000000000000000600052604160045260246000fd5b6000806000806080858703121561186257600080fd5b61186b85611737565b935061187960208601611737565b925060408501359150606085013567ffffffffffffffff8082111561189d57600080fd5b818701915087601f8301126118b157600080fd5b8135818111156118c3576118c361181d565b604051601f82017fffffffffffffffffffffffffffffffffffffffffffffffffffffffffffffffe0908116603f011681019083821181831017156119095761190961181d565b816040528281528a602084870101111561192257600080fd5b82602086016020830137600060208483010152809550505050505092959194509250565b6000806040838503121561195957600080fd5b61196283611737565b915061197060208401611737565b90509250929050565b600181811c9082168061198d57607f821691505b6020821081036119c6577f4e487b7100000000000000000000000000000000000000000000000000000000600052602260045260246000fd5b50919050565b7f4e487b7100000000000000000000000000000000000000000000000000000000600052601160045260246000fd5b60007fffffffffffffffffffffffffffffffffffffffffffffffffffffffffffffffff8203611a2c57611a2c6119cc565b5060010190565b7f4e487b7100000000000000000000000000000000000000000000000000000000600052603260045260246000fd5b60008351611a7481846020880161169d565b835190830190611a8881836020880161169d565b01949350505050565b600073ffffffffffffffffffffffffffffffffffffffff808716835280861660208401525083604083015260806060830152611ad060808301846116c1565b9695505050505050565b600060208284031215611aec57600080fd5b81516107ed8161164f565b81810381811115610316576103166119cc565b7f4e487b7100000000000000000000000000000000000000000000000000000000600052603160045260246000fdfea264697066735822122027b05f1d4af791b8c04466b87c937ac0a0a4f5fecb7395037dfc6387bb2cbc5664736f6c63430008150033",
    "linkReferences": {}
  },
  "methodIdentifiers": {
    "approve(address,uint256)": "095ea7b3",
    "balanceOf(address)": "70a08231",
    "getApproved(uint256)": "081812fc",
    "isApprovedForAll(address,address)": "e985e9c5",
    "mint()": "1249c58b",
    "name()": "06fdde03",
    "ownerOf(uint256)": "6352211e",
    "safeTransferFrom(address,address,uint256)": "42842e0e",
    "safeTransferFrom(address,address,uint256,bytes)": "b88d4fde",
    "setApprovalForAll(address,bool)": "a22cb465",
    "supportsInterface(bytes4)": "01ffc9a7",
    "symbol()": "95d89b41",
    "tokenByIndex(uint256)": "4f6ccce7",
    "tokenOfOwnerByIndex(address,uint256)": "2f745c59",
    "tokenURI(uint256)": "c87b56dd",
    "totalSupply()": "18160ddd",
    "transferFrom(address,address,uint256)": "23b872dd"
  },
  "id": 44
}